:020000040800F2
:10000000F01500209D010008D16A0008D5590008AC
:100010006969000865080008699F00080000000081
:10002000000000000000000000000000D98500086A
:100030004910000800000000FD6D000891870008CD
:10004000B7010008B7010008B7010008B7010008B0
:10005000B7010008B7010008B7010008B7010008A0
:10006000B7010008B7010008B7010008710E0008C9
:10007000B7010008810E0008B7010008B7010008A9
:10008000B7010008B7010008B7010008B701000870
:10009000B7010008B7010008B7010008B701000860
:1000A000B701000869880008B7010008B701000817
:1000B000B7010008B7010008B7010008B701000840
:1000C000B7010008B7010008B7010008B701000830
:1000D000B7010008B7010008B7010008B701000820
:1000E000B7010008B7010008B7010008B701000810
:1000F000B7010008B7010008B7010008B701000800
:10010000B7010008B7010008B7010008B7010008EF
:100110006D9700087D970008B7010008B701000837
:10012000B7010008B7010008910E0008B7010008E8
:10013000B7010008B7010008B7010008B7010008BF
:10014000B7010008B7010008B7010008B7010008AF
:10015000B7010008B7010008A10E0008B7010008A8
:10016000B7010008B7010008B7010008B70100088F
:10017000B7010008B7010008B7010008000000003F
:10018000B7010008B7010008DFF80CD000F052FBFF
:100190000048004789A00008F01500200648804765
:1001A00006480047FEE7FEE7FEE7FEE7FEE7FEE75C
:1001B000FEE7FEE7FEE7FEE7558800088901000834
:1001C0002DE9F05F0546002092469B46884606468C
:1001D000814640241BE0284641464746224600F01F
:1001E00021FA53465A46C01A914110D31146184677
:1001F000224600F008FA2D1A67EB01084F46224606
:100200000120002100F0FFF917EB00094E41201EEC
:10021000A4F10104DFDC484631462A464346BDE8E6
:10022000F09FD2B201E000F8012B491EFBD27047CB
:100230000022F6E710B513460A4604461946FFF7B2
:10024000F0FF204610BD2DE9FE4F804681EA0300F5
:10025000C00F0C46009021F0004123F00045B8EBA0
:100260000200A94105D24046214690461C460B4655
:10027000024623F00040104347D0270DC7F30A0081
:10028000C3F30A510290401A019040286BDAC3F37D
:10029000130040F4801B0098924620B10023D2EB5B
:1002A000030A63EB0B0B01985946C0F1400250461C
:1002B00000F0A9F906460D4650465946019A00F04D
:1002C000C1F910EB08006141002487EA115284EA69
:1002D000E7731A4340D0009A62B3019A012A4FEAA9
:1002E000075215DC001B61EB02014FF0004202EAED
:1002F0000752CDE90042001C41F5801132462B46E1
:1003000000F0F8F903B0BDE8F08F40462146F9E768
:10031000001B61EB0201001C41F5801300185B41DA
:100320002018A2F5001747EB030140EAD570B61973
:100330006D4111E06D084FEA360645EAC0754FEA97
:100340000752001B61EB0201001C41F580114908B6
:100350004FEA30000019514132462B4603B0BDE848
:10036000F04F00F0B8B90098012240000023D0EB14
:10037000020263EBE073009821464FEAE074B8EBA9
:10038000000061EB0401E9E783F000435BE781F0E3
:10039000004158E72DE9FE4F81EA030404F00044D0
:1003A00021F0004100944FF0000B23F0004350EA8D
:1003B00001045ED052EA03045BD0C3F30A54C1F3D4
:1003C0000A552C44A4F2F3340194A0FB0254C1F367
:1003D000130141F48011C3F3130343F4801301FBB1
:1003E000024400FB034E840A970A44EA815447EA18
:1003F0008357A4FB076802958D0A05FB07854FEA22
:10040000932C04FB0C542705029D4FEA065847EA3B
:100410001637B5EB08056EEB070C870E920E47EA10
:10042000811742EA8312A7FB0201B6EB0B0164EBD2
:1004300000042B0D43EA0C335E1844EB1C50DA46E3
:100440005146E7FB0201C5F313044FEA0B3343EABD
:1004500014534FEA0432019C43EA0603A4F10C044E
:100460000294009CCDE900B400F044F903B0BDE86B
:10047000F08F00200146F9E72DE9F04D81EA0304F1
:1004800004F0004B21F0004514464FF0000A23F021
:10049000004150EA050220D054EA01021DD0C5F304
:1004A0000A570246C5F31303C1F31300C1F30A56FA
:1004B00040F4801543F48013A7EB0608101BD646C2
:1004C00008F2FD3873EB050002D308F1010801E0E2
:1004D00092185B41B8F1000F03DA00200146BDE835
:1004E000F08D00204FF48011064684460EE0171B65
:1004F00073EB050705D3121B63EB050306434CEAB8
:10050000010C49084FEA300092185B4150EA01079C
:10051000EDD152EA030012D082EA040083EA050119
:10052000084305D0101BAB4106D20122002306E090
:1005300000224FF0004302E06FF0010253101AEB6B
:1005400006004CEB085110EB0A0041EB0B01BDE833
:10055000F04D00F0C0B80EB5C10F80EAE07008445D
:10056000CA07002140F233438DE80E000A460B46CD
:1005700000F0C0F803B000BDC1F30A52C1F313018B
:1005800040F2FF3341F480119A4202DA0020014622
:10059000704740F233439A42A2F2334202DC5242A5
:1005A00000F040B800F02FB800F0004230F00040FA
:1005B0000AD0C10D01F56071C0F3160042EA015185
:1005C000C20840071143704700200146704701F000
:1005D000004330B421F0004150EA010206D00A0D78
:1005E000A2F56072C1F31301002A02DC30BC0020C6
:1005F0007047440F44EAC104C100E01830BC00EB6E
:10060000C25000F031B8202A04DB203A00FA02F18F
:10061000002070479140C2F1200320FA03F31943F0
:1006200090407047202A04DB203A21FA02F0002192
:10063000704721FA02F3D040C2F1200291400843F2
:1006400019467047202A06DBCB17203A41FA02F000
:1006500043EAE07306E041FA02F3D040C2F120021F
:1006600091400843194670470029A8BF7047401CB5
:10067000490008BF20F00100704710B4B0FA80FCB8
:1006800000FA0CF050EA010404BF10BC704749B1F5
:10069000CCF1200421FA04F411FA0CF118BF012165
:1006A00021430843A3EB0C01CB1D4FEA00614FEA45
:1006B000102042BF002010BC704700EBC350104414
:1006C0000029A4BF10BC7047401C490008BF20F09F
:1006D000010010BC704710B5141E73F1000408DA55
:1006E000401C41F1000192185B411A4301D120F0F6
:1006F000010010BD2DE9F04D92469B4611B1B1FAB3
:1007000081F202E0B0FA80F220329046FFF77BFFE0
:1007100004460F4640EA0A0041EA0B0153465A4696
:10072000084313D0114653EA010019D0C8F1400222
:100730005046FFF777FF05460E465046594642465B
:10074000FFF761FF084305D0012004E02046394649
:10075000BDE8F08D0020054346EAE0762C433743A0
:100760000A986305E40AA0EB08000022FD0A44EAA7
:1007700047540A3002D500200146E9E70105101967
:100780006941DDE9084500196941BDE8F04DA2E77E
:100790002DE9F04D00231A461B1A8A4103DB002085
:1007A0000146BDE8F08DC1F30A52C1F3130141F4D3
:1007B00080154FF0000BD10702D100186D41521E79
:1007C0000027044640F2FF11384601EB620A3E461C
:1007D0008046024600204FF48011FFF723FFC21924
:1007E0007141BB1846EB0100B4EB030C75EB000C38
:1007F00004D3E41A65EB000517460E46241908F1E8
:1008000001006D4180463428E3DDF91946EB06000E
:10081000091BA84103D24FF0FF32134601E000222A
:1008200013461BEB070046EB0A51BDE8F04DFFF7FE
:1008300052BF00001CB509480090094801900546C8
:10084000009C06E0E06840F0010394E80700984748
:100850001034AC42F6D3FFF79BFC000004B0000854
:1008600024B00008FFE7FEE7B0B592B08DED110AA5
:10087000CDED100A8DF83F000E911198059010985B
:1008800006909DF83F008DF81C0040F2D800C2F29F
:100890000000007A01460491032874D80499DFE827
:1008A00001F00216325640F2D800C2F20000016890
:1008B0000B9141680C91007A8DF8340005980890EE
:1008C000069809909DF83F008DF828005CE040F202
:1008D000D800C2F2000090ED010AB1EE400A8DEDA1
:1008E0000B0A01680C91007A8DF834009DED060A20
:1008F000B1EE400A8DED080A059809909DF83F0079
:100900008DF8280040E040F2D800C2F2000090EDDF
:10091000000AB1EE400A8DED0B0A90ED010AB1EE2E
:10092000400A8DED0C0A007A8DF834009DED050A21
:10093000B1EE400A8DED080A9DED060AB1EE400ABF
:100940008DED090A9DF83F008DF828001CE040F26B
:10095000D800C2F2000041680B9190ED000AB1EEA0
:10096000400A8DED0C0A007A8DF834000698089044
:100970009DED050AB1EE400A8DED090A9DF83F0094
:100980008DF8280000E0FFE740F2D801C2F2000134
:100990000598069A079B8B604A6008600E9D089830
:1009A00009990A9A0B9BDDF830C00D9CEE46CEF8F3
:1009B0000850CEF80440CEF800C000F005F812B0A0
:1009C000B0BD00000000000010B58AB096468C460D
:1009D00002460D990C980E9CCDF824E0CDF820C06D
:1009E00007920691059004939DED070A9DED041A68
:1009F00030EE410A10EE100AFFF7D6FD41EC100B65
:100A000051EC100B9FEDEA0B52EC103BD20F019210
:100A100062F3DF7141EC100B51EC100B9FEDE60B14
:100A200053EC102BFFF7B6FC41EC100B51EC100B04
:100A3000FFF7CDFD03909DED080A9DED051A30EE00
:100A4000410A10EE100AFFF7AFFD019A41EC100BBE
:100A500051EC100B62F3DF7141EC100B51EC100BF9
:100A60009FEDD70B53EC102BFFF794FC41EC100BD0
:100A700051EC100BFFF7ABFD02909DED030A9FEDCB
:100A8000D21AB4EE410AF1EE10FA03DCFFE70020BF
:100A900003900EE09DED030AB7EE001AB4EE410A92
:100AA000F1EE10FA04DCFFE74FF07E500390FFE711
:100AB000FFE79DED020A9FEDEB1AB4EE410AF1EE5D
:100AC00010FA03DCFFE7002002900EE09DED020A21
:100AD000B7EE001AB4EE410AF1EE10FA04DCFFE7BB
:100AE0004FF07E500290FFE7FFE79DED070A9DED76
:100AF000041A30EE410A4FF0FF30B5EE400AF1EE35
:100B000010FA0146A8BF012140F22012C2F20002F1
:100B100011709DED080A9DED051A30EE410AB5EE03
:100B2000400AF1EE10FAA8BF012040F22111C2F2F2
:100B3000000108709DED030AB5EE400AF1EE10FACF
:100B40001DD1FFE740F28411C2F2000100200870BD
:100B500040F21C10C2F200000121017040F21D128F
:100B6000C2F20002FF20107040F21E12C2F2000218
:100B7000117040F21F11C2F20001087024E09DEDD7
:100B8000020AB5EE400AF1EE10FA1CD1FFE740F27E
:100B90008411C2F200010120087040F21C12C2F25E
:100BA0000002FF21117040F21D12C2F2000211700A
:100BB00040F21E11C2F20001087040F21F11C2F291
:100BC00000010870FFE7FFE740F25800C2F20000A2
:100BD00090ED001A9FEDA40A80EE010A9DED031A24
:100BE000B4EE410AF1EE10FA22DDFFE79DED030AB3
:100BF00040F25800C2F2000090ED001A20EE010A07
:100C000010EE100AFFF7D0FC41EC100B09F030FF9A
:100C100051EC100BFFF7DBFC40F21411C2F20001A3
:100C2000086040F24811C2F20001002008601FE095
:100C300040F21411C2F2000144F20000C4F29C50D0
:100C400008609DED030A40F25800C2F2000090EDEA
:100C5000002A9FED861A81EE021A30EE010ABDEEDF
:100C6000C00A40F24810C2F2000080ED000AFFE71F
:100C700040F21410C2F2000090ED000A40F2580059
:100C8000C2F2000090ED001A80EE010ABDEEC00A2B
:100C900040F25011C2F2000181ED000A90ED001AFD
:100CA0009FED710A80EE010A9DED021AB4EE410A31
:100CB000F1EE10FA22DDFFE79DED020A40F2580046
:100CC000C2F2000090ED001A20EE010A10EE100AA8
:100CD000FFF76AFC41EC100B09F0CAFE51EC100B57
:100CE000FFF775FC40F21811C2F20001086040F2F3
:100CF0004C11C2F20001002008601FE040F2181100
:100D0000C2F2000144F20000C4F29C5008609DED64
:100D1000020A40F25800C2F2000090ED002A9FED56
:100D2000531A81EE021A30EE010ABDEEC00A40F2FB
:100D30004C10C2F2000080ED000AFFE740F21810EC
:100D4000C2F2000090ED000A40F25800C2F200002A
:100D500090ED001A80EE010ABDEEC00A40F2541177
:100D6000C2F2000181ED000A40F25010C2F2000010
:100D7000026840F24810C2F20000006800EB420234
:100D800040F27C10C2F2000002600A6840F24C118E
:100D9000C2F20001096801EB420240F28011C2F286
:100DA00000010A6000680968884216DB0EE000BF97
:100DB0000000000000000000000000A09999094018
:100DC0000000004033330740CDCCCC3D40F27C10D6
:100DD000C2F200000068009006E040F28010C2F20B
:100DE000000000680090FFE7009840F21011C2F286
:100DF0000001086040F20E11C2F2000101200870EB
:100E000040F2A830C2F2000002F0EEFDFFE740F22F
:100E10000E10C2F200000078012804D1FFE70A207A
:100E200001F05CF9F3E70121084605F07DF80A209E
:100E300001F054F905F058F99DF818009DF82410B8
:100E4000884207D0FFE79DF824009DF8181008F0AD
:100E50004BF8FFE70120002105F066F805F044F9A2
:100E60000AB010BDCDCCCC3D20BCBE4B20BCBECB0F
:100E700080B540F2EC10C2F2000000F085FE80BDAB
:100E800080B540F28C10C2F2000000F07DFE80BD03
:100E900080B540F24C20C2F2000000F075FE80BD2B
:100EA00080B540F2AC20C2F2000000F06DFE80BDC3
:100EB00082B001900198007810384AF6AB21CAF64A
:100EC000AA21A0FB01100009009000994AF65B607E
:100ED000C0F60000405C0199C8650098042807D35B
:100EE000FFE701990868042262F30900886506E0BB
:100EF0000199086840F2FF3290438865FFE7019846
:100F0000806D02B07047000086B0059000208DF81B
:100F100013000598806A03900598806910BBFFE76D
:100F20000398029003281BD80299DFE801F0020D14
:100F30000218059890F82F00C00720B1FFE70120A4
:100F40008DF81300FFE70CE00598C06AB0F1C07F90
:100F500004D1FFE701208DF81300FFE701E000E076
:100F6000FFE745E005988069B0F5005F25D1FFE710
:100F70000398019003281ED80199DFE801F00206CA
:100F8000021101208DF8130016E0059890F82F004B
:100F9000C00720B1FFE701208DF81300FFE70BE049
:100FA0000598C06AB0F1C07F04D1FFE701208DF839
:100FB0001300FFE700E0FFE719E003980090032823
:100FC00004D3FFE70098032804D00EE001208DF839
:100FD00013000BE0059890F82F00C00720B1FFE741
:100FE00001208DF81300FFE700E0FFE7FFE7FFE7D0
:100FF0009DF8130006B0704784B0039002910192EF
:10100000009303980168086820F480200860009825
:1010100003990968486003988068402809D1FFE770
:101020000198039909688860029803990968C86063
:1010300008E0029803990968886001980399096893
:10104000C860FFE704B070477047000072B6FFE762
:10105000FEE7000000000000B0B5A4B08DF88E00DF
:1010600000202090219040F2D801C2F20001097ABC
:101070008DF888101F901E901D909DF88E000238EC
:1010800001461C91032800F2EF831C99DFE811F060
:10109000040093017102110340F25801C2F20001F1
:1010A00045F2D230C3F6FB7008600221084607F013
:1010B000C1FA40F2EC01C2F2000101201B9008705D
:1010C0004AF69470C0F6000090ED000AD0ED010AD7
:1010D00090ED021A03204FF42F714FF4FA7206F0CC
:1010E00091F91B9940F2C602C2F2000200209071F1
:1010F000084604F019FFFFE740F2C600C2F2000004
:10110000807903286DD0FFE740F2C600C2F20000EC
:101110008079012864D1FFE740F2C601C2F20001E4
:101120001A9188780A794FF0FF31002A08BF01210F
:101130004843FFF710FA41EC100B51EC100B9FEDF8
:10114000C00B53EC102BFFF725F941EC100B51ECC1
:10115000100BFFF73CFA20901E98219040F2D80027
:10116000C2F20000017A8DF88810007A8DF87C00B8
:101170001D981E991F9A209BDDF884C0229C49F679
:101180006D75C0F60005EE46CEF80850CEF8044066
:10119000CEF800C0FFF718FC1A991D982090C87867
:1011A0004979012918BF4FF0FF31484300EE100A7A
:1011B000B8EEC00A8DED210A1D981E991F9A209B3A
:1011C000DDF884C0229CEE46CEF80850CEF80440EC
:1011D000CEF800C0FFF7F8FB1A9900208871FFE7EE
:1011E0008AE7012019900021189104F09DFE1898BB
:1011F000199940F2C602C2F2000290714AF6947048
:10120000C0F6000090ED000AD0ED010A90ED021A40
:101210009FED8D2A31EE021A032006F077F9FFE7E1
:1012200040F2C600C2F20000807901280CD0FFE72E
:101230000121084604F078FE642000F04FFF0221EF
:10124000084607F0F7F9EBE7012017900021169107
:1012500004F06AFE1698179940F2C602C2F2000224
:101260009071084604F060FE40F25801C2F200019D
:1012700040F6DB70C3F6C9600860FFE740F2C600C5
:10128000C2F20000807903287AD0FFE740F2C6005E
:10129000C2F200008079012871D1FFE740F2C60157
:1012A000C2F20001159188780A794FF0FF31002AC7
:1012B00008BF01214843FFF74EF941EC100B51ECF8
:1012C000100B9FED630B53EC102BFFF763F841EC11
:1012D000100B51EC100BFFF77AF920901E9821901B
:1012E00040F2D800C2F20000017A8DF88810007A2E
:1012F0008DF87C001D981E991F9A209BDDF884C0F4
:10130000229C49F66D75C0F60005EE46CEF80850F1
:10131000CEF80440CEF800C0FFF756FB15991D9893
:101320002090C8784979012918BF4FF0FF31484310
:10133000FFF711F941EC100B51EC100B9FED460B30
:1013400053EC102BFFF726F841EC100B51EC100B6F
:10135000FFF73DF921901D981E991F9A209BDDF8FB
:1013600084C0229CEE46CEF80850CEF80440CEF859
:1013700000C0FFF729FB159900208871FFE77DE782
:1013800001200021149104F0CFFD0920022107F073
:1013900051F9149840F25802C2F2000245F2D231DB
:1013A000C4F27B11116040F2EC01C2F2000108703E
:1013B0008DF88F0069E2032012900121139107F04C
:1013C00039F91298139940F2EC02C2F2000211703E
:1013D00040F25802C2F2000245F2D231C3F6FB716C
:1013E00011604AF69471C0F6000191ED000AD1ED4A
:1013F000010A91ED021A4FF42F714FF4FA7206F0C0
:1014000001F8139940F2C602C2F200020020907166
:10141000084604F089FDFFE740F2C600C2F2000072
:101420008079032800F08E80FFE740F2C600C2F208
:1014300000008079012840F0848011E000BF00BFE7
:10144000CDCCCCCCCCCCEC3F00008CC200BF00BFDC
:10145000333333333333E33F666666666666E63FAF
:1014600040F2C601C2F20001119188780A794FF06A
:10147000FF31002A08BF01214843FFF76CF841EC17
:10148000100B51EC100B1FED0E0B53EC102BFEF755
:1014900081FF41EC100B51EC100BFFF798F82090F6
:1014A0001E98219040F2D800C2F20000017A8DF817
:1014B0008810007A8DF87C001D981E991F9A209B39
:1014C000DDF884C0229C49F66D75C0F60005EE4635
:1014D000CEF80850CEF80440CEF800C0FFF774FAFA
:1014E00011991D982090C8784979012918BF4FF0AB
:1014F000FF314843FFF72FF841EC100B51EC100B74
:101500009FEDE90B53EC102BFEF744FF41EC100B61
:1015100051EC100BFFF75BF821901D981E991F9A54
:10152000209BDDF884C0229CEE46CEF80850CEF811
:101530000440CEF800C0FFF747FA119900208871E7
:10154000FFE769E701200021109104F0EDFC1098FD
:1015500040F25802C2F2000245F2D231C4F27B11CD
:10156000116040F2EC01C2F2000108708DF88F00AA
:101570008BE1042001210F9107F05CF84AF694708A
:10158000C0F6000090ED000AD0ED010A90ED021ABD
:1015900003204FF42F714FF4FA7205F033FF0F99C7
:1015A00040F2C602C2F2000200209071084604F028
:1015B000BBFCFFE740F2C600C2F2000040790328FE
:1015C0005CD0FFE70220012104F0AEFC40F2C6002F
:1015D000C2F20000407901284FD1FFE740F2C60077
:1015E000C2F200000D900179002918BF01216B465D
:1015F00000220E925A600F200B9018600120B3EE6B
:10160000040A8DED0A0A05F0B1F99DED0A0A0D995B
:101610000E9A0B980979B1FA81F149096B465A6023
:10162000186002200C9005F0A1F99DED0A0A0D99B1
:101630000E9A0B980979002918BF01216B465A6050
:101640001860032005F092F99DED0A0A0D990E9A93
:101650000B980979B1FA81F149096B465A60186013
:10166000042005F083F904F027FD0C980E9904F08E
:101670005BFC0D990E984871FFE79BE704F034FD81
:1016800002200021099104F04FFC0999012004F087
:101690004BFC00F00DF9099840F28811C2F20001EC
:1016A000096840F27412C2F2000211608DF88F00D6
:1016B000EBE005200121089106F0BCFF089A40F2FA
:1016C0004610C2F2000002704AF6B470C0F6000084
:1016D00090ED000AD0ED010A90ED021A03201146A8
:1016E00005F090FE089940F25802C2F2000245F25D
:1016F000D230C3F6FB70106040F2C602C2F20002A4
:1017000000209071084604F00FFCFFE740F2C6008D
:10171000C2F200008079032800F08B80FFE740F2DE
:10172000C600C2F200008079012840F08180FFE706
:1017300001210791084604F0F7FB052006900021DF
:10174000059106F077FF40F2C601C2F20001049154
:10175000C8784979012918BF4FF0FF314843FEF797
:10176000FAFE41EC100B51EC100B9FED4B0B53ECC0
:10177000102BFEF70FFE41EC100B51EC100BFEF797
:1017800026FF20901E98219040F2D800C2F200005F
:10179000017A8DF88810007A8DF87C001D981E99CA
:1017A0001F9A209BDDF884C0229C49F66D75C0F617
:1017B0000005EE46CEF80850CEF80440CEF800C042
:1017C000FFF702F9049A07991D98209090781279F2
:1017D000002A08BF4FF0FF314843FEF7BCFE41EC42
:1017E000100B51EC100B9FED2E0B53EC102BFEF752
:1017F000D1FD41EC100B51EC100BFEF7E8FE2190EF
:101800001D981E991F9A209BDDF884C0229CEE46ED
:10181000CEF80850CEF80440CEF800C0FFF7D4F858
:10182000049B059A069807999A7106F003FFFFE753
:101830006CE70920022106F0FDFE01200021039142
:1018400004F072FB039840F24611C2F200010870E6
:1018500040F25802C2F2000245F2D231C4F27B11CA
:1018600011608DF88F0010E00920022106F0E2FEE1
:1018700040F25801C2F2000145F2D230C4F27B10AE
:10188000086000208DF88F00FFE79DF88F0024B0DE
:10189000B0BD00BF00BF00BF9A9999999999D93FEF
:1018A000333333333333D33F666666666666E63F6B
:1018B00080B588B000200690059040F2ED00C2F29D
:1018C0000000B0F8050000EE100AB8EEC00A9FED67
:1018D0005D1A20EE010A9FED5C2A80EE020A8DED72
:1018E000060A9DED060A40F2E850C2F2000090EDB3
:1018F000002A30EE420A8DED050A9DED050AB4EE90
:10190000410AF1EE10FA09DBFFE79DED050A9FEDB4
:10191000511A30EE010A8DED050A13E09DED050A1E
:101920009FED4A1AB4EE410AF1EE10FA09DCFFE726
:101930009DED050A9FED461A30EE010A8DED050A70
:10194000FFE7FFE79DED050AB0EEC00AB2EE0E1A02
:10195000B4EE410AF1EE10FA2FDDFFE70520012178
:1019600004F0E2FA4FF4FA700490FFE70498411E85
:10197000049118B1FFE704F0B7FBF7E70520002159
:1019800004F0D2FA9DED050ABDEEC00A10EE100A71
:101990000321039106F06EFE039940F28810C2F213
:1019A000000090ED000ABDEEC00A10EE100A06F02D
:1019B00061FE01208DF81F0040E040F28810C2F265
:1019C0000000029090ED000ABDEEC00A10EE100A71
:1019D0000321019106F04EFE01999DED050ABDEE31
:1019E000C00A10EE100A06F045FE02999DED051A98
:1019F00091ED000A30EE010A81ED000A40F2E400A8
:101A0000C2F20000026840F2E803C2F200031A606A
:101A1000069A40F2E853C2F200031A6091ED000A00
:101A200040F27411C2F2000191ED001A30EE410A49
:101A300080ED000A00208DF81F00FFE79DF81F00D1
:101A400008B080BD0000344300000047000034C3EC
:101A50000000B4430000B4C380B584B00290029883
:101A6000806D019000F050FD0090029890F83500D4
:101A700002280DD0FFE7029980204865FFE7029910
:101A8000002081F83400FFE701208DF80F0055E0B9
:101A900002980168086820F0160008600298016842
:101AA000486920F0800048610298006C20B9FFE787
:101AB0000298806C38B1FFE702980168086820F04E
:101AC00008000860FFE702980168086820F001003C
:101AD0000860FFE7029800680068C007C8B1FFE728
:101AE00000F012FD0099401A062811D3FFE7029971
:101AF000202048650299032081F83500FFE702990C
:101B0000002081F83400FFE703208DF80F0015E076
:101B1000E0E70298C16D3F208840019988600299F2
:101B2000012081F83500FFE70299002081F8340098
:101B3000FFE7FFE700208DF80F00FFE79DF80F009B
:101B400004B080BD82B00090009890F83500022863
:101B500007D0FFE700998020486501208DF8070035
:101B60000EE00099052081F83500009801680868AA
:101B700020F001000860FFE700208DF80700FFE774
:101B80009DF8070002B0704780B586B00590002030
:101B9000039040F2A800C2F20000006848F2B511BC
:101BA000C1F64E31A0FB0110800A02900598806DAD
:101BB000019001980068049004980599C96DC84087
:101BC000000700281AD5FFE705980068006840075D
:101BD000002812D5FFE705980168086820F0040086
:101BE00008600598C16D08208840019988600599B2
:101BF000486D40F001004865FFE7FFE7049805994C
:101C0000C96DC840C007A0B1FFE7059800684069EA
:101C1000000600280CD5FFE70598C16D012088401B
:101C2000019988600599486D40F002004865FFE71A
:101C3000FFE704980599C96DC8404007002814D5EE
:101C4000FFE7059800680068800700280CD5FFE7CB
:101C50000598C16D04208840019988600599486DF8
:101C600040F004004865FFE7FFE704980599C96D57
:101C7000C840C006002847D5FFE7059800680068FF
:101C8000000700283FD5FFE70598C16D1020884068
:101C900001998860059800680068400300281AD5FB
:101CA000FFE70598006800680003002809D4FFE7F3
:101CB0000598006C20B1FFE70598016C8847FFE7A5
:101CC00008E00598806C20B1FFE70598816C884793
:101CD000FFE7FFE716E0059800680068C0050028E8
:101CE00007D4FFE705980168086820F0080008603D
:101CF000FFE70598006C20B1FFE70598016C884765
:101D0000FFE7FFE7FFE7FFE704980599C96DC840C3
:101D10008006002840F18D80FFE705980068006884
:101D2000C006002840F18480FFE70598C16D20209F
:101D3000884001998860059890F83500052834D1CD
:101D4000FFE705980168086820F01600086005980C
:101D50000168486920F0800048610598006C20B94E
:101D6000FFE70598806C38B1FFE7059801680868BF
:101D700020F008000860FFE70598C16D3F2088400B
:101D8000019988600599012081F83500FFE70599E0
:101D9000002081F83400FFE70598006D20B1FFE7CF
:101DA0000598016D8847FFE77BE0059800680068AB
:101DB000400300281AD5FFE7059800680068000373
:101DC000002809D4FFE70598406C20B1FFE705988B
:101DD000416C8847FFE708E00598C06B20B1FFE73A
:101DE0000598C16B8847FFE7FFE720E0059800688A
:101DF0000068C005002811D4FFE70598016808684D
:101E000020F0100008600599012081F83500FFE7F7
:101E10000599002081F83400FFE7FFE70598C06BC3
:101E200020B1FFE70598C16B8847FFE7FFE7FFE7B1
:101E3000FFE70598406DA0B3FFE70598406DC00728
:101E400030B3FFE70599052081F835000598016852
:101E5000086820F001000860FFE703980130039054
:101E60000299884201D9FFE707E0FFE7059800687B
:101E70000068C0070028F0D1FFE70599012081F82C
:101E80003500FFE70599002081F83400FFE7FFE700
:101E90000598C06C20B1FFE70598C16C8847FFE743
:101EA000FFE706B080BD000080B586B0049000203A
:101EB000039000F029FB0290049820B9FFE701206D
:101EC0008DF81700A3E00498406A08B1FFE7FFE728
:101ED0000499022081F83500FFE70499002081F879
:101EE0003400FFE704980168086820F001000860EA
:101EF000FFE7049800680068C00790B1FFE700F0B2
:101F000003FB0299401A06280AD3FFE70499202010
:101F100048650499032081F835008DF8170076E0B4
:101F2000E7E70498006800680390039848F23F01CF
:101F3000CFF2100108400390049900914868D1F84D
:101F400008C0CB680A6940EA0C00184310434A698C
:101F500010438A691043CA691043096A0143039810
:101F6000084303900498406A042808D1FFE70499C5
:101F7000C86A096B0143039808430390FFE703987D
:101F80000499096808600498006840690390039800
:101F900020F0070003900498416A039808430390D7
:101FA0000498406A04281AD1FFE70498816A0398CC
:101FB000084303900498C06A80B1FFE70498FEF7D5
:101FC000A3FF50B1FFE70499402048650499012020
:101FD00081F835008DF8170019E0FFE7FFE7039857
:101FE0000499096848610498FEF762FF019004981B
:101FF000C16D3F20884001998860049900204865A0
:10200000049A012182F835108DF81700FFE79DF83A
:10201000170006B080BD000080B588B0069005911D
:102020000492039300208DF80B000698806D0190B8
:10203000FFE7069890F83400012804D1FFE702205A
:102040008DF81F0045E00699012081F83400FFE774
:10205000FFE7069890F8350001282BD1FFE7069995
:10206000022081F8350006990020486506980599F8
:10207000049A039BFEF7C0FF0698C16D3F2088407D
:102080000199886006980168086840F016000860A9
:102090000698006C38B1FFE706980168086840F0C0
:1020A00008000860FFE706980168086840F0010032
:1020B000086009E0FFE70699002081F83400FFE797
:1020C00002208DF80B00FFE79DF80B008DF81F0034
:1020D000FFE79DF81F0008B080BD000080B584B008
:1020E000039000F011FA02900398019001980130DA
:1020F00048B1FFE740F2CF00C2F20000017801983A
:1021000008440190FFE7FFE700F0FEF90299401A4A
:102110000199884201D2FFE7F6E704B080BD0000D4
:102120008EB00D900C9100200A90099008900B90B1
:10213000FFE70B980F2800F2CC81FFE70B990120F5
:1021400088400A900C9800680A99084009900998FC
:102150000A99884240F0B881FFE70C98406800F087
:102160000300012807D0FFE70C98406800F0030047
:1021700002282FD1FFE70D98806808900B98410046
:10218000032000FA01F10898884308900C98C06871
:102190000B99490000FA01F1089808430890089843
:1021A0000D9988600D98406808900B99012000FAFD
:1021B00001F10898884308900C984068C0F300101B
:1021C0000B9900FA01F108980843089008980D99B6
:1021D0004860FFE70C98406800F00300032818D01F
:1021E000FFE70D98C06808900B984100032000FAA3
:1021F00001F10898884308900C9880680B99490071
:1022000000FA01F108980843089008980D99C860F1
:10221000FFE70C98406800F00300022826D1FFE792
:102220000D980B996FF0030202EA51010844006A0D
:1022300008900B9800F0070081000F2000FA01F1D0
:102240000898884308900C9800690B9901F00701E1
:10225000890000FA01F108980843089008980D9940
:102260000B9B02EA530211440862FFE70D980068D5
:1022700008900B984100032000FA01F10898884368
:1022800008900C98406800F003000B99490000FA90
:1022900001F108980843089008980D9908600C9877
:1022A00080798007002800F00E81FFE7FFE700201B
:1022B000079043F64400C4F20200016841F48041F3
:1022C0000160006800F4804007900798FFE70B98D2
:1022D00020F0030043F60801C4F2010140580890C1
:1022E0000B9800F0030081000F2000FA01F108981C
:1022F000884308900D980021C4F20201884203D15E
:10230000FFE7002006905EE00D9840F20041C4F225
:102310000201884203D1FFE70120059050E00D98AB
:1023200040F60001C4F20201884203D1FFE7022017
:10233000049042E00D9840F60041C4F20201884248
:1023400003D1FFE70320039034E00D9841F2000130
:10235000C4F20201884203D1FFE70420029026E084
:102360000D9841F20041C4F20201884203D1FFE717
:102370000520019018E00D9841F60001C4F2020119
:10238000884203D1FFE7062000900AE00D9941F64C
:102390000042C4F202020820914208BF07200090C8
:1023A000FFE700980190FFE701980290FFE702988D
:1023B0000390FFE703980490FFE704980590FFE778
:1023C00005980690FFE70698C0B20B9901F003014B
:1023D000890000FA01F108980843089008980B99C1
:1023E00021F0030143F60802C4F20102885043F6CB
:1023F0000840C4F2010000680890099908988843D1
:1024000008900C988079C006002805D5FFE7099947
:10241000089808430890FFE7089843F60841C4F27B
:102420000101086043F60C40C4F201000068089006
:1024300009990898884308900C98807980060028AC
:1024400005D5FFE70999089808430890FFE7089821
:1024500043F60C41C4F20101086043F60440C4F2A3
:1024600001000068089009990898884308900C9822
:1024700080798007002805D5FFE709990898084367
:102480000890FFE7089843F60441C4F20101086090
:1024900043F60040C4F201000068089009990898CA
:1024A000884308900C988079C00728B1FFE7099904
:1024B000089808430890FFE7089843F60041C4F2E3
:1024C00001010860FFE7FFE7FFE70B9801300B9081
:1024D0002FE60EB07047000082B00190ADF80210F8
:1024E0008DF801209DF8010028B1FFE7BDF802003A
:1024F0000199886105E0BDF8020000040199886136
:10250000FFE702B07047000040F2EC50C2F200005A
:102510000068704780B58EB00C900C9820B9FFE72A
:1025200001208DF8370043E10C9890F83D0040B948
:10253000FFE70C99002081F83C000C9800F046FA67
:10254000FFE70C99242081F83D000C980168086889
:1025500020F0010008600C980168086840F4004011
:1025600008600C980168086820F40040086000F0DA
:1025700063FC0A900C98406848F2A061C0F2010127
:1025800088420BD8FFE70A9948F28042C0F21E0247
:102590000020914238BF012009900AE00A9940F6D4
:1025A0000012C0F23D020020914238BF0120099084
:1025B000FFE70998012804D1FFE701208DF83700D3
:1025C000F6E00A984DF68361C4F21B31A0FB0110BE
:1025D000800C0B900C980068406820F03F000B992D
:1025E00008430C99096848600C980068006A20F05C
:1025F0003F0008900C98406848F2A061C0F20101C9
:10260000884204D8FFE70B98013007900EE00B9842
:102610004FF49671484344F6D351C1F26201A0FBD6
:102620000101012000EB91100790FFE7089807993E
:1026300008430C99096808620C980068C0694CF658
:10264000FF71884306900C98406848F2A061C0F280
:10265000010188421FD8FFE70A9801380C994968A0
:102660004900B0FBF1F001306FF31F30032803D8AD
:10267000FFE7042005900BE00A9801380C9949689F
:102680004900B0FBF1F001306FF31F300590FFE718
:10269000059804904CE00C98806868B9FFE70A98A8
:1026A00001380C99496801EB4101B0FBF1F00130B0
:1026B0006FF31F3003900DE00A9801380C994968B8
:1026C00019225143B0FBF1F00130042161F31F30B6
:1026D0000390FFE70398000518B9FFE70120029077
:1026E00023E00C98806868B9FFE70A9801380C99D4
:1026F000496801EB4101B0FBF1F001306FF31F308D
:1027000001900DE00A9801380C994968192251434B
:10271000B0FBF1F00130042161F31F300190FFE7BD
:10272000019840F400400290FFE702980490FFE710
:102730000698049908430C990968C8610C980068C8
:10274000006820F0C0000C9B1968DA691B6A1A4304
:10275000104308600C980068806848F2FF31884395
:102760000C9A1168D36812691A43104388600C9858
:102770000068C06820F0FF000C9B19685A699B69CB
:102780001A431043C8600C980168086840F00100C3
:1027900008600C99002008640C9A202182F83D10F2
:1027A0000C9908630C9981F83E008DF83700FFE71B
:1027B0009DF837000EB080BD10B588B084460C98E7
:1027C0000B98DDF828E0CDF818C0ADF81610ADF87C
:1027D0001420ADF81230ADF81000FFF795FE03900D
:1027E000069890F83D00202840F0E880FFE7069822
:1027F00003996A4611600221C0F2100101221923D7
:1028000003F010FA20B1FFE702208DF81F00D9E095
:10281000FFE7069890F83C00012804D1FFE702206A
:102820008DF81F00CEE00699012081F83C00FFE7FB
:10283000FFE706980068006800F00100012807D053
:10284000FFE706980168086840F001000860FFE7AC
:1028500006980168086820F4006008600699212045
:1028600081F83D000699402081F83E00069900203D
:1028700008640A9806994862BDF8100006994885D0
:102880000698408D0699088506990020CFF6FF70BE
:10289000C8620698BDF81610BDF81420BDF81230B5
:1028A000DDF830C0039CEE46CEF80440CEF800C000
:1028B00003F0C4F820B1FFE701208DF81F0081E08C
:1028C000FFE70698008D002849D0FFE706980C998D
:1028D000039A03F0D5FA80B1FFE70698006C04284C
:1028E00007D1FFE706980168086840F400700860A7
:1028F000FFE701208DF81F0064E006980168406A38
:10290000007808610699486A013048620699088D86
:10291000013808850699488D013848850698006871
:10292000406900F004010120B0EB910F16D1FFE7E0
:102930000698008D90B1FFE706980168406A00781C
:1029400008610699486A013048620699088D013885
:1029500008850699488D01384885FFE7B1E7069854
:102960000C99039A03F008F980B1FFE70698006C10
:10297000042807D1FFE706980168086840F4007052
:102980000860FFE701208DF81F001BE00698016832
:10299000086840F4007008600699202081F83D0026
:1029A0000699002081F83E00FFE70699002081F893
:1029B0003C00FFE700208DF81F0003E002208DF8A7
:1029C0001F00FFE79DF81F0008B010BD80B588B05C
:1029D00007900020069005900490039002900798BD
:1029E000006845F20041C4F20001884234D1FFE79B
:1029F000FFE70020019043F63000C4F202000168B6
:102A000041F002010160006800F0020001900198AD
:102A1000FFE7C020029012200390002004900320C2
:102A200005900420069040F20040C4F2020002A982
:102A3000FFF776FBFFE70020009043F64000C4F26A
:102A40000200016841F400110160006800F4001008
:102A500000900098FFE7FFE708B080BD40F2CF008C
:102A6000C2F20000027840F2EC51C2F200010868A4
:102A7000104408607047000080B582B043F6004102
:102A8000C4F20201086840F400700860086840F46D
:102A900080600860086840F480700860032000F0DF
:102AA0008BF80020019000F005F800F03BF8019849
:102AB00002B080BD80B582B0009040F2A800C2F2A2
:102AC0000000006840F2CF01C2F200010A784FF422
:102AD0007A71B1FBF2F1B0FBF1F000F0A5FD20B18D
:102AE000FFE701208DF8070018E000980F280DD8A7
:102AF000FFE700994FF0FF30002200F043F8009804
:102B000040F2D001C2F20001086003E001208DF81C
:102B1000070003E000208DF80700FFE79DF807009D
:102B200002B080BD82B0FFE70020019043F6440070
:102B3000C4F20200016841F480410160006800F4C1
:102B4000804001900198FFE7FFE70020009043F6E6
:102B50004000C4F20200016841F080510160006849
:102B600000F0805000900098FFE702B0704700002E
:102B700080B582B08DF807009DF9070007F024FAB0
:102B800002B080BD80B586B08DF817000491039225
:102B90000020029007F030FA02909DF91700019092
:102BA00002980499039A03F095FF0146019807F0F3
:102BB0002BFA06B080BD000080B582B0019001986C
:102BC00007F044FA02B080BD80B584B00290019154
:102BD000029820B9FFE701208DF80F0021E101984C
:102BE00043F60041C4F20201096801F0070188427E
:102BF00012D9FFE7019943F60040C4F202000170C8
:102C0000006800F007000199884204D0FFE7012026
:102C10008DF80F0005E1FFE7029800788007002893
:102C20002AD5FFE7029800784007002809D5FFE77A
:102C300043F60801C4F20201086840F4E05008605D
:102C4000FFE7029800780007002809D5FFE743F660
:102C50000801C4F20201086840F460400860FFE720
:102C600043F60801C4F20201086820F0F000029A5D
:102C7000926810430860FFE702980078C0070028B8
:102C80006ED0FFE702984068012811D1FFE743F6B4
:102C90000000C4F20200006800F400310020B0EB34
:102CA000514F04D1FFE701208DF80F00B9E02CE06F
:102CB00002984068022805D0FFE702984068032880
:102CC00011D1FFE743F60000C4F20200006800F0F3
:102CD00000710020B0EB516F04D1FFE701208DF8A7
:102CE0000F009EE010E043F60000C4F2020000680E
:102CF00000F002010020B0EB510F04D1FFE70120EA
:102D00008DF80F008DE0FFE7FFE743F60801C4F2FE
:102D10000201086820F00300029A5268104308601C
:102D2000FFF7F2FB0090FFE743F60800C4F2020051
:102D3000006800F00C0002994968B0EB810F0ED0DA
:102D4000FFE7FFF7E1FB0099401A41F28931884221
:102D500004D3FFE703208DF80F0062E0E4E7FFE70C
:102D6000019843F60041C4F20201096801F007012D
:102D7000884212D2FFE7019943F60040C4F20200F4
:102D80000170006800F007000199884204D0FFE755
:102D900001208DF80F0044E0FFE70298007840071B
:102DA00000280CD5FFE743F60801C4F202010868C9
:102DB00020F4E050029AD26810430860FFE70298BE
:102DC0000078000700280DD5FFE743F60801C4F29C
:102DD0000201086820F46040029A126940EAC200C9
:102DE0000860FFE700F04CF843F60801C4F2020166
:102DF0000968C9B20A094AF61061C0F60001895C87
:102E0000C84040F2A801C2F20001086040F2D000C0
:102E1000C2F200000068FFF74DFE00208DF80F00A1
:102E2000FFE79DF80F0004B080BD000040F2A8004D
:102E3000C2F200000068704780B5FFF7F7FF43F665
:102E40000801C4F202010968C1F382224AF6206136
:102E5000C0F60001895CC84080BD000080B5FFF766
:102E6000E5FF43F60801C4F20201096889B24A0B82
:102E70004AF62061C0F60001895CC84080BD0000B0
:102E800080B586B00020059004900390029043F630
:102E90000800C4F20200006800F00C000146019135
:102EA00040B1FFE7019804280AD0FFE701980828FD
:102EB0000CD04FE042F20040C0F2F40002904FE02C
:102EC00041F20020C0F27A00029049E043F604008B
:102ED000C4F20200016801F03F0105910068400260
:102EE000002813D5FFE743F60400C4F2020000688F
:102EF000C0F3881041F20021C0F27A01A0FB010169
:102F0000059A0023FDF75CF9049012E043F60400F3
:102F1000C4F202000068C0F3881042F20041C0F21F
:102F2000F401A0FB0101059A0023FDF749F9049083
:102F3000FFE743F60400C4F20200006800F44031E9
:102F4000022000EBD130039004980399B0FBF1F01C
:102F5000029005E042F20040C0F2F4000290FFE768
:102F6000029806B080BD000080B586B00490049839
:102F700020B9FFE701208DF8170050E3049800788E
:102F8000C007002800F0A580FFE743F60800C4F260
:102F90000200006800F00C00042813D0FFE743F69D
:102FA0000800C4F20200006800F00C0008281ED1DE
:102FB000FFE743F60400C4F2020000684002002864
:102FC00015D5FFE743F60000C4F20200006800F4E4
:102FD00000310020B0EB514F08D0FFE70498406863
:102FE00020B9FFE701208DF8170018E370E0FFE734
:102FF00004984068B0F5803F09D1FFE743F600012F
:10300000C4F20201086840F48030086020E00498AF
:103010004068B0F5A02F0DD1FFE743F60001C4F2E0
:103020000201086840F480200860086840F480309D
:1030300008600CE043F60001C4F20201086820F4C5
:1030400080300860086820F480200860FFE7FFE710
:10305000FFE704984068E8B1FFE7FFF755FA0390EF
:10306000FFE743F60000C4F20200006800F40031FC
:103070000020B0EB514F0CD1FFE7FFF745FA039961
:10308000401A652804D3FFE703208DF81700C6E235
:10309000E7E71CE0FFF738FA0390FFE743F600008C
:1030A000C4F20200006800F400310020B0EB514F80
:1030B0000CD0FFE7FFF728FA0399401A652804D3DC
:1030C000FFE703208DF81700A9E2E7E7FFE7FFE736
:1030D000FFE7049800788007002840F19680FFE71A
:1030E00043F60800C4F20200006810F00C0F13D081
:1030F000FFE743F60800C4F20200006800F00C008D
:1031000008282CD1FFE743F60400C4F2020000684F
:103110004002002823D4FFE743F60000C4F2020077
:10312000006800F002010020B0EB510F09D0FFE76A
:103130000498C068012804D0FFE701208DF817002B
:103140006DE243F60001C4F20201086820F0F800C5
:10315000049A126940EAC2000860FFE754E004984C
:10316000C06870B3FFE70021C4F247210120086066
:10317000FFF7CAF90390FFE743F60000C4F202002C
:10318000006800F002010020B0EB510F0CD1FFE706
:10319000FFF7BAF90399401A032804D3FFE7032085
:1031A0008DF817003BE2E7E743F60001C4F20201A5
:1031B000086820F0F800049A126940EAC20008602A
:1031C00021E00021C4F2472100200860FFF79CF9AC
:1031D0000390FFE743F60000C4F20200006800F02D
:1031E00002010020B0EB510F0CD0FFE7FFF78CF984
:1031F0000399401A032804D3FFE703208DF8170032
:103200000DE2E7E7FFE7FFE7FFE704980078000734
:1032100000284BD5FFE70498406918B3FFE740F654
:103220008061C4F2472101200860FFF76DF9039027
:10323000FFE743F67400C4F20200006800F00201E8
:103240000020B0EB510F0CD1FFE7FFF75DF90399B8
:10325000401A032804D3FFE703208DF81700DEE1AE
:10326000E7E722E040F68061C4F2472100200860D1
:10327000FFF74AF90390FFE743F67400C4F2020037
:10328000006800F002010020B0EB510F0CD0FFE706
:10329000FFF73AF90399401A032804D3FFE7032004
:1032A0008DF81700BBE1E7E7FFE7FFE70498007838
:1032B0004007002840F1CE80FFE700208DF807008E
:1032C00043F64000C4F202000068C000002815D494
:1032D000FFE7FFE70020009043F64000C4F2020041
:1032E000016841F080510160006800F0805000905A
:1032F0000098FFE701208DF80700FFE747F2000084
:10330000C4F200000068C005002822D4FFE747F29D
:103310000001C4F20001086840F480700860FFF703
:10332000F3F80390FFE747F20000C4F200000068E2
:10333000C00500280CD4FFE7FFF7E6F80399401A10
:10334000032804D3FFE703208DF8170067E1EAE7BD
:10335000FFE7FFE704988068012809D1FFE743F6FB
:103360007001C4F20201086840F0010008601FE02B
:103370000498806805280DD1FFE743F67001C4F278
:103380000201086840F004000860086840F001008D
:1033900008600CE043F67001C4F20201086820F0F6
:1033A00001000860086820F004000860FFE7FFE7FC
:1033B000FFE704988068F8B1FFE7FFF7A5F80390EE
:1033C000FFE743F67000C4F20200006800F002015B
:1033D0000020B0EB510F0ED1FFE7FFF795F80399EE
:1033E000401A41F28931884204D3FFE703208DF867
:1033F000170014E1E5E71EE0FFF786F80390FFE70A
:1034000043F67000C4F20200006800F002010020E0
:10341000B0EB510F0ED0FFE7FFF776F80399401A93
:1034200041F28931884204D3FFE703208DF8170069
:10343000F5E0E5E7FFE79DF80700012809D1FFE780
:1034400043F64001C4F20201086820F08050086091
:10345000FFE7FFE704988069002800F0DC80FFE7C1
:1034600043F60800C4F20200006800F00C000828CF
:1034700000F08580FFE70498806902285CD1FFE7AF
:103480006021C4F2472100200860FFF73DF8039057
:10349000FFE743F60000C4F20200006800F000718C
:1034A0000020B0EB516F0CD0FFE7FFF72DF8039928
:1034B000401A032804D3FFE703208DF81700AEE07D
:1034C000E7E70499C869D1F820C04B6A8A6A40EAE4
:1034D0000C0040EA8310D2034FF6FF739A43A2F523
:1034E00080321043C96A40EA016043F60401C4F225
:1034F000020108606021C4F2472101200860FFF743
:1035000003F80390FFE743F60000C4F202000068EE
:1035100000F000710020B0EB516F0CD1FFE7FEF717
:10352000F3FF0399401A032804D3FFE703208DF823
:10353000170074E0E7E721E06021C4F24721002092
:103540000860FEF7E1FF0390FFE743F60000C4F2D6
:103550000200006800F000710020B0EB516F0CD049
:10356000FFE7FEF7D1FF0399401A032804D3FFE7D2
:1035700003208DF8170052E0E7E7FFE74AE00498E0
:103580008069012804D1FFE701208DF8170046E08B
:1035900043F60400C4F202000068029004988069B7
:1035A000012831D0FFE7029800F480000499C9692E
:1035B000884229D1FFE7029800F03F000499096A88
:1035C000884221D1FFE7029847F6C071084004996C
:1035D000496AB0EB811F17D1FFE7029800F4403031
:1035E0000499896AC9034FF6FF729143A1F58031AE
:1035F000884209D1FFE7029800F070600499C96A17
:10360000B0EB016F04D0FFE701208DF8170006E052
:10361000FFE7FFE7FFE700208DF81700FFE79DF8C1
:10362000170006B080BD000080B582B001900198FF
:1036300005F084F802B080BD81B0009001B0704701
:1036400081B0009001B0704784B0029001910020D9
:103650000090FFE7029890F83C00012804D1FFE7B2
:1036600002208DF80F0044E00299012081F83C000F
:10367000FFE7FFE7009820F0FF000199C9680843C1
:103680000090009820F440700199896808430090E8
:10369000009820F4806001994968084300900098E0
:1036A00020F400600199096808430090009820F414
:1036B00080500199096908430090009820F4005057
:1036C0000199496908430090009820F480400199CD
:1036D000C969084300900098029909684864FFE7A7
:1036E0000299002081F83C00FFE700208DF80F00D0
:1036F000FFE79DF80F0004B07047000085B003900D
:103700000291FFE7039890F83C00012804D1FFE7FD
:1037100002208DF813007EE00399012081F83C001F
:10372000FFE7FFE70399022081F83D000398006856
:10373000406801900398006880680090019820F02C
:103740007000019002980168019808430190019867
:10375000039909684860039800680021C4F20101D8
:1037600088423CD0FFE703980068B0F1804F36D024
:10377000FFE70398006840F20041C4F2000188426C
:103780002DD0FFE70398006840F60001C4F2000165
:10379000884224D0FFE70398006840F60041C4F255
:1037A000000188421BD0FFE70398006840F2004107
:1037B000C4F20101884212D0FFE70398006844F286
:1037C0000001C4F20101884209D0FFE703980068B4
:1037D00041F60001C4F2000188420ED1FFE70098D3
:1037E00020F0800000900298416800980843009003
:1037F0000098039909688860FFE70399012081F820
:103800003D00FFE70399002081F83C00FFE700201E
:103810008DF81300FFE79DF8130005B07047000016
:1038200080B582B00090009820B9FFE701208DF8A4
:1038300007003FE0009890F83D0040B9FFE700998D
:10384000002081F83C00009800F038F8FFE700996C
:10385000022081F83D00009951F8040B05F012F8A0
:103860000099012081F84600FFE70099012081F8C6
:103870003E00009981F83F00009981F840000099CE
:1038800081F84100FFE7FFE70099012081F842003D
:10389000009981F84300009981F84400009981F86B
:1038A0004500FFE70099012081F83D0000208DF8D8
:1038B0000700FFE79DF8070002B080BD80B588B023
:1038C000079007980068B0F1804F12D1FFE7FFE73B
:1038D0000020069043F64000C4F20200016841F067
:1038E00001010160006800F0010006900698FFE702
:1038F00078E00798006840F20041C4F20001884275
:1039000012D1FFE7FFE70020059043F64000C4F224
:103910000200016841F002010160006800F002004D
:1039200005900598FFE75CE00798006840F6000105
:10393000C4F20001884212D1FFE7FFE700200490A3
:1039400043F64000C4F20200016841F00401016046
:10395000006800F0040004900498FFE740E0079836
:10396000006840F60041C4F20001884212D1FFE72E
:10397000FFE70020039043F64000C4F20200016814
:1039800041F008010160006800F00800039003980E
:10399000FFE724E00798006844F20041C4F2010107
:1039A00088421BD1FFE7FFE70020029043F6440066
:1039B000C4F20200016841F400310160006800F4C3
:1039C000003002900298FFE7192001900F21002299
:1039D000FFF7D8F80198FFF7CBF8FFE7FFE7FFE71D
:1039E000FFE7FFE708B080BD83B00190019890F831
:1039F0003D00012804D0FFE701208DF80B006AE0AC
:103A00000199022081F83D0001980168C86840F0E2
:103A10000100C860019800680021C4F201018842D9
:103A20003CD0FFE701980068B0F1804F36D0FFE747
:103A30000198006840F20041C4F2000188422DD094
:103A4000FFE70198006840F60001C4F200018842D7
:103A500024D0FFE70198006840F60041C4F200015D
:103A600088421BD0FFE70198006840F20041C4F291
:103A70000101884212D0FFE70198006844F200017A
:103A8000C4F20101884209D0FFE70198006841F6BD
:103A90000001C4F20001884212D1FFE701980068DA
:103AA000806800F0070000900098062807D0FFE724
:103AB00001980168086840F001000860FFE706E02F
:103AC00001980168086840F001000860FFE70020E5
:103AD0008DF80B00FFE79DF80B0003B07047000066
:103AE00081B0009000980168C86820F00100C860AB
:103AF000FFE700980068006A41F21111084210D1F6
:103B0000FFE700980068006A40F24441084207D18C
:103B1000FFE700980168086820F001000860FFE7EF
:103B2000FFE7FFE70099012081F83D00002001B088
:103B30007047000080B586B00490039100208DF896
:103B40000B00FFE7049890F83C00012804D1FFE740
:103B500002208DF81700ABE00499012081F83C00A9
:103B6000FFE7FFE70499022081F83D000498006810
:103B700080680190019820F077000190019820F46E
:103B80007F40019001980499096888600398006853
:103B90000090002872D0FFE7009810286ED0FFE751
:103BA000009820286AD0FFE70098302866D0FFE709
:103BB0000098402855D0FFE70098502837D0FFE7FD
:103BC0000098602840D0FFE7009870280BD0FFE7EE
:103BD0000098B0F5805F05D0FFE70098B0F5005F72
:103BE00016D052E055E004980068039B5A68996823
:103BF000DB6804F03BFF049800688068019001983E
:103C000040F077000190019804990968886040E0CD
:103C100004980068039B5A689968DB6804F026FFE3
:103C200004980168886840F48040886031E0049816
:103C30000068039A5168D26805F004F90498006896
:103C4000502104F02DFF24E004980068039A516885
:103C5000D26805F01FF904980068602104F020FF85
:103C600017E004980068039A5168D26805F0EAF8F2
:103C700004980068402104F013FF0AE004980068EB
:103C80000399096804F00CFF03E001208DF80B0094
:103C9000FFE70499012081F83D00FFE70499002027
:103CA00081F83C00FFE79DF80B008DF81700FFE757
:103CB0009DF8170006B080BD81B0009001B070473C
:103CC00080B584B0039003980068C06802900398A0
:103CD0000068006901909DF804008007002824D541
:103CE000FFE79DF80800800700281DD5FFE703982F
:103CF00001686FF0020008610399012008770398BA
:103D000000688069800720B1FFE70398FFF7D4FFC0
:103D100006E0039800F0C0F9039800F0D9FAFFE735
:103D2000039900200877FFE7FFE79DF804004007AC
:103D3000002825D5FFE79DF80800400700281ED57C
:103D4000FFE7039801686FF00400086103990220FF
:103D5000087703980068806910F4407F04D0FFE77B
:103D60000398FFF7A9FF06E0039800F095F9039880
:103D700000F0AEFAFFE7039900200877FFE7FFE7BE
:103D80009DF804000007002824D5FFE79DF80800EF
:103D9000000700281DD5FFE7039801686FF00800B1
:103DA000086103990420087703980068C0698007B8
:103DB00020B1FFE70398FFF77FFF06E0039800F0CC
:103DC0006BF9039800F084FAFFE703990020087765
:103DD000FFE7FFE79DF80400C006002825D5FFE7B0
:103DE0009DF80800C00600281ED5FFE7039801686B
:103DF0006FF01000086103990820087703980068A5
:103E0000C06910F4407F04D0FFE70398FFF754FF28
:103E100006E0039800F040F9039800F059FAFFE734
:103E2000039900200877FFE7FFE79DF80400C0072B
:103E300078B1FFE79DF80800C00748B1FFE7039895
:103E400001686FF001000861039800F02DFBFFE7A7
:103E5000FFE79DF804000006002810D5FFE79DF855
:103E600008000006002809D5FFE7039801686FF0F5
:103E7000800008610398FFF7DFFBFFE7FFE79DF88D
:103E800004004006002810D5FFE79DF80800400612
:103E9000002809D5FFE7039801686FF0400008612A
:103EA000039800F00BFFFFE7FFE79DF80400800692
:103EB000002810D5FFE79DF808008006002809D5E6
:103EC000FFE7039801686FF0200008610398FFF78F
:103ED000B7FBFFE7FFE704B080BD000080B58CB002
:103EE0000B9000200A9009900890079006900B987C
:103EF00000680021C4F20101884223D1FFE7FFE7F7
:103F00000020059043F63000C4F20200016841F041
:103F100010010160006800F0100005900598FFE7AF
:103F20004FF4D4400690022007900020089009909A
:103F300001200A9041F20000C4F2020006A9FEF737
:103F4000EFF8A7E00B980068B0F1804F21D1FFE7B0
:103F5000FFE70020049043F63000C4F2020001683D
:103F600041F001010160006800F001000490049834
:103F7000FFE720200690022007900020089009907B
:103F800001200A900020C4F2020006A9FEF7C8F83A
:103F90007FE00B98006840F20041C4F200018842C3
:103FA00020D1FFE7FFE70020039043F63000C4F282
:103FB0000200016841F001010160006800F00100A9
:103FC00003900398FFE7402006900220079000210D
:103FD000089109910A900020C4F2020006A9FEF798
:103FE0009FF855E00B98006840F60001C4F200010C
:103FF000884222D1FFE7FFE70020029043F630001D
:10400000C4F20200016841F008010160006800F09C
:10401000080002900298FFE74FF4805006900220BB
:1040200007900021089109910A9040F60040C4F2DF
:10403000020006A9FEF774F829E00B98006840F624
:104040000041C4F20001884220D1FFE7FFE70020D1
:10405000019043F63000C4F20200016841F0010112
:104060000160006800F0010001900198FFE7012065
:104070000690022007900021089109910A900020E3
:10408000C4F2020006A9FEF74BF8FFE7FFE7FFE7DF
:10409000FFE7FFE70CB080BD81B0009001B0704732
:1040A00080B586B004900391029200208DF807003D
:1040B000FFE7049890F83C00012804D1FFE70220B4
:1040C0008DF8170089E00499012081F83C00FFE792
:1040D000FFE7029800900C2800F270800099DFE85A
:1040E00001F0076D6D6D206D6D6D3A6D6D6D530056
:1040F00004980068039904F0E9FC04980168886951
:1041000040F00800886104980168886920F0040084
:10411000886103980269049801688869104388617E
:1041200050E004980068039904F046FD0498016883
:10413000886940F40060886104980168886920F407
:10414000806088610398026904980168886940EA80
:104150000220886136E004980068039904F0A6FD07
:1041600004980168C86940F00800C86104980168B3
:10417000C86920F00400C8610398026904980168C6
:10418000C8691043C8611DE004980068039904F0F1
:1041900007FE04980168C86940F40060C86104988B
:1041A0000168C86920F48060C861039802690498B6
:1041B0000168C86940EA0220C86103E001208DF867
:1041C0000700FFE7FFE70499002081F83C00FFE7C4
:1041D0009DF807008DF81700FFE79DF8170006B05F
:1041E00080BD000080B582B00090009820B9FFE744
:1041F00001208DF807003FE0009890F83D0040B99D
:10420000FFE70099002081F83C00009800F038F8A2
:10421000FFE70099022081F83D00009951F8040B56
:1042200004F030FB0099012081F84600FFE7009977
:10423000012081F83E00009981F83F00009981F843
:104240004000009981F84100FFE7FFE70099012055
:1042500081F84200009981F84300009981F84400F8
:10426000009981F84500FFE70099012081F83D00A1
:1042700000208DF80700FFE79DF8070002B080BD21
:1042800080B584B00390039800680021C4F2010156
:1042900088421BD1FFE7FFE70020029043F644006D
:1042A000C4F20200016841F001010160006800F001
:1042B000010002900298FFE7192001900F210022CF
:1042C000FEF760FC0198FEF753FCFFE704B080BDE9
:1042D00081B0009001B0704780B58CB00A90099110
:1042E000099828B9FFE70A9890F83E0007901CE06B
:1042F0000998042805D1FFE70A9890F83F00069036
:1043000010E00998082805D1FFE70A9890F84000C6
:10431000059004E00A9890F841000590FFE70598A1
:104320000690FFE706980790FFE70798012804D05A
:10433000FFE701208DF82F00AFE0099828B9FFE7CB
:104340000A99022081F83E001EE00998042806D14F
:10435000FFE70A99022081F83F00049012E00998D3
:10436000082806D1FFE70A99022081F8400003904F
:1043700005E00A99022081F841000390FFE70398C5
:104380000490FFE70498FFE70A9800680999012262
:10439000019204F04FFB01980A9909680022C4F2C7
:1043A0000102914202900CD0FFE70A9800684FF694
:1043B0000041CBF6FE710844B0FA80F0400902904B
:1043C000FFE70298C00738B1FFE70A980168486C18
:1043D00040F400404864FFE70A9800680021C4F2F6
:1043E000010188423CD0FFE70A980068B0F1804F95
:1043F00036D0FFE70A98006840F20041C4F200019D
:1044000088422DD0FFE70A98006840F60001C4F208
:104410000001884224D0FFE70A98006840F6004176
:10442000C4F2000188421BD0FFE70A98006840F2FE
:104430000041C4F20101884212D0FFE70A980068E7
:1044400044F20001C4F20101884209D0FFE70A9852
:10445000006841F60001C4F20001884212D1FFE772
:104460000A980068806800F00700089008980628FD
:1044700007D0FFE70A980168086840F0010008606B
:10448000FFE706E00A980168086840F0010008604C
:10449000FFE700208DF82F00FFE79DF82F000CB0FC
:1044A00080BD000000000000B0B59CB01B901B98C0
:1044B000006844F20041C4F20101884240F0EF83F9
:1044C000FFE7002009901A90199018901790169005
:1044D0001590149013901290119010900F900E90D0
:1044E0000D900C900B908DF82B008DF82A008DF814
:1044F00029008DF82800FDF7DBF940F27010C2F2B8
:104500000000006840F25011C2F2000109688842C0
:1045100031DAFFE740F27011C2F2000191ED000ABA
:10452000B8EEC00A40F25800C2F2000090ED001A46
:1045300020EE010A8DED120A91ED000AB8EEC00AD4
:1045400090ED001A20EE010A8DED110A91ED000A9E
:10455000B8EEC00A90ED001A20EE010A8DED100AA7
:1045600091ED000AB8EEC00A90ED001A20EE010AA3
:104570008DED0F0AA6E040F27010C2F20000006854
:1045800040F27C11C2F20001096840F25012C2F2FE
:1045900000021268891A884272DDFFE740F270104B
:1045A000C2F20000006840F27C11C2F2000109680A
:1045B000884265DAFFE740F2141CC2F2000C9CED61
:1045C000000A40F27011C2F20001086840F27C1348
:1045D000C2F200031C6840F25012C2F20002D2F88C
:1045E00000E0AEEB040E704401EE100AB8EEC11A02
:1045F00040F25800C2F2000090ED002A21EE021AAB
:1046000030EE410A8DED120A9CED000AD1F800E06F
:104610001D681468641BA64401EE10EAB8EEC11AC6
:1046200090ED002A21EE021A30EE410A8DED110ABA
:104630009CED000AD1F800E01D681468641BA644D4
:1046400001EE10EAB8EEC11A90ED002A21EE021A2E
:1046500030EE410A8DED100A9CED000A09681B68D6
:104660001268D21A114401EE101AB8EEC11A90ED78
:10467000002A21EE021A30EE410A8DED0F0A20E0E9
:1046800040F27010C2F20000006840F27C11C2F2E9
:1046900000010968884206DDFFE7002012901190B2
:1046A00010900F900CE040F21410C2F2000001686C
:1046B0001291016811910168109100680F90FFE755
:1046C000FFE7FFE740F27010C2F20000006840F21E
:1046D0005411C2F200010968884231DAFFE740F262
:1046E0007011C2F2000191ED000AB8EEC00A40F26A
:1046F0005800C2F2000090ED001A20EE010A8DED84
:104700000E0A91ED000AB8EEC00A90ED001A20EEF4
:10471000010A8DED0D0A91ED000AB8EEC00A90ED88
:10472000001A20EE010A8DED0C0A91ED000AB8EE98
:10473000C00A90ED001A20EE010A8DED0B0AA6E0EA
:1047400040F27010C2F20000006840F28011C2F224
:104750000001096840F25412C2F200021268891A7C
:10476000884272DDFFE740F27010C2F2000000687C
:1047700040F28011C2F200010968884265DAFFE761
:1047800040F2181CC2F2000C9CED000A40F27011BD
:10479000C2F20001086840F28013C2F200031C68F4
:1047A00040F25412C2F20002D2F800E0AEEB040E66
:1047B000704401EE100AB8EEC11A40F25800C2F27D
:1047C000000090ED002A21EE021A30EE410A8DED34
:1047D0000E0A9CED000AD1F800E01D681468641B05
:1047E000A64401EE10EAB8EEC11A90ED002A21EEBF
:1047F000021A30EE410A8DED0D0A9CED000AD1F847
:1048000000E01D681468641BA64401EE10EAB8EECF
:10481000C11A90ED002A21EE021A30EE410A8DED08
:104820000C0A9CED000A09681B681268D21A114430
:1048300001EE101AB8EEC11A90ED002A21EE021A0C
:1048400030EE410A8DED0B0A20E040F27010C2F20A
:104850000000006840F28011C2F20001096888423D
:1048600006DDFFE700200E900D900C900B900CE001
:1048700040F21810C2F2000001680E9101680D911B
:1048800001680C9100680B90FFE7FFE7FFE740F23B
:104890002011C2F2000191F90000404200EE100A1E
:1048A000B8EEC00A9DED122A40F22110C2F20000BB
:1048B00090F9002001EE102AB8EEC11A9DED0E3AD3
:1048C00021EE031A20EE020A30EE010A8DED1A0ADB
:1048D00091F9002000EE102AB8EEC00A9DED112AD1
:1048E00090F9002001EE102AB8EEC11A9DED0D3AA4
:1048F00021EE031A20EE020A30EE010A8DED190AAC
:1049000091F9002000EE102AB8EEC00A9DED102AA1
:1049100090F9002001EE102AB8EEC11A9DED0C3A74
:1049200021EE031A20EE020A30EE010A8DED180A7C
:1049300091F90010494200EE101AB8EEC00A9DED40
:104940000F2A90F9000001EE100AB8EEC11A9DED91
:104950000B3A21EE031A20EE020A30EE010A8DED29
:10496000170A40F24610C2F200000078012810D069
:10497000FFE740F2EC00C2F20000007801281ED0F0
:10498000FFE740F28410C2F200000078012816D13F
:10499000FFE740F21C11C2F200010020087040F253
:1049A0001D11C2F20001087040F21E11C2F2000196
:1049B000087040F21F11C2F200010870FFE79DED80
:1049C0001A1A40F2E401C2F2000191ED000A40F22D
:1049D000E800C2F2000090ED002A30EE422A9FED7E
:1049E000B64A22EE042AB0EE083A20EE030A30EE70
:1049F000020A40F21C12C2F2000292F9002002EEFA
:104A0000102AB8EEC22A20EE020A30EE010A8DED1D
:104A1000160A9DED191A91ED000A90ED002A30EE6C
:104A2000422A22EE042A20EE030A30EE020A40F265
:104A30001D12C2F2000292F9002002EE102AB8EE16
:104A4000C22A20EE020A30EE010A8DED150A9DED14
:104A5000181A91ED000A90ED002A30EE422A22EE5B
:104A6000042A20EE030A30EE020A40F21E12C2F2BD
:104A7000000292F9002002EE102AB8EEC22A20EEBF
:104A8000020A30EE010A8DED140A9DED171A91ED20
:104A9000000A90ED002A30EE422A22EE042A20EE8F
:104AA000030A30EE020A40F21F10C2F2000090F931
:104AB000000002EE100AB8EEC22A20EE020A30EE22
:104AC000010A8DED130A9DED160A00200890B5EE3F
:104AD000400AF1EE10FA0146B8BF01218DF82B1003
:104AE0009DED150AB5EE400AF1EE10FA0146B8BF89
:104AF00001218DF82A109DED140AB5EE400AF1EE61
:104B000010FA0146B8BF01218DF829109DED130A56
:104B1000B5EE400AF1EE10FAB8BF01208DF828007A
:104B20009DF82B0001901698FBF73EFD41EC100B11
:104B300051EC100B9FED5C0B52EC103BD20F04922A
:104B400062F3DF7141EC100B51EC100B9FED580B31
:104B500053EC102B06930592FBF71CFC41EC100B59
:104B600051EC100BFBF733FD0199089A00EE100A87
:104B7000012001F059FF9DF82A0002901598FBF7DB
:104B800013FDDDF810C0059A069B41EC100B51ECAB
:104B9000100B6CF3DF7141EC100B51EC100BFBF7B9
:104BA000F9FB41EC100B51EC100BFBF710FD0299D7
:104BB000089A00EE100A022001F036FF9DF8290045
:104BC00003901498FBF7F0FCDDF810C0059A069BE3
:104BD00041EC100B51EC100B6CF3DF7141EC100B3E
:104BE00051EC100BFBF7D6FB41EC100B51EC100B0A
:104BF000FBF7EDFC0399089A00EE100A032001F080
:104C000013FF9DF8280007901398FBF7CDFCDDF803
:104C100010C0059A069B41EC100B51EC100B6CF385
:104C2000DF7141EC100B51EC100BFBF7B3FB41ECC7
:104C3000100B51EC100BFBF7CAFC0799089A00EE19
:104C4000100A042001F0F0FE01F036FA40F2701074
:104C5000C2F20000006840F21011C2F200010968BF
:104C6000884214DBFFE701F03FFA40F27011C2F214
:104C700000010020086040F20E11C2F2000108702D
:104C800040F2A830C2F20000FEF72AFFFFE740F230
:104C90007011C2F20001086801300860FFE71CB023
:104CA000B0BD00BF00BF00BF00000000000000005A
:104CB0000000000000002440CDCC4C3F81B00090AB
:104CC00001B0704782B00190ADF8021002B0704799
:104CD00081B0009001B0704780B592B011901198EA
:104CE00000680068109011980068C0680F901198D3
:104CF000006840690E9000200D900C90109800F014
:104D00000F000D900D9888B9FFE79DF840008006D0
:104D100000280AD5FFE79DF83C008006002804D54E
:104D2000FFE7119804F08EFEEAE1FFE70D980028F6
:104D300000F0C280FFE79DF83800C00738B9FFE7F0
:104D4000BDF83C0010F4907F00F0B680FFE79DF8BE
:104D50004000C00758B1FFE79DF83D00C00730B1E3
:104D6000FFE71199486C40F001004864FFE79DF8A7
:104D70004000400700280BD5FFE79DF83800C0072A
:104D800030B1FFE71199486C40F002004864FFE73A
:104D90009DF84000800700280BD5FFE79DF83800FC
:104DA000C00730B1FFE71199486C40F00400486437
:104DB000FFE79DF840000007002811D5FFE79DF8A8
:104DC0003C008006002805D4FFE79DF83800C007A6
:104DD00030B1FFE71199486C40F008004864FFE7E4
:104DE0001198406C002866D0FFE79DF840008006CF
:104DF00000280AD5FFE79DF83C008006002804D56E
:104E0000FFE7119804F01EFEFFE711980068406963
:104E1000C0F380100C901198406C0007002804D457
:104E2000FFE70C9800283ED0FFE7119804F090FDB2
:104E3000119800684069400600282FD5FFE7FFE77A
:104E4000FFE71198006850E8050F20F040000B9034
:104E5000FFE70B991198026842E805100028F0D18D
:104E6000FFE7FFE71198C06B98B1FFE71198C16B9E
:104E700049F28D70C0F6000008651198C06BFCF710
:104E800061FE28B1FFE71198C06B016D8847FFE70D
:104E900003E01198FFF71CFFFFE703E01198FFF70D
:104EA00017FFFFE706E01198FFF712FF11990020A6
:104EB0004864FFE7FFE723E11198006B012840F009
:104EC000FF80FFE79DF84000C006002840F1F88011
:104ED000FFE79DF83C00C006002840F1F180FFE7A5
:104EE000FFE700200A901198006800680A90119866
:104EF000006840680A900A98FFE7119800684069C6
:104F00004006002840F18280FFE71198C06B0068DE
:104F10004068ADF82600BDF82600002875D0FFE7F0
:104F2000BDF826001199898D88426EDAFFE7BDF839
:104F300026001199C8851198C06BC069B0F5807FB3
:104F400058D0FFE7FFE7FFE71198006850E8030F2C
:104F500020F480700890FFE708991198026842E8F1
:104F600003100028F0D1FFE7FFE7FFE7FFE7119804
:104F7000006850E8050F20F001000790FFE707994F
:104F80001198026842E805100028F0D1FFE7FFE71A
:104F9000FFE7FFE71198006850E8050F20F0400098
:104FA0000690FFE706991198026842E8051000286C
:104FB000F0D1FFE7FFE71199202081F84200119915
:104FC00000200863FFE7FFE71198006850E8030F2F
:104FD00020F010000590FFE705991198026842E85B
:104FE00003100028F0D1FFE7FFE71198C06BFCF732
:104FF00033FDFFE71199022048631198818DC28D1E
:10500000891A89B2FFF75EFEFFE779E01199888D72
:10501000C98D401AADF812001198C08D00284ED0ED
:10502000FFE7BDF81200002849D0FFE7FFE7FFE7E0
:105030001198006850E8030F20F490700390FFE788
:1050400003991198026842E803100028F0D1FFE7A5
:10505000FFE7FFE7FFE71198006850E8050F20F031
:1050600001000290FFE702991198026842E80510DA
:105070000028F0D1FFE7FFE71199202081F84200D6
:10508000119900200863FFE7FFE71198006850E8D6
:10509000030F20F010000190FFE7019911980268BA
:1050A00042E803100028F0D1FFE7FFE71199022042
:1050B00048631198BDF81210FFF704FEFFE71FE0E8
:1050C0009DF84000000600280AD5FFE79DF83C0047
:1050D0000006002804D5FFE7119804F08DFE0FE0CC
:1050E0009DF84000400600280AD5FFE79DF83C00E7
:1050F0004006002804D5FFE7119804F073FCFFE791
:1051000012B080BD80B582B00090009820B9FFE752
:1051100001208DF8070040E00098806908B1FFE7A2
:1051200000E0FFE7009890F8410040B9FFE70099E0
:10513000002081F84000009800F034F8FFE7009963
:10514000242081F8410000980168C86820F40050CC
:10515000C860009804F02CFD00980168086920F4EC
:105160009040086100980168486920F02A00486171
:1051700000980168C86840F40050C8600099002099
:105180004864009A202182F84110009A82F8421067
:10519000009948638DF80700FFE79DF8070002B00B
:1051A00080BD000080B5A0B01F9000201E901D9013
:1051B0001C901B901A901F98006844F60041C4F29E
:1051C0000001884240F09380FFE7FFE7002019903C
:1051D00043F64000C4F20200016841F4002101607E
:1051E000006800F4002019901998FFE7FFE70020FD
:1051F000189043F63000C4F20200016841F001014A
:105200000160006800F0010018901898FFE7FFE7C0
:105210000020179043F63000C4F20200016841F00C
:1052200004010160006800F0040017901798FFE780
:1052300002200B901A901B90002010901C900320CD
:105240000C901D9008200D901E900020C4F20200CA
:105250001AA90E91FCF764FFDDF82CC00C9A0D988A
:105260000E99109B4FF4806ECDF83CE0CDF868E0CD
:10527000CDF86CC01C931D921E9040F60000C4F245
:105280000200FCF74DFF0F9A109940F28C10C2F209
:105290000000119046F24003C4F2020303604FF095
:1052A000006343608160C1600261416181614FF4CC
:1052B0008072C26101624162FCF7F6FD18B1FFE73E
:1052C000FBF7C4FEFFE7FFE71F9840F28C11C2F224
:1052D0000001C1631F988863FFE734200A90012111
:1052E0000022FDF74FFC0A98FDF742FC31E11F98C0
:1052F000006845F20001C4F20001884240F0958048
:10530000FFE7FFE70020169043F64000C4F20200DA
:10531000016841F480110160006800F4801016906B
:105320001698FFE7FFE70020159043F63000C4F21F
:105330000200016841F004010160006800F004000F
:1053400015901598FFE7FFE70020149043F6300012
:10535000C4F20200016841F008010160006800F039
:10536000080014901498FFE74FF480501A90022020
:1053700004901B90002008901C90032005901D9025
:10538000082006901E9040F60000C4F202001AA900
:105390000791FCF7C5FEDDF810C0059A069807993D
:1053A000089B4FF0040ECDF868E0CDF86CC01C935C
:1053B0001D921E9040F60040C4F20200FCF7B0FEC1
:1053C000089940F2EC10C2F20000099046F2100277
:1053D000C4F2020202604FF0006242608160C1606C
:1053E0004FF480620261416181614FF48072C26159
:1053F00001624162FCF758FD18B1FFE7FBF726FE9A
:10540000FFE7FFE71F9840F2EC11C2F20001C16311
:105410001F988863FFE73520039000221146FDF7AF
:10542000B1FB0398FDF7A4FB92E01F98006841F2DE
:105430000001C4F20101884240F08980FFE7FFE7E4
:105440000020139043F64400C4F20200016841F0CA
:1054500010010160006800F0100013901398FFE73E
:10546000FFE70020129043F63000C4F2020001680A
:1054700041F001010160006800F0010012901298F3
:10548000FFE74FF4C0601A9002201B9000200190AB
:105490001C9003201D9007201E900020C4F20200E3
:1054A0001AA9FCF73DFE019940F24C20C2F200001F
:1054B000029046F24042C4F2020202604FF00062E3
:1054C00042608160C1604FF480620261416181612C
:1054D000C16101624162FCF7E7FC18B1FFE7FBF72D
:1054E000B5FDFFE7FFE71F9840F24C21C2F2000133
:1054F000C1631F988863FFE740F2AC20C2F200004E
:10550000009046F2B841C4F2020101604FF0006120
:105510004160402181600021C1604FF480620261DE
:1055200041618161C16101624162FCF7BDFC18B15A
:10553000FFE7FBF78BFDFFE7FFE71F9840F2AC2189
:10554000C2F2000181631F988863FFE7FFE7FFE76E
:10555000FFE720B080BD000080B58AB008900791B9
:10556000ADF81A20059300200290089890F84200A8
:10557000202840F08880FFE7079820B1FFE7BDF8BA
:105580001A0020B9FFE701208DF827007FE0089975
:1055900000204864089A222182F842100899086382
:1055A000FCF7B2FF0290BDF81A0008998885BDF893
:1055B0001A000899C88508988068B0F5805F09D1FD
:1055C000FFE70898006928B9FFE7002004900798D2
:1055D000039004E00798049000200390FFE7FFE7A2
:1055E0000898C08D002846D0FFE70898029B0599CF
:1055F0006A4611602021002204F048FC40B1FFE718
:105600000899202081F8420003208DF827003EE011
:10561000049858B9FFE70898006840686FF35F2066
:10562000039908800398023003901FE0089880686F
:10563000B0F5805F08D0FFE70898806850B9FFE7B1
:105640000898006930B9FFE7089800684068049935
:10565000087007E008980068406800F07F0004992F
:105660000870FFE7049801300490FFE70899C88D9F
:105670000138C885B4E70899202081F8420000204D
:105680008DF8270003E002208DF82700FFE79DF842
:1056900027000AB080BD000080B584B0029001915F
:1056A000ADF80220029890F84200202817D1FFE7B9
:1056B000019820B1FFE7BDF8020020B9FFE7012003
:1056C0008DF80F000FE002990020086302980199FD
:1056D000BDF8022004F00AFB8DF80F0003E0022061
:1056E0008DF80F00FFE79DF80F0004B080BD0000AB
:1056F00082B001900198006845F20001C4F20001F7
:10570000884240F08980FFE740F2C500C2F2000005
:10571000017840F2F800C2F20000405C53284ED0FD
:10572000FFE700208DF80300FFE79DF80300152830
:1057300044DCFFE79DF8031040F2F800C2F20000DD
:10574000405C532833D1FFE79DF8030040F2C501C8
:10575000C2F20001087000208DF80200FFE79DF8FA
:1057600002000A2822DCFFE740F2C500C2F2000076
:1057700000789DF8022083184EF6BB00C0F6A230D8
:10578000A3FB0010162100FB113140F2F800C2F219
:105790000000405C40F2ED01C2F200018854FFE7D6
:1057A0009DF8020001308DF80200D8E706E0FFE71F
:1057B0009DF8030001308DF80300B6E72BE00020D0
:1057C0008DF80100FFE79DF801000A2822DCFFE7C1
:1057D00040F2C500C2F2000000789DF80120831855
:1057E0004EF6BB00C0F6A230A3FB0010162100FB52
:1057F000113140F2F800C2F20000405C40F2ED01CD
:10580000C2F200018854FFE79DF8010001308DF8D5
:105810000100D8E7FFE73AE00198006844F600414C
:10582000C4F20001884231D1FFE740F2C400C2F265
:105830000000017840F2C600C2F20000405CFF2880
:1058400023D0FFE700208DF80000FFE79DF800005F
:10585000082819DCFFE79DF8001040F2C600C2F2EC
:105860000000405CFF2808D1FFE79DF8000040F2EF
:10587000C401C2F20001087006E0FFE79DF80000D5
:1058800001308DF80000E1E7FFE7FFE7FFE702B036
:105890007047000081B0009001B0704780B58AB0B9
:1058A00008900791ADF81A200593002002900898FF
:1058B00090F84100202840F08180FFE7079820B150
:1058C000FFE7BDF81A0020B9FFE701208DF8270097
:1058D00078E00899002048640899212081F8410067
:1058E000FCF712FE0290BDF81A0008998884BDF8F2
:1058F0001A000899C88408988068B0F5805F09D1BB
:10590000FFE70898006928B9FFE70020049007988E
:10591000039004E00798049000200390FFE7FFE75E
:105920000898C08C78B3FFE70898029B05996A46EF
:1059300011608021002204F0A9FA40B1FFE7089924
:10594000202081F8410003208DF827003AE00498D8
:1059500058B9FFE7039800886FF35F20089909683A
:10596000486003980230039008E004980078089992
:1059700009684860049801300490FFE70899C88CD2
:105980000138C884CCE70898029B05996A461160E3
:105990004021002204F07AFA40B1FFE70899202064
:1059A00081F8410003208DF827000BE008992020A2
:1059B00081F8410000208DF8270003E002208DF8D7
:1059C0002700FFE79DF827000AB080BD81B0009056
:1059D00001B07047FFE7FEE782B0009000980068D2
:1059E000406900F480610120B0EB912F1ED1FFE7E8
:1059F000009801686FF48060486100990020086396
:105A0000009A202182F83D10009981F83E0000990B
:105A1000086C40F004000864FFE70099002081F85A
:105A20003C00FFE701208DF8070003E000208DF81F
:105A30000700FFE79DF8070002B0704780B586B009
:105A4000DDF824C0DDF820C00490ADF80E10ADF8EC
:105A50000C20ADF80A3004980168086840F48070A2
:105A600008600498089B09996A4611604FF001117B
:105A7000002200F0D7F880B1FFE7049800680068C2
:105A8000C005002805D5FFE704994FF400700864AD
:105A9000FFE703208DF8170069E0BDF80E0000F065
:105AA000FE000499096808610498089A099B02217C
:105AB000C0F2010100F03AF920B1FFE701208DF8B2
:105AC000170054E0FFE70020019004980068406947
:105AD000019004980068806901900198FFE704989C
