:020000040800F2
:10000000D80B002055020008AD390008A5300008C3
:10001000513900086D040008114900080000000073
:10002000000000000000000000000000C5410008C2
:10003000A104000800000000B1390008ED410008EB
:100040006F0200086F0200086F0200086F020008CC
:100050006F0200086F0200086F0200086F020008BC
:100060006F0200086F0200086F02000871040008A8
:100070006F0200087D0400086F0200086F0200088C
:100080006F0200086F0200086F0200086F0200088C
:100090006F0200086F0200086F0200086F0200087C
:1000A0006F020008AD4200086F0200086F020008EE
:1000B0006F0200086F0200086F0200086F0200085C
:1000C0006F0200086F0200086F0200086F0200084C
:1000D0006F0200086F0200086F0200086F0200083C
:1000E0006F0200086F0200086F0200086F0200082C
:1000F0006F0200086F0200086F0200086F0200081C
:100100006F0200086F0200086F0200086F0200080B
:10011000114400081D4400086F0200086F02000827
:100120006F0200086F020008890400086F020008CF
:100130006F0200086F0200086F0200086F020008DB
:100140006F0200086F0200086F0200086F020008CB
:100150006F0200086F020008950400086F02000893
:100160006F0200086F0200086F0200086F020008AB
:100170006F0200086F0200086F0200080000000014
:100180006F0200086F02000800F002F800F052F859
:1001900014A696E8000CB244B344DA4501D100F04D
:1001A00049F8BAE80F000FA696E83000A5EB040561
:1001B00004EB0607AAEB0704A7F101074FEA1515A0
:1001C0004FEA3414A4F10104AC4201D300F032F838
:1001D00013F0010F18BFFB1A43F0010300F001F800
:1001E000DBE71847A05C0000C05C0000103A24BFA9
:1001F00078C878C1FAD8520724BF30C830C144BF8C
:1002000004680C6070470000704700000023002461
:1002100000250026103A28BF78C1FBD8520728BF16
:1002200030C148BF0B6070471FB505F068FD1FBDAA
:1002300010B510BD00F0E4F81146FFF7F5FF04F02B
:1002400069FB00F002F903B4FFF7F2FF03BC00F012
:1002500005F900000948804709480047FEE7FEE726
:10026000FEE7FEE7FEE7FEE7FEE7FEE7FEE7FEE766
:1002700004480549054A064B7047000099420008AA
:1002800089010008D8050020D80B0020D8070020DD
:10029000D807002053EA020C00F069802DE9F04BEA
:1002A0004FF00006002B1FBFB3FA83F503FA05F4E5
:1002B00024FA05F65E4012BF1643B2FA82F502FA3E
:1002C00005F4C5F120051EBF22FA05FC44EA0C0422
:1002D000203556EA044C4FEA144418BF641C4FF012
:1002E00000084FF00009904271EB030C39D300294C
:1002F00019BFB1FA81F701FA07F6B0FA80F700FAF0
:1003000007F6C7F120071EBF20FA07FC46EA0C06D5
:100310002037B6FBF4FCA7EB0507103F07F01F0BD7
:10032000CBF120062CFA06F60CFA0BFB44BFB346C1
:100330000026202FA4BF5E464FF0000B5BEA060CA0
:1003400008BF4FF0010B19EB0B0948EB0608ABFB9C
:10035000027C06FB02CC0BFB03CCC01B71EB0C0137
:10036000C1E70B46024641464846BDE8F08B13B54F
:10037000084318BF4FF0FF300146AFF30080BDE8DF
:100380001C4070474FF0000200B513469446964655
:10039000203922BFA0E80C50A0E80C50B1F1200198
:1003A000BFF4F7AF090728BFA0E80C5048BF0CC046
:1003B0005DF804EB890028BF40F8042B08BF7047A4
:1003C00048BF20F8022B11F0804F18BF00F8012B16
:1003D000704770477047704710B500F009F8006823
:1003E00010BD10B5044600F003F8046010BD000015
:1003F00000487047700000200048704770000020DF
:100400007546FFF7F9FFAE4605006946534620F0F2
:100410000700854618B020B5FFF72AFFBDE8204049
:100420004FF000064FF000074FF000084FF0000BB0
:10043000AC46ACE8C009ACE8C009ACE8C009ACE81F
:10044000C00921F007018D46704710B50446AFF38F
:1004500000802046BDE81040FFF7F5BE0149182096
:10046000ABBEFEE72600020070470000FEE700007A
:1004700040F22020C2F2000000F072B840F2C0103A
:10048000C2F2000000F06CB840F28020C2F200001E
:1004900000F066B840F2E020C2F2000000F060B860
:1004A0007047000072B600BFFEE7000070B5866DB1
:1004B000044600F025FB94F83510022928D10546A2
:1004C0002068216C026822F016020260426922F064
:1004D0008002426109B9A16C19B1016821F00801DB
:1004E0000160016821F00101016000BF206800681F
:1004F000C00715D000F004FB401B0628F6D32020CF
:100500006065032084F83500002184F8341070BD44
:10051000802060650120002184F8341070BD00BF88
:10052000E06D3F2101FA00F0B060012084F8350051
:100530000020002184F8341070BD000090F83510C0
:10054000022909D1052180F835100068016821F0E1
:100550000101016000207047802141650120704742
:10056000F0B581B00021009140F26001C2F20001BB
:100570000B68D0E9166148F2B51537680822C1F654
:100580004E358A403A42A3FB05350CD003681C68FF
:10059000640708D51C6824F004041C60B260426D36
:1005A00042F00102426501228A403A4208D00368C3
:1005B0005B691B0604D5B260426D42F002024265DF
:1005C00004228A403A4208D003681B689B0704D57E
:1005D000B260426D42F00402426510228A403A4203
:1005E00019D001680B681B0715D5B2600B680A6843
:1005F0005B0309D4D20509D40A6822F008020A6014
:10060000016C29B907E000BF110341D4016C11B19D
:10061000044688472046C26D202101FA02F33B427E
:1006200043D001680F68FF063FD5B36090F835707E
:100630000B68052F1CD123F016030B604B6923F0C8
:1006400080034B61036C0BB9836C1BB10B6823F007
:1006500008030B603F219140B160012180F8351003
:10066000016D0022002980F8342054D158E000BFE9
:100670000A685B0310D4D20512D40A6822F0100273
:100680000A60012180F83510002180F8341007E05D
:10069000816C0029BCD1BEE7110301D4416C00E09C
:1006A000C16B11B1044688472046416DC1B3416D0D
:1006B000C9072ED0052180F835100168AA0A0B68F9
:1006C00023F001030B60009B0133934200931AD87F
:1006D0000B68DB0717D0009B01339342009312D8BD
:1006E0000B68DB070FD0009B0133934200930AD8BD
:1006F0000B68DB0707D0009B01339342009302D8BD
:100700000B68DB07DFD1012180F83510002180F86C
:100710003410C16C21B101B0BDE8F040084700BF02
:1007200001B0F0BD2DE9F041044600F0E9F9ECB16B
:100730000546022084F835000020216884F8340042
:10074000086820F00100086021680868C00711D01F
:1007500000F0D6F9401B0528F6D9032520230320F5
:10076000636584F83550BDE8F08100BF0120BDE825
:10077000F08100BF086848F23F02CFF21002D4E9CE
:10078000013500EA020C04F10C0898E8C10143EAC3
:100790000C032B431843D4E9072E3043384310434E
:1007A000626A40EA0E00042A40EA08031CD1206B6A
:1007B000D4E90A2E40EA0E00184308604869BEF1E9
:1007C000000F20F0030040EA020040F0040C11D0BA
:1007D000B8F5005F36D0B8F1000F45D1022A46D0F7
:1007E000012A3BD032B942E00B60486920F0070093
:1007F00040EA020C01F0F8004AF6AB221038CAF6C3
:10080000AA22A0FB02231A0945F67C63C1F814C092
:10081000C0F600039A5C40F2FF335F284FF03F00C0
:1008200021EA030100FA02F088BF0431C4E916127C
:100830008860002301250020636584F83550BDE8F9
:10084000F08100BF032AD5D8012540230120DFE82D
:1008500002F0030E030500BF82E700BFAEF1C070D7
:10086000B0FA80F0400904E0032A04D3C2D1CEF3E9
:1008700000600028BED0012540230120636584F874
:100880003550BDE8F081000090F834C0BCF1010F94
:1008900004BF0220704770B54FF0010C80F834C0DF
:1008A000D0F858E090F835C0BCF1010F38D14FF0C6
:1008B000020C80F835C04FF0000CC0F854C0D0F8DE
:1008C00000C08468056CC06DDCF80060402C26F424
:1008D0008026CCF80060CCF804300B4604BF1346E9
:1008E0000A463F2101FA00F0CCF80830CCF80C2081
:1008F000CEF80800DCF8000040F01600CCF800004C
:100900002DB1DCF8000040F00800CCF80000DCF865
:10091000000040F00100CCF80000002070BD00BFD6
:10092000002180F83410022070BD0000B0B50446EC
:1009300000F0E6F8054640F24000C2F20000007800
:10094000611C18BF044400BF00F0DAF8401BA0424D
:10095000FAD3B0BD2DE9F04F83B000F1200200F1D1
:100960003E4741F60045009207F1FF77C4F20205C9
:1009700008224FEAB726A84208BF072200254FF0F9
:1009800000084FF00009072E38BF4FEAB722019246
:100990000AE000BF09F1010908F10208B9F1100FDE
:1009A00005F1040500F0A2800F68012202FA09FE99
:1009B00017EA0E0AEED0D1F804C003220CF00307A8
:1009C0007E1E02FA08F4012E6FEA040B12D8846826
:1009D000CE6804EA0B0406FA08F6344384604468DF
:1009E00024EA0E06CCF3001404FA09F42643466008
:1009F00004E000BF032F01D103271EE0C6688C6806
:100A000006EA0B0604FA08F42643022FC66014D146
:100A10006FF00302009E02EA590756F807C005F07E
:100A20001C040F220B69A2402CEA0202A3401A43C5
:100A3000F251D1F804C00CF00307026807FA08F37A
:100A400002EA0B021A431CF4403F0260A2D00022CB
:100A500043F644030292C4F202031A6843F60044C8
:100A600042F480421A601A68C4F2010402F480421F
:100A70000292029A29F003024FF6084C2244CFF664
:100A8000FF7C52F80C3005F00C070F26BE40B34334
:100A9000019E06FA07F73B4342F80C30A2684B6808
:100AA00042EA0A0743F60C4CDE0258BF22EA0A0764
:100AB000A760C4F2010CDCF800209E0242EA0A079B
:100AC00058BF22EA0A07CCF8007062689E0342EA27
:100AD0000A0758BF22EA0A0767602268DB0342EA76
:100AE0000A0758BF22EA0A07276053E703B0BDE8A8
:100AF000F08F0000002A08BF0904816170470000E0
:100B000040F2D450C2F2000000687047002804BFD1
:100B100001207047F0B581B0044690F83D0028B937
:100B2000002084F83C00204600F0A2F8242084F83D
:100B30003D002068016821F001010160016841F475
:100B400000410160016821F40041016000F034FAC5
:100B5000636848F2A16CC0F2010C40F60011C0F2CB
:100B60003D0163453CBF48F28041C0F21E0188420E
:100B700002D2012001B0F0BD4DF68361C4F21B31F9
:100B8000A0FB01122168970CD1F804E04FF496768F
:100B90002EF03F0545EA92454D60774348F63816FA
:100BA0000D6AC0F24106A7FB067625F03F076345B4
:100BB00038BF960C721C3A430A62CA6948F2A066B2
:100BC0004CF6FF77C0F20106B34222EA07020BD8C7
:100BD00001385B00B0FBF3F001306FF31F300428E5
:100BE00098BF04201BE000BFA768013857B1192740
:100BF0007B43B0FBF3F001306FF31F3070B100F5B1
:100C0000804007E003EB4303B0FBF3F001306FF3E8
:100C10001F3018B100F5004001E000BF0120104373
:100C2000C8610868D4E9072320F0C00010431843C6
:100C30000860886848F2FF3204F10C0790438CCFBB
:100C400018431043A6698860C86820F0FF00384345
:100C50003043C860086840F001000860002020218F
:100C6000206484F83D10206384F83E0001B0F0BD9C
:100C7000B0B586B045F200410068C4F2000100241E
:100C800088420594CDE903440294019402D006B051
:100C9000B0BD00BF43F630050094C4F202052868D9
:100CA00040F002002860286800F0020000900098E0
:100CB000C02001901220CDE90204032004900420FA
:100CC000059001F5D83001A9FFF744FE009428698A
:100CD00040F400102861286900F40010009000988A
:100CE00006B0B0BD40F2400040F2D451C2F2000064
:100CF000C2F2000100780A681044086070470000E2
:100D000080B543F60040C4F20200016841F400716E
:100D10000160016841F480610160016841F4807103
:100D20000160032000F086F8002000F005F800F0D4
:100D300027F8002080BD000070B540F24006C2F2E6
:100D4000000640F260013278C2F200014FF47A737B
:100D50000968B3FBF2F20446B1FBF2F1084600F079
:100D60005FFB0F2C4FF0010508D838B94FF0FF306A
:100D700021460022002500F031F87460284670BD3D
:100D800082B0002043F640010190C4F202014A689B
:100D900042F480424A604A6802F480420192019A19
:100DA0000090086840F080500860086800F08050AB
:100DB0000090009802B07047002848BF704700F0CC
:100DC0001F01012202FA01F11C2202EAD0004EF2B8
:100DD0000012CEF2000281507047000010B54EF6AE
:100DE0000C5CCEF2000CDCF80030C3F3022E8EF067
:100DF0000704042C28BF0424BEF103034FF0FF3E78
:100E00000EFA04F438BF0023A14399400EFA03F30D
:100E10009A43114300F00F0200F160430901043AC4
:100E200003F564436244002848BF02F10C031970C3
:100E300010BD00004EF60C51CEF200010A684FF6CC
:100E4000FF031A4060F30A2242F0806040F0FD7018
:100E500008607047002804BF012070472DE9F04169
:100E600043F60808C4F202080446D8F8F8030D4611
:100E700000F00700884207D288F8F853D8F8F80342
:100E800000F00700A84277D12068810717D54107F5
:100E900005D5D8F8001041F4E051C8F8001001075A
:100EA00005D5D8F8001041F46041C8F80010D8F812
:100EB0000010A26821F0F0011143C8F80010C0072B
:100EC00040D1D8F8F80300F00700A84207D988F805
:100ED000F853D8F8F80300F00700A8424CD1206876
:100EE000410707D5D8F80010E26821F4E05111431A
:100EF000C8F80010000708D5D8F80000216920F4D0
:100F0000604040EAC100C8F8000000F07DF8D8F861
:100F1000001045F61062C1F30311C0F60002515CE7
:100F200040F2600220FA01F140F24400C2F20000F7
:100F30000068C2F200021160FFF7FEFE0020BDE86B
:100F4000F08100BF6068811E022907D258F8081C92
:100F500089015CBF0120BDE8F08111E0012807D1C3
:100F600058F8081C89035CBF0120BDE8F08107E048
:100F700058F8081C890703D40120BDE8F08100BFA0
:100F8000D8F8001021F003010843C8F80000FFF76B
:100F9000B7FD064641F28837D8F80000616800F0D6
:100FA0000C00B0EB810F8CD0FFF7AAFD801BB8427C
:100FB000F2D90320BDE8F08140F2600043F6080159
:100FC000C2F20000C4F202010068096845F620621E
:100FD000C1F38221C0F60002515CC8407047000096
:100FE00040F2600043F60801C2F20000C4F20201C0
:100FF0000068096845F62062C1F34231C0F600027C
:10100000515CC8407047000010B543F60404C4F2B8
:101010000204606800F00C0142F200400829C0F2AE
:10102000F40007D0042918BF10BD41F20020C0F21F
:101030007A0010BD216801F03F022168236849024F
:10104000C3F3881106D4A1FB00010023FFF722F9A6
:1010500007E000BF41F20020C0F27A004843B0FB35
:10106000F2F021680222C1F3014102EB4101B0FB21
:10107000F1F010BD002804BF012070472DE9F041B8
:1010800082B00446007843F60006C007C4F20206A8
:101090000CD0B06800F00C00042840F0818030686B
:1010A000800303D56068002800F0688120788007FD
:1010B0001BD5B06810F00C0F09D0B06800F00C0020
:1010C000082840F087807068400200F18380306813
:1010D000800703D5E068012840F05081306821691D
:1010E00020F0F80040EAC10030602078000713D4F7
:1010F000207840072AD4A569002D00F03A81B06815
:1011000000F00C00082840F0A580012D40F00E8171
:10111000012002B0BDE8F0816069002800F0828003
:101120000020C4F247200121C0F8801EFFF7E8FC30
:10113000054600BF706F8007DAD4FFF7E1FC401B63
:101140000228F7D9032002B0BDE8F081306C5FEAD5
:10115000C0080AD400200190306C40F08050306408
:10116000306C00F080500190019847F20007C4F203
:1011700000073868C00547D4386840F4807038608C
:10118000FFF7BEFC054600BF3868C0053CD4FFF73A
:10119000B7FC401B0228F7D9032002B0BDE8F0815C
:1011A000B06800F00C00082803D1706840023FF5D9
:1011B00076AF61683068B1F5803F07D0B1F5A02FF8
:1011C00040F09A8040F480203060306840F48030F5
:1011D00030609AE0E068002840F20000C4F2472046
:1011E0005CD001210160FFF78BFC05463068800769
:1011F0003FF574AFFFF784FC401B0228F6D90320AB
:1012000002B0BDE8F08100BFA168306F012905D0B0
:10121000052955D140F004003067306F40F00100DF
:10122000306756E00020C4F247200021C0F8801E3D
:10123000FFF766FC054600BF706F80077FF558AF6B
:10124000FFF75EFC401B0228F6D9032002B0BDE880
:10125000F08100BF0027C4F2472700203866FFF75F
:101260004FFC022D05460DD13068800140F18A8087
:10127000FFF746FC401B02284FF00300F4D902B0F0
:10128000BDE8F0813068800173D5FFF739FC401B61
:1012900002284FF00300F5D9F1E700BF00210160FB
:1012A000FFF72EFC054600BF306880077FF51DAFB5
:1012B000FFF726FC401B02284FF00300F4D9DEE7BD
:1012C00020F001003067306F002920F00400306703
:1012D0007AD0FFF715FC054641F28837306F80075A
:1012E00000F18480FFF70CFC401BB842F6D90320C4
:1012F00002B0BDE8F08100BF20F48030306030687B
:10130000002920F4802030607AD0FFF7F9FB0546F1
:10131000306880033FF5CAAEFFF7F2FB401B64283C
:10132000F6D9032002B0BDE8F08100BF7068E16922
:1013300000F480028A4221D1216A00F03F028A42F1
:101340001CD147F6C071626A0140B1EB821F15D112
:10135000A16A4FF6FF73C903994300F44032A1F527
:1013600080318A420AD1E16A00F07060B0EB016F0F
:1013700004D1002002B0BDE8F08100BF012002B01E
:10138000BDE8F08104F11C052FCD084340EA82102E
:10139000D9034FF6FF729143A1F5803140EA056011
:1013A0000843706001203866FFF7AAFB044600BFBF
:1013B00030688001DDD4FFF7A3FB001B02284FF04B
:1013C0000300F5D95BE700BFFFF79AFB054641F242
:1013D000883700BF306F800708D5FFF791FB401BAF
:1013E000B8424FF00300F5D949E700BFB8F1000F4C
:1013F0003FF581AE306C20F0805030647BE600BF5A
:10140000FFF77EFB054600BF306880037FF54EAED8
:10141000FFF776FB401B64284FF00300F4D92EE75A
:10142000411E0020B0EB116F1CBF012070474EF22F
:101430001002CEF2000251604EF62351CEF20001AE
:10144000F0230B7007219060116070477047000017
:101450007047000090F83C20012A04BF022070472A
:10146000B0B501F108053CCDD1E900CE23F47C53A1
:1014700022F470521A432EF4F0431A432CF4E04342
:101480001A4324F4C0431A432A43C96922F4804210
:10149000036811435964002180F83C100020B0BD5E
:1014A00090F83C20012A4FF0020254D010B580F889
:1014B0003D200268D2F804E0D2F808C00C682EF093
:1014C0007003234341F2FF74C4F20004A24253604C
:1014D0000EDC40F2FF73C4F200039A4216DCB2F154
:1014E000804F2BD040F20043C4F2000324E000BF41
:1014F00040F2FF33C4F201039A4213DC41F60003C9
:10150000C4F200039A4219D0002313E040F600030E
:10151000C4F200039A4211D040F60043C4F2000323
:101520000AE000BF44F20003C4F201039A4205D06E
:1015300040F20043C4F201039A4204D149682CF0FE
:101540008003194391600121002280F83D1080F84A
:101550003C20BDE81040104670470000002804BF42
:101560000120704710B5044690F83D0028B90020CE
:1015700084F83C00204600F01FF8022084F83D006B
:101580002068211D02F0A2FE012084F8460084F8A4
:101590003E0084F83F0084F8400084F8410084F85D
:1015A000420084F8430084F8440084F8450084F83D
:1015B0003D00002010BD000080B582B0006840F200
:1015C000FF71C4F2000188422CDD40F60001C4F234
:1015D000000188423ED040F60041C4F2000188423A
:1015E00046D044F20041C4F2010188425DD100209E
:1015F000019043F64000C4F202004168002241F429
:10160000003141604068002100F4003001900198F1
:101610001920FFF7E3FB192002B0BDE88040FFF777
:10162000CBBB00BFB0F1804F30D040F20041C4F2DC
:101630000001884239D10020019043F64000C4F2F5
:101640000200016841F002010160006800F0020040
:1016500029E000BF0020019043F64000C4F20200E0
:10166000016841F004010160006800F004001AE024
:101670000020019043F64000C4F20200016841F0EE
:1016800008010160006800F008000CE000200190F3
:1016900043F64000C4F20200016841F0010101601C
:1016A000006800F001000190019802B080BD0000C8
:1016B0000146006841F21113C26822F00102C260C3
:1016C000026A1A4204D00122002081F83D207047AE
:1016D000026A40F244431A42F5D1026822F0010244
:1016E00002600122002081F83D20704790F83C20E4
:1016F000012A4FF002026CD080B580F83D20D0F86E
:1017000000C04FF67772DCF8083023EA0202CCF80A
:1017100008200B684F2B29DC1F2B45DD202B46D0E2
:10172000302B44D0402B40F0AF80D1F804E0C968A2
:10173000DCF82030DCF8202022F00102CCF8202058
:10174000DCF8182022F0F00242EA011123F00A022C
:1017500042EA0E02CCF81810CCF82020DCF8081071
:1017600041F0470121F0300128E000BF6F2B33DD4D
:10177000B3F5005F74D0B3F5805F21D0702B40F0DB
:101780008380D1E901E3C968DCF8082043EA0E034D
:1017900022F47F4243EA01211143CCF80810DCF81F
:1017A000081041F0770109E00BB1102B6CD1DCF887
:1017B000081021F07001194341F00701CCF808101E
:1017C0000022012180F83D10002180F83C10BDE886
:1017D00080401046704700BF502B21D0602B53D162
:1017E000D1F804E0C968DCF82030DCF8202022F0D1
:1017F0001002CCF82020DCF8182022F4704242EAD3
:10180000013123F0A00242EA0E12CCF81810CCF8F5
:101810002020DCF8081041F0670121F01001CDE72D
:10182000D1F804E0C968DCF82030DCF8202022F090
:101830000102CCF82020DCF8182022F0F00242EA65
:10184000011123F00A0242EA0E02CCF81810CCF87B
:101850002020DCF8081041F0570121F02001ADE70D
:10186000D1E901E3C968DCF8082043EA0E0322F459
:101870007F4243EA01211143CCF80810DCF808103C
:1018800041F480419AE700BF01229AE770470000C7
:1018900070B504460068C5680669B10716D515F02D
:1018A000020113D06FF002010161012121778069EB
:1018B000800703D02046FFF7E9FF05E0204600F04F
:1018C00031F9204600F092FA00202077700719D5F0
:1018D00015F0040016D020686FF0040101610221A8
:1018E0002177806910F4407F04D02046FFF7CEFFB7
:1018F00006E000BF204600F015F9204600F076FA19
:1019000000202077300717D515F0080014D0206884
:101910006FF00801016104212177C069800703D0BD
:101920002046FFF7B3FF05E0204600F0FBF8204615
:1019300000F05CFA00202077F00619D515F01000B1
:1019400016D020686FF01001016108212177C0696D
:1019500010F4407F04D02046FFF798FF06E000BF58
:10196000204600F0DFF8204600F040FA0020207703
:10197000F00718BF15F0010002D1300609D412E0BB
:1019800020686FF001010161204600F0B9FA3006CD
:1019900009D515F0800006D020686FF08001016144
:1019A0002046FFF753FD700609D515F0400006D01C
:1019B00020686FF040010161204600F033FCB00662
:1019C00058BF70BD15F0200008D021686FF02002CC
:1019D00020460A61BDE87040FFF73ABD70BD0000C7
:1019E00080B586B0006840F2FF71C4F20001884201
:1019F0004FF000010591CDE90311CDE901112BDD77
:101A000040F60001C4F2000188423FD040F6004198
:101A1000C4F20001884253D00021C4F2010188427F
:101A200040F07E800020009043F63000C4F20200B7
:101A3000016841F0100101600068012100F0100010
:101A4000009000984FF4D44001900020C4F20200AE
:101A500000F580505BE000BFB0F1804F42D040F213
:101A60000041C4F2000188425AD10020009043F6A0
:101A70003000C4F20200016841F001010160006819
:101A800000F0010000900098402029E00020009024
:101A900043F63000C4F20200016841F00801016021
:101AA0000068022100F00800009000984FF4805078
:101AB00001900020C4F2020000F5406027E000BF62
:101AC0000020009043F63000C4F20200016841F0AB
:101AD00001010160006800F0010000900098012001
:101AE000022110E00020009043F63000C4F2020012
:101AF000016841F0010101600068012100F001006E
:101B000000900098202001900020C4F202000222E0
:101B100002920022059101A9CDE90322FEF71AFFE6
:101B200006B080BD7047000090F83C30012B04BF28
:101B3000022070474FEAB202032A00F2FF802DE92B
:101B4000F043DFE802F003B13F7F00BF036840F2DB
:101B500000461C6A1A6A24F0020422F001021A628A
:101B60001A46D3F804C052F818EF8F6843F4806522
:101B7000C4F20106B54244EA070405D1CF6824F057
:101B80000C0427F004073C430F68B54206D1D1E9A5
:101B900005582CF440762E4346EA080C2EF07306C6
:101BA0003743C3F804C09F614F6809695F631C62D3
:101BB0009F6947F008079F619F6927F004079F61AD
:101BC000B1E000BF036840F200481C6A1A6A24F4BE
:101BD000007422F480721A621A46D3F804C052F8D4
:101BE0001CEF8F6843F48065C4F20108454544EA60
:101BF000072408D1CF6840F2FF463F0224F4406436
:101C000027EA06063443D1F80090454506D1D1E9CC
:101C100005562CF440572E4347EA061C2EF0730756
:101C200047EA0907C3F804C0DF614F680969DF6349
:101C30001C62DF6947F00807DF61DF6927F00407EE
:101C4000DF6170E0036840F20045D3F820C01A6AF3
:101C500043F4806722F480521A621A465C6852F894
:101C60001C8FD1F800E08E68C4F20105AF4204D1A8
:101C70004D6924F4804444EA85142CF4005747EA63
:101C8000063728F4E64646EA0E265C60DE614E68BA
:101C900009691E641F62DF6947F40067DF61DF695D
:101CA00027F48067DF613DE0036840F200481C6A6A
:101CB0001A6A24F0200422F010021A621A46D3F89D
:101CC00004C052F818EF8F6843F48065C4F201082D
:101CD000454544EA071407D1CF686FF0400624F069
:101CE000C00406EA07163443D1F80090454506D1F2
:101CF000D1E905562CF440672E4347EA860C2EF4B2
:101D0000E64747EA0927C3F804C09F614F6809699D
:101D10009F631C629F6947F400679F619F6927F476
:101D200080679F6109021368194311600021BDE8B3
:101D3000F043002280F83C20084670470121002231
:101D400080F83C2008467047002804BF01207047F7
:101D500010B5044690F83D0028B9002084F83C00F6
:101D6000204600F01FF8022084F83D002068211D65
:101D700002F0ACFA012084F8460084F83E0084F8B2
:101D80003F0084F8400084F8410084F8420084F861
:101D9000430084F8440084F8450084F83D000020A6
:101DA00010BD000000680021C4F20101884218BF84
:101DB000704780B582B00020019043F64400C4F221
:101DC00002000168002241F0010101600068002169
:101DD00000F00100019001981920FEF7FFFF192083
:101DE00002B0BDE88040FEF7E7BF0000704700008A
:101DF000C1B1042908D0082914BF41224022825CC5
:101E0000012A05D016E000BF3F22825C012A11D1D1
:101E10000222082910D0042914BF80F8412080F83C
:101E20003F200BE090F83E20012A03D1022280F8E7
:101E30003E2003E00120704780F84020006801F058
:101E40001F010122036A02FA01F123EA0102026280
:101E5000026A114341F2FF72C4F200029042016231
:101E60000CDC40F2FF71C4F20001884214DCB0F1D6
:101E7000804F37D040F2004116E000BF40F2FF3102
:101E8000C4F20101884215DC41F60001C4F20001F0
:101E9000884227D0002115E040F60001C4F200017D
:101EA00088421FD040F60041C4F20001884219D098
:101EB0001FE000BF44F20001C4F20101884211D0CA
:101EC00040F20041C4F20101884212D1416C40F25B
:101ED000004340F48062C4F2010341F400419A429D
:101EE000416406D1816801F00701062904BF002082
:101EF0007047016841F00101016000207047000057
:101F0000B0B5006844F20041C4F20101884218BF34
:101F1000B0BD40F2D004C2F20004207840B10128E4
:101F20001AD1E168E069884236DA00EE100A05E06D
:101F3000E068E16981424FDA00EE101A9FEDB81AAD
:101F4000B8EEC00A20EE010A84ED110A84ED120AEF
:101F500084ED130A84ED140A607868B1012878D101
:101F60002169E06988420BDB626A904271DA531A98
:101F700098424FDC6DE000BF2169E069884241DA98
:101F800000EE100A9FEDA61AB8EEC00A20EE010A74
:101F900084ED150A57E000BF226A9042DCDA531A3A
:101FA0009842D9DDC31A01EE103A9FED9D2A94EDB7
:101FB0000B0AB8EEC11A21EE021A084430EE411A9B
:101FC000801A84ED111A01EE100AB8EEC11A21EE42
:101FD000021A30EE410AB9E7226A914280F2048186
:101FE000131A994240F3008101EE100A9FED8B2AEB
:101FF00094ED0B0AB8EEC11A21EE021A30EE010A76
:10200000A2E700BF626A904280F2F680531A9842BB
:1020100040F3F280C31A01EE103A9FED812A94ED4D
:102020000C0AB8EEC11A21EE021A084430EE411A29
:10203000801A84ED151A01EE100AB8EEC11A21EECD
:10204000021A30EE410A84ED160A84ED170A84ED77
:10205000180A94F9070094ED112A414200EE101A73
:1020600094F9081094ED156A01EE101AB8EEC00A42
:10207000B8EEC11A26EE016A20EE022A94ED123A59
:1020800094ED167A32EE062A06EE100A94ED145AF2
:10209000D4ED170AD4ED181AB8EEC66A27EE017A05
:1020A00026EE033A40F2541033EE073A20EE817ADE
:1020B00021EE811A20EE050AC2F2000030EE010A7C
:1020C00090ED001A40F25810C2F2000094ED134A4D
:1020D00090ED005A26EE044A31EE051A34EE074A16
:1020E00033EE413AB5EE402A34EE011AF1EE10FA21
:1020F0004FF00001B5EE403A4FF0000084ED0D2A9C
:1021000084ED100A84ED0E3A84ED0F1AB8BF012158
:10211000E170F1EE10FAB8BF01202071B5EE401A5F
:102120000020F1EE10FAB8BF01206071B5EE400A50
:102130000020B0EEC20AF1EE10FAB8BF0120BCEEEA
:10214000C00AA07110EE100A00EB800042000120CE
:102150000023002501F0FEFB94ED0E0A2179B0EE7C
:10216000C00ABCEEC00A10EE100A00EB800042006C
:102170000220002301F0EEFB94ED0F0A6179B0EE2E
:10218000C00ABCEEC00A10EE100A00EB800042004C
:102190000320002301F0DEFB94ED100AA179B0EEDC
:1021A000C00ABCEEC00A10EE100A00EB800042002C
:1021B0000420002301F0CEFB01F00CF8E069A16AD5
:1021C00001308842E06101DAB0BD00BF01F00EF8D5
:1021D00001F000F840F2DC30E561C2F20000A570C9
:1021E000BDE8B040FFF764BA91420DDD00209FEDDD
:1021F0000A0A6064AAE600BF904209DD00209FED54
:10220000060A60651FE700BF94ED0B0A9CE600BF5D
:1022100094ED0C0ABCE600BF00000000D2537BC066
:10222000D2537B40704700007047000070470000A9
:10223000B0B582B001680A68CC684B6902F02F051E
:10224000202D04F0200505D125B102B0BDE8B04035
:1022500002F06ABA5FEA027C1EBF03F0010E04F4CA
:10226000907313EB0E0341D1036BD50618D5012BE8
:1022700016D114F0100313D0002201920A680192C3
:102280004A680192019A496949064BD4818DC28DF1
:10229000C38D002B18BF914240F0F48102B0B0BD55
:1022A00013062DD514F080032AD090F84120212A5E
:1022B000F4D18268B2F5805F03D10269002A00F090
:1022C0006782026A531C036212784A60C28C013A28
:1022D0001304C284E2D1C86820F08000C860C868D6
:1022E00040F04000C86002B0B0BD00BFD30718BFC7
:1022F00014F4807340F0D080530700F1D380D8E00D
:102300005206CBD514F04002C8D0CA6822F0400271
:10231000CA60202180F8411002B0BDE8B04000F052
:10232000BFBE00BFC16B0A68526893B2002BB5D024
:10233000858DAB42B2D2C285C969B1F5807F00F00C
:10234000A080016851E8031F026821F4807142E80F
:102350000313DBB1016851E8031F026821F48071A7
:1023600042E8031393B1016851E8031F026821F4A6
:10237000807142E803134BB1016851E8031F026802
:1023800021F4807142E80313002BDAD1016851E88F
:10239000051F026821F0010142E80513BBB3016883
:1023A00051E8051F026821F0010142E8051373B3EB
:1023B000016851E8051F026821F0010142E8051398
:1023C0002BB3016851E8051F026821F0010142E8C2
:1023D0000513002BDAD11AE0016851E8051F0268E5
:1023E00021F0400142E80513DBB1016851E8051F07
:1023F000026821F0400142E8051393B1016851E8F9
:10240000051F026821F0400142E805134BB1016845
:1024100051E8051F026821F0400142E80513002B36
:10242000DAD1202180F8421000210163016851E8CF
:10243000031F026821F0100142E80313DBB10168B9
:1024400051E8031F026821F0100142E8031393B121
:10245000016851E8031F026821F0100142E80313EC
:102460004BB1016851E8031F026821F0100142E8F6
:102470000313002BDAD1C16B04460846FEF716F8A9
:10248000204602214163818DC28D891A89B202B032
:10249000BDE8B040FFF7C8BE436C43F0010343649E
:1024A000530706D5BEF1000F03D0436C43F002037F
:1024B0004364930706D5BEF1000F03D0436C43F08D
:1024C00004034364BCF1000F06D55EEA050303D0A4
:1024D000436C43F008034364436C002B3FF4DEAECF
:1024E000920605D525B1044602F01EF92168204662
:1024F0004969426C01F0400102F00802891800F0BD
:10250000B98000BF016851E8031F026821F490718F
:1025100042E80313BBB3016851E8031F026821F4CA
:10252000907142E8031373B3016851E8031F026816
:1025300021F4907142E803132BB3016851E8031FA3
:10254000026821F4907142E80313002BDAD11AE0FB
:10255000016851E8051F026821F0010142E80513F6
:10256000DBB1016851E8051F026821F0010142E872
:10257000051393B1016851E8051F026821F00101BC
:1025800042E805134BB1016851E8051F026821F0CC
:10259000010142E80513002BDAD1016B012924D196
:1025A000016851E8031F026821F0100142E803139B
:1025B000DBB1016851E8031F026821F0100142E815
:1025C000031393B1016851E8031F026821F0100161
:1025D00042E803134BB1016851E8031F026821F080
:1025E000100142E80313002BDAD1202180F84210B9
:1025F0000021016301684969490640F1C38001680F
:1026000051E8051F026821F0400142E80513DBB1E3
:10261000016851E8051F026821F0400142E80513F6
:1026200093B1016851E8051F026821F0400142E8BA
:1026300005134BB1016851E8051F026821F0400104
:1026400042E80513002BDAD1C16B002900F09A8013
:1026500044F22942C0F60002044608460A65FDF726
:102660006DFF00283FF41AAEE06B016D02B0BDE8CB
:10267000B04008470446FFF7D9FD0020606402B06F
:10268000B0BD00BF891A00BF026852E8032F03687B
:1026900022F4907243E80325BDB3026852E8032F89
:1026A000036822F4907243E8032575B3026852E888
:1026B000032F036822F4907243E803252DB30268C8
:1026C00052E8032F036822F4907243E80325002D9B
:1026D000DAD11AE0026852E8052F036822F00102FD
:1026E00043E80525DDB1026852E8052F036822F0B2
:1026F000010243E8052595B1026852E8052F0368F9
:1027000022F0010243E805254DB1026852E8052F89
:10271000036822F0010243E80525002DDAD12022CA
:1027200080F8422000220263026852E8032F036807
:1027300022F0100243E80325DDB1026852E8032FBE
:10274000036822F0100243E8032595B1026852E8BD
:10275000032F036822F0100243E803254DB10268FD
:1027600052E8032F036822F0100243E80325002DEE
:10277000DAD1022289B2426302B0BDE8B040FFF76D
:1027800053BD00BF02B0BDE8B040FFF74FBD00BF72
:10279000026A32F8023B6FF35F234B60026295E5F9
:1027A000002804BF0120704710B5044690F841008E
:1027B00028B9002084F84000204600F021F82420A9
:1027C00084F841002068C16821F40051C1602046AE
:1027D00002F02AF82068016921F490410161416901
:1027E00021F02A014161C16841F40051C16000201B
:1027F0002021606484F8411084F84210606310BDA9
:102800002DE9F04F87B00446006841F20001C4F2A0
:10281000010100268842CDE90566CDE903660296EE
:1028200000F0EC8045F20001C4F20001884275D04E
:1028300044F60041C4F20001884240F04481002780
:1028400043F630000197C4F202000169002541F40B
:10285000002101610169C4F2020501F40021019126
:102860000199019701680DF1080841F0010101602B
:102870000168022601F001010191019901970168A7
:102880004FF0030941F00401016000684FF0080AAD
:1028900000F004000190019828464146CDE9026607
:1028A0000497CDF81490CDF818A0FEF753F804A8BB
:1028B0004FF4806B80E8800605F500604146CDE965
:1028C00002B6FEF747F846F21000C4F2020040F2EA
:1028D000C0153030C2F200054FF000614FF4807235
:1028E00085E883002846C5E9037BC5E90577C5E986
:1028F00007276F62FDF716FF002818BFFDF7D2FD0E
:10290000342000210022E563AC63FEF767FA34202F
:10291000FEF752FA07B0BDE8F08F00BF43F6300073
:102920000196C4F202000169002741F4801101619F
:102930000169C4F2020701F4801101910199019625
:10294000016802AD41F00401016001684FF0020826
:1029500001F0040101910199019601684FF003090A
:1029600041F00801016000684FF0080A00F008001B
:10297000019001984FF48050029007F500602946BD
:10298000CDE90386CDF81490CDF818A0FDF7E2FF4D
:102990000420CDE9020804A880E8400607F540605D
:1029A0002946FDF7D7FF40F2202546F21000C2F27B
:1029B0000005C4F202004FF000614FF480624FF452
:1029C000807385E843002846C5E90362C5E90566CA
:1029D000C5E907366E62FDF7A5FE002818BFFDF7B2
:1029E00061FD352000210022E563AC63FEF7F6F9B6
:1029F0003520FEF7E1F907B0BDE8F08F43F630006F
:102A00000196C4F20200416946F2100841F010013B
:102A100041614169C4F2020801F01001019101997C
:102A20000196016841F001010160006802A900F00F
:102A30000100019001984FF4C06002900220CDE99E
:102A4000030603200590072006900020C4F2020030
:102A5000FDF780FF40F2802508F58660C2F2000590
:102A60004FF000674FF48069C5E900072846C5E9C3
:102A70000266C5E90496C5E90666C5E90866FDF77C
:102A800051FE002818BFFDF70DFDE563AC6340F271
:102A9000E02508F59560C2F200054021C5E9000770
:102AA00005F10800002280E806022846C5E9052253
:102AB000C5E907226A62FDF735FE002818BFFDF759
:102AC000F1FCA563AC6307B0BDE8F08F2DE9F043DE
:102AD00081B0044690F84200202809D18846002998
:102AE0004FF0010018BF002A06D101B0BDE8F08305
:102AF000022001B0BDE8F083002022211D46606461
:102B000084F8421020631646FDF7FAFFA685E68595
:102B1000A1680746B1F5805F02D12069002851D035
:102B200046464FF00008E08D00284FD005F101091E
:102B30000CE000BF406800266FF35F2028F8020B0E
:102B4000E08D0138E085E08D00283FD020680168E5
:102B5000890617D4B9F1000F22D0002D00F0CA80E9
:102B6000FDF7CEFFC01BA84200F2BC802068C16800
:102B7000490744BF01685FEA01712FD401688906E3
:102B8000EED500BF002ED5D0A168B1F5805F15D07D
:102B900009B9216991B1406800F07F000FE000BFE2
:102BA00001688906EED4016889065CBF01685FEAA6
:102BB0008161E7D401688906F2D5E3E7406806F849
:102BC000010BBDE70026E08D0028AFD100202021B9
:102BD00084F8421001B0BDE8F08300BF00210091ED
:102BE0000168009140680090009800BF206850E89C
:102BF000030F216820F4907041E80302BAB3206803
:102C000050E8030F216820F4907041E8030272B38A
:102C1000206850E8030F216820F4907041E8030217
:102C20002AB3206850E8030F216820F4907041E82F
:102C30000302002ADAD11AE0206850E8050F216863
:102C400020F0010041E80502DAB1206850E8050FE4
:102C5000216820F0010041E8050292B1206850E8A7
:102C6000050F216820F0010041E805024AB1206803
:102C700050E8050F216820F0010041E80502002A14
:102C8000DAD1206B012824D1206850E8030F216895
:102C900020F0100041E80302DAB1206850E8030F89
:102CA000216820F0100041E8030292B1206850E84A
:102CB000030F216820F0100041E803024AB12068A8
:102CC00050E8030F216820F0100041E80302002AB9
:102CD000DAD1202084F842000020082120636164BA
:102CE00084F840000320202184F8421001B0BDE8A0
:102CF000F08300BFFDF704FFF4E70000B0B582B039
:102D000090F84240202C0BD113460A4600294FF080
:102D1000010118BF002B07D1084602B0B0BD00BFAB
:102D20000221084602B0B0BD00252221056382625F
:102D30008385456480F84210D0F83CC044F2B15E0F
:102D400044F21174C0F6000EC0F600040168CCE92C
:102D50000FE444F23544C0F60004CCE913450431D5
:102D600004466046FDF790FD0195216820460A68FB
:102D70000192496801910199216929B3016851E8DB
:102D8000031F026841F4807142E80313E3B1016854
:102D900051E8031F026841F4807142E803139BB1BC
:102DA000016851E8031F026841F4807142E803138F
:102DB00053B1016851E8031F026841F4807142E891
:102DC0000313002BDAD100BF016851E8051F026828
:102DD00041F0010142E80513BBB3016851E8051F4A
:102DE000026841F0010142E8051373B3016851E83C
:102DF000051F026841F0010142E805132BB3016889
:102E000051E8051F026841F0010142E80513002B5B
:102E1000DAD11AE0016851E8051F026841F040016B
:102E200042E80513DBB1016851E8051F026841F073
:102E3000400142E8051393B1016851E8051F02689B
:102E400041F0400142E805134BB1016851E8051F0C
:102E5000026841F0400142E80513002BDAD100215D
:102E6000084602B0B0BD0000006845F20001C4F29F
:102E7000000188423CD140F24010C2F20000417F84
:102E8000532918BF7047418C9FED1A1A00EE101A93
:102E9000B8EEC00A20EE010A9FED171A90ED042A41
:102EA00020EE010A30EE420AB4EE410AF1EE10FAC9
:102EB0000ADA9FED131AB4EE410AF1EE10FA07DCBC
:102EC0009FED101A02E000BF9FED0C1A30EE010AD0
:102ED00090ED031A90ED022A30EE010A416980ED6F
:102EE000030A30EE420A80ED041A816180ED050A82
:102EF000704700BF00000038000034430000B4C336
:102F0000000034C30000B443704700002DE9F043D3
:102F100081B0044690F84100202809D100294FF0E3
:102F2000010018BF002A07D101B0BDE8F08300BF3F
:102F3000022001B0BDE8F0830020606421201D461E
:102F40000E4684F841001746FDF7DAFDA784E784B2
:102F5000A1688146B1F5805F02D1206900285DD06B
:102F600037460020E28C2168002A5DD06A1C24D0FC
:102F7000002D4AD0804600BF0868000608D4FDF73F
:102F8000BFFDA0EB0900A8427AD82168C868F3E722
:102F900017B117F8010B04E038F8020B00276FF3A4
:102FA0005F204860E08C0138E084E08C0028E3D1A9
:102FB0003AE000BF0A68120609D40A68120606D46D
:102FC0000A6812065CBF0A685FEA0262F2D51FB1A6
:102FD00017F8012B05E000BF30F8022B00276FF334
:102FE0005F224A60E28C013AE284E28C002AE4D15A
:102FF0001AE000BF30F8022B00276FF35F224A600F
:10300000E28C013AE284E28C72B10A68120635D58C
:10301000002FEFD017F8012BF1E700BF0027304653
:10302000E28C2168002AA1D1086840061ED42DB385
:10303000681C14D1086840062AD40868400627D4C2
:103040000868400624D4086840064FF00000F1D517
:103050000DE000BF2068C1680068400618D4FDF785
:103060004FFDA0EB0900A842F4D909E0002020217F
:1030700084F8411001B0BDE8F08300BFFDF740FDCA
:103080000320202184F8411001B0BDE8F08300BF87
:103090000020202184F8411001B0BDE8F083000039
:1030A00070470000FEE7000010B50138042888BF13
:1030B00010BDDFE800F003513341110040F2004041
:1030C000C4F20200012965D14FF480410022BDE81D
:1030D0001040FDF70FBD00BF40F20044C4F20204EF
:1030E000012904F540604FF4004143D10022FDF76F
:1030F00001FD20464FF400510022FDF7FBFC204665
:103100004FF480410022FDF7F5FC20464FF40061AA
:103110000022BDE81040FDF7EDBC00BF40F20040CA
:103120000129C4F202003DD14FF400610022BDE844
:103130001040FDF7DFBC00BF40F20040C4F20200C7
:1031400000F54060012935D14FF400410022BDE86F
:103150001040FDF7CFBC00BF40F20040C4F20200B7
:1031600001292FD14FF400510022BDE81040FDF796
:10317000C1BC00BF0122FDF7BDFC20464FF4005149
:103180000122FDF7B7FC20464FF400610122FDF754
:10319000B1FC20464FF480410122BDE81040FDF70C
:1031A000A9BC00BF4FF400610122BDE81040FDF74B
:1031B000A1BC00BF4FF400410122BDE81040FDF763
:1031C00099BC00BF4FF400510122BDE81040FDF74B
:1031D00091BC000040F2445045F62861C2F2000064
:1031E000C0F600010422FF23FFF790BE40F24450D6
:1031F00040F25001C2F20000C2F200010522FF239A
:10320000FFF784BE80B582B0002043F63001019004
:10321000C4F202010A6842F400120A600A6802F469
:1032200000120192019A00900868002240F4800088
:1032300008600868002100F48000009000980B20CE
:10324000FDF7CCFD0B20FDF7B7FD0D20002100227E
:10325000FDF7C4FD0D20FDF7AFFD3A20002100224F
:10326000FDF7BCFD3A20FDF7A7FD46200021002216
:10327000FDF7B4FD462002B0BDE88040FDF79CBDDF
:103280002DE9F04F87B0002543F630000695CDE9D3
:103290000455CDE902550195C4F20200016840F2DF
:1032A000000941F0040101600168C4F2020901F063
:1032B00004010191019901950168002241F080010A
:1032C00001600168942401F0800101910199019548
:1032D000016841F001010160016801F00101019103
:1032E00001990195016841F010010160016801F048
:1032F0001001019101990195016841F002010160FD
:10330000016801F00201019101990195016841F004
:10331000080101600068942100F008000190019804
:103320004846FDF7E7FB09F5805840464FF4004159
:1033300001220126FDF7DEFB09F5806A50464FF4B5
:10334000D04101224FF4D04BFDF7D4FB09F5406783
:1033500038464FF400510022FDF7CCFBCDE9024680
:1033600002AC48462146CDE90455FDF7F3FA4FF487
:103370000040CDE9020640462146CDE90465FDF74F
:10338000E9FA50462146CDE902B6CDE90465FDF7DC
:10339000E1FA4FF40050CDE9020638462146CDE966
:1033A0000455FDF7D7FA07B0BDE8F08F80B540F2BD
:1033B000403045F20041C2F20000C4F2000148F280
:1033C000A06200234FF4804CC0F2010280E80E009E
:1033D000C0E9033CC0E90533C0E90733FDF796FBBC
:1033E000002808BF80BDBDE88040FDF75BB8000045
:1033F00080B540F2DC3044F20041C2F20000C4F279
:103400000101002340F28F6242F20F7C80E80E102F
:1034100003618361FEF7A2F8002808BF80BDBDE804
:103420008040FDF73FB8000080B592B040F2943084
:1034300000220021C2F20000C4F20102A72344F6D8
:103440001F6C1191CDE90F11CDE90D11CDE90B11D3
:10345000CDE90911CDE90711CDE90511CDE9031138
:10346000CDE90111C0E90023C0E9021CC0E9041143
:103470008161FEF769FC002818BFFDF713F840F2E0
:103480009430C2F2000010A9FEF70AF8002818BF15
:10349000FDF708F8602009900020CDE90A00CDE989
:1034A0000C00CDE90E0040F29430C2F2000009A9F0
:1034B0000022FEF739FB002818BFFCF7F3FF40F2AB
:1034C0009430C2F2000009A90422FEF72DFB002867
:1034D00018BFFCF7E7FF40F29430C2F2000009A9E0
:1034E0000822FEF721FB002818BFFCF7DBFF40F2A3
:1034F0009430C2F2000009A90C22FEF715FB002847
:1035000018BFFCF7CFFF00200590CDE90300CDE9FF
:1035100001004FF40051089040F294300691C2F23D
:10352000000001A9FDF796FF002818BFFCF7BAFFBD
:1035300040F29430C2F20000FEF752FA12B080BDA1
:1035400010B58EB040F224400021C2F200004FF0CE
:1035500080424FF4907344F620640D91CDE90B1135
:103560000991CDE90711CDE90511CDE90311CDE9A7
:103570000111C0E90023C0E9021401618161FDF776
:10358000EDFF002818BFFCF78DFF4FF480500A9024
:1035900040F22440C2F200000AA9FEF7A7F8002872
:1035A00018BFFCF77FFF40F22440C2F20000FEF794
:1035B000CBFB002818BFFCF775FF40F22440002425
:1035C000C2F2000008A9CDE90844FDF769FF002810
:1035D00018BFFCF767FF6020019042F21070CDE940
:1035E000020440F22440C2F2000001A90022059426
:1035F000FEF79AFA002818BFFCF754FF40F2244067
:10360000C2F20000FEF7ECF90EB010BD10B58EB09E
:1036100040F26C4040F200420021C2F20000C4F2CD
:1036200000024FF4907344F620640D91CDE90B1124
:103630000991CDE90711CDE90511CDE90311CDE9D6
:103640000111C0E90023C0E9021401618161FDF7A5
:1036500085FF002818BFFCF725FF4FF480500A9023
:1036600040F26C40C2F200000AA9FEF73FF80028C1
:1036700018BFFCF717FF40F26C40C2F20000FEF7E3
:1036800063FB002818BFFCF70DFF40F26C400024DC
:10369000C2F2000008A9CDE90844FDF701FF0028A7
:1036A00018BFFCF7FFFE6020CDE901040220039063
:1036B00040F26C40C2F2000001A900220594FEF71E
:1036C00033FA002818BFFCF7EDFE40F26C40C2F25E
:1036D0000000FEF785F90EB010BD000010B58EB0E9
:1036E00040F2B44040F600020021C2F20000C4F2F1
:1036F00000024FF4907344F620640D91CDE90B1154
:103700000991CDE90711CDE90511CDE90311CDE905
:103710000111C0E90023C0E9021401618161FDF7D4
:103720001DFF002818BFFCF7BDFE4FF480500A9023
:1037300040F2B440C2F200000AA9FDF7D7FF00280A
:1037400018BFFCF7AFFE40F2B440C2F20000FEF733
:10375000FBFA002818BFFCF7A5FE40F2B440002495
:10376000C2F2000008A9CDE90844FDF799FE00283F
:1037700018BFFCF797FE6020019042F21070CDE96F
:10378000020440F2B440C2F2000001A900220594F4
:10379000FEF7CAF9002818BFFCF784FE40F2B440D7
:1037A000C2F20000FEF71CF90EB010BD10B58EB0CD
:1037B00040F2FC4040F600420021C2F20000C4F298
:1037C00000024FF4907364240D91CDE90B1109911F
:1037D000CDE90711CDE90511CDE90311CDE90111BD
:1037E000C0E90023C0E9021401618161FDF7B6FE62
:1037F000002818BFFCF756FE4FF480500A9040F2A4
:10380000FC40C2F200000AA9FDF770FF002818BFB3
:10381000FCF748FE40F2FC40C2F20000FEF794FACA
:10382000002818BFFCF73EFE40F2FC400024C2F224
:10383000000008A9CDE90844FDF732FE002818BFB2
:10384000FCF730FE602001903220CDE9020440F206
:10385000FC40C2F2000001A900220594FEF764F9C1
:10386000002818BFFCF71EFE40F2FC40C2F2000028
:10387000FEF7B6F80EB010BD80B540F28C5044F69D
:103880000041C2F20000C4F2000100234FF00C0C12
:103890004FF4E13280E80E00C0E90333C0E905C30C
:1038A000C361FEF77DFF002818BFFCF7FBFD40F267
:1038B0008C5040F26401C2F20000C2F20001092201
:1038C000BDE88040FFF71ABA10B540F24014C2F2CA
:1038D000000445F20001C4F20001204640F8281F10
:1038E0004FF4165100220C23C0E90112C0E9032253
:1038F000C0E90532C261FEF753FF002818BFFCF78C
:10390000D1FD04F1280004F11C010B22BDE8104098
:10391000FFF7F4B980B540F2445041F20001C2F221
:103920000000C4F2010100234FF00C0C4FF4E1320F
:1039300080E80E00C0E90333C0E905C3C361FEF7A8
:103940002FFF002808BF80BDBDE88040FCF7AABD5E
:10395000FEE70000B0B540F2480CC2F2000C40F2A5
:1039600044548CF80000100AC2F200048CF80210D3
:103970008CF803008CF804208CF805302046614652
:103980000822FF23FFF7C2FA40F24015C2F20005F9
:10399000204629460422FF23FFF798F8E878002103
:1039A000E23818BF0120E970B0BD0000FEE700005A
:1039B00070470000000000002DE9F0472DED0A8B54
:1039C000B0EE408A20EEA00A28EE082A32EE000A65
:1039D000B1EEC00AB3EE0E2A31EE021A9FED963A0E
:1039E0009FED962AB0EE609AB4EE421AF1EE10FA0C
:1039F000804630EE030A32EE413A20EE004A23EED2
:103A0000035A35EE044AB1EEC4BA03D19FED8CAA35
:103A100047E000BFB4EE421AF1EE10FAB0EEC33A3E
:103A200018DA80EE030A10EE100A02F0F7F841EC03
:103A3000100B01F095F951EC100B9FED790B53EC45
:103A4000102B01F027FE9FED780B53EC102B01F0AB
:103A5000C5FC22E0B4EE421AF1EE10FA21DD83EE4D
:103A6000000A10EE100A02F0D9F841EC100B01F038
:103A700077F951EC100B9FED6A0B53EC102B01F012
:103A800009FE9FED690B53EC102B01F0A7FC9FED95
:103A9000680B53EC102B01F0F9FB01F0C5FB0AEEAB
:103AA000100A9FED680A2BEE0BCA9FED671A9FED77
:103AB000672A3CEE000A30EE010A2BEE021A80EE75
:103AC000010A10EE100A02F0A9F841EC100B00F008
:103AD0009BFF51EC100B9FED520B56EC107B3A46BE
:103AE000334601F0D7FD9FED500B54EC105B2A4696
:103AF000234601F073FC01F097FB9FED550A8146C8
:103B000030EE4C1A81EE000A10EE100A02F086F830
:103B100041EC100B00F078FF51EC100B3A463346A5
:103B200001F0B8FD2A46234601F058FC01F07CFB69
:103B300089EE080A824610EE100A02F06FF841EC96
:103B4000100B01F00DF951EC100B3A46334601F021
:103B5000A1FD2A46234601F041FC01F065FB00EE81
:103B6000100A3CA0B5EE408AF1EE10FAB8BF04305E
:103B700090ED001A9FED392A31EE000AB4EE420AA8
:103B8000F1EE10FA4FF0010044DAB5EE400AF1EE22
:103B900010FA3FDD01EE109A9FED312A3AEE011A3C
:103BA0009FED303A32EE418AB4EE438AF1EE10FADC
:103BB00030DA9FED2D2AB4EE428AF1EE10FA29DDBB
:103BC00002EE10AA9FED293A31EE021A9FED282A43
:103BD00031EE031A9FED273A31EE029AB4EE439A82
:103BE000F1EE10FA16DA9FED241AB4EE419AF1EED6
:103BF00010FA0FDD00F098FA0220B0EE480A00F04B
:103C000093FA0320B0EE490A00F08EFA404600F025
:103C1000BFFA0020BDEC0A8BBDE8F08700BF00BFF3
:103C2000000000000080664000000060FB210940A9
:103C300000000000008056400000BEC2000010439B
:103C40000000000000006146000061C600007043F3
:103C50000000E14600003442000061430000874359
:103C600000808D4300002A4300009642000034C3C8
:103C700000008242000020430000484270B52DED54
:103C8000068B40F20006C2F200060446307F0D4665
:103C9000B0EE418AB0EE609AB0EE40AAFFF78CFE1B
:103CA0004FF4FA70FCF742FE2846FCF73FFE204630
:103CB00000F06EFA86ED0CAA86ED0D9A86ED0E8A5E
:103CC00086F83C4086ED08AA86ED099A86ED0A8AB8
:103CD00086ED04AA86ED059A347786F82C400020FC
:103CE00086ED068ABDEC068B70BD000010B540F273
:103CF0009434C2F2000420460021FEF779F82046F1
:103D00000421FEF775F820460821FEF771F82046D9
:103D10000C21FEF76DF840F20004C2F2000494ECAE
:103D2000030A207BFFF748FE207B94ED000A94ED08
:103D3000011A94ED022A84F82C0084ED080A84ED1F
:103D4000091A84ED0A2A84ED040A84ED051A84ED2B
:103D5000062A10BDF0B581B040F2B016C2F20006DE
:103D60000446307800284BD040F20007C2F200072A
:103D700097ED041A97ED052AD7ED090A97ED080A81
:103D800030EEC22A30EE411A82EE011A0D46B0EE34
:103D9000C11A11EE100AB0F1FF4F0ADC96ED032AAA
:103DA000B0EEC22A31EE421AB5EE401AF1EE10FA28
:103DB00017DB97ED0C1A30EE411AB0EEC12AB7EEC0
:103DC000001AB4EE412AF1EE10FA71DA97ED0D2ADD
:103DD00030EEC22AB0EEC22AB4EE412AF1EE10FA59
:103DE00066DA96F902009FED632A01EE100AB8EE3A
:103DF000C11A21EE021A71EE200AC7ED090A65E028
:103E000040F20000C2F2000090ED042A90ED053A65
:103E100000F1300181EC030A30EE420A30EEC34A71
:103E200084EE005A80ED082A90ED062A80ED093ACA
:103E300080ED0A2A31EE421AB0EEC02AB0EEC43A42
:103E400032EE032AB0EEC13A32EE032AB2EE043A61
:103E500022EE032AB5EE400A4FF0FF3180F83C40D5
:103E600086ED022A86ED035AF1EE10FAC8BF012151
:103E70004FF0000208BF11467170B5EE404A4FF096
:103E8000FF31F1EE10FAC8BF01214FF0FF3008BF3B
:103E90001146B5EE401AB170F1EE10FAC8BF01201C
:103EA0004FF0010108BF1046F0703170022456E057
:103EB00096F901009FED2F2A01EE100AB8EEC11A03
:103EC00021EE021A31EE000A87ED080AB088F17877
:103ED00097ED0A1A421CB280D9B197ED0E2AB7EEBF
:103EE000003A31EE422AB0EEC22AB4EE432AF1EE95
:103EF00010FA0EDB49B202EE101A9FED1E3AB8EE30
:103F0000C22A22EE032A32EE011A023087ED0A1A83
:103F1000B080387FFFF750FDB08896ED021A00EEB2
:103F2000100AB8EE400AB4EE401AF1EE10FA1DDAAB
:103F3000204600F02DF900203070B08007F13000ED
:103F400090EC030A07F1100080EC030A20463C774E
:103F5000FFF732FD2846FCF7E9FC0021002404208D
:103F6000FFF7A2F8204601B0F0BD00BF02242046B2
:103F700001B0F0BDCDCCCC3D45F65C60C0F6000094
:103F800090ED008A90ED019A90ED02AAB0EE480AF9
:103F9000F0EE490AB0EE4A1A01204FF42F71FFF7F4
:103FA000D9FE0028F2D140F20044B0EE480AF0EE0B
:103FB000490AB0EE4A1A01204FF42F71C4F20204EC
:103FC000FFF75CFE40F25505C2F20005297801209A
:103FD00000F0FAF840F26406C2F20006B079032855
:103FE00009D000BF20464FF400510022FCF782FDAB
:103FF000B0790328F6D120464FF400510122FCF796
:1040000079FDF279297800209142B07126D145F6E8
:104010002C60C0F6000090ED008A90ED019A9FEDB3
:10402000410A90ED02AA38EE000AF0EE490AB0EE1D
:104030004A1A01204FF47A71FFF720FEB0EE480AC9
:10404000F0EE490AB0EE4A1A02204FF47A71FFF7F7
:1040500015FE9FED330A3AEE001A45E0931EB3FABF
:1040600083F35B09032A08BF0223022908BF4FF02C
:10407000FF30032908BF6FF00100C11848B281EA80
:10408000E011A1EBE011C9B2022907D1002834DC0C
:1040900045F63C60C0F6000006E000BF00282CDCBE
:1040A00045F64C60C0F6000090ED008A90ED019A54
:1040B0009FED1BBA90ED02AA38EE0B0AF0EE490A0A
:1040C000B0EE4A1A01204FF47A71FFF7D7FDB0EE37
:1040D000480AF0EE490AB0EE4A1A02204FF47A710B
:1040E000FFF7CCFD3AEE0B1AB0EE480AF0EE490AA3
:1040F00002204FF47A71FFF7C1FD45F66C60C0F6FF
:10410000000090EC030A02204FF4FA71FFF7B6FDAD
:1041100020464FF480410022FCF7ECFCF8E700BF9A
:104120000000C8420000C8C20138C1B2022988BFDD
:10413000704712A202EB810191ED001A40F2943116
:10414000B4EE401AF1EE10FAB8BFB0EE410A80EEBC
:10415000010A9FED0D1A9FED0D2AC2F200010968B8
:1041600000F03F0001EB800020EE010A30EE020A71
:10417000BCEEC00A80ED0D0A704700BF0000874307
:1041800000003443000034430000FA440000FA43C6
:1041900009A1012808BF043191ED000A9FED081A1A
:1041A00040F29430C2F2000030EE010A0068BCEE2A
:1041B000C00A80ED100A7047729CF84400007A44EF
:1041C0000000FA43704700008C4640F25B01C2F2E7
:1041D0000001487040F28C50C2F2000004224FF6F9
:1041E000FF7381F802C0FEF791BE0000FCF77ABDB4
:1041F00070B592B006AC20463021FCF7C3F800251C
:1042000043F640000595CDE90355CDE901550095EC
:10421000C4F202000168022641F08051016000688A
:1042200000F080500090009847F200000095C4F222
:104230000000016841F4804101600068A82100F499
:10424000804000900098012006904FF48030079045
:104250004FF480000D9004200E90119020460C9693
:10426000CDE90F16FCF706FF10B172B6FEE700BFEE
:104270000F20CDE901064FF4A05004904FF4805078
:10428000059001A805210395FCF7E4FD10B172B675
:10429000FEE700BF12B070BD4EF68850CEF20000AF
:1042A000016841F4700101607047000080B540F280
:1042B0009430C2F20000FDF7EBFA40F2DC30C2F2BB
:1042C0000000BDE88040FDF7E3BA000010B540F6FD
:1042D000FF3E0368C4F2000E40F2004C7045C4F289
:1042E000010C25DCB0F1804F2FD040F20042C4F227
:1042F0000002904229D040F60002C4F2000290422F
:1043000023D041F6FF72C4F20002904227DC7045D0
:104310003ADCB0F1804F5BD040F20042C4F20002C0
:10432000904255D040F60002C4F200024EE000BFB9
:1043300040F60042C4F20002904206D0604504D02C
:104340000022C4F201029042DBD14A6823F07003DC
:10435000134341F6FF72C4F200029042D7DD43F6E8
:10436000FF72C4F20102904220DC42F20002C4F269
:10437000000290422CD00022C4F20102904227D0C9
:10438000604525D028E000BF40F60042C4F200029C
:1043900090421DD041F60002C4F20002904217D0B4
:1043A00041F60042C4F2000210E000BF44F20002F5
:1043B000C4F2010290420BD044F60002C4F20102A2
:1043C000904205D044F20042C4F20102904203D16F
:1043D000CA6823F44073134323F080024B69D1F879
:1043E00000E08C681A430260C46240F48062C0F846
:1043F00028E0624504BF0969016301214161016947
:10440000C90708BF10BD016921F00101016110BD9C
:1044100040F28C50C2F20000FDF70ABF40F2681073
:10442000C2F20000FDF704BF806B0021C185C1848A
:10443000FDF7FCBE806B01684A6990F84130212B82
:104440002DD112F080022AD00021C184016851E8E8
:10445000031F026821F0C00142E80313DBB10168C9
:1044600051E8031F026821F0C00142E8031393B131
:10447000016851E8031F026821F0C00142E80313FC
:104480004BB1016851E8031F026821F0C00142E806
:104490000313002BDAD1202180F84110016849690B
:1044A00090F84220222A40F07D8011F0400179D01E
:1044B0000021C185016851E8031F026821F4907151
:1044C00042E80313BBB3016851E8031F026821F4FB
:1044D000907142E8031373B3016851E8031F026847
:1044E00021F4907142E803132BB3016851E8031FD4
:1044F000026821F4907142E80313002BDAD11AE02C
:10450000016851E8051F026821F0010142E8051326
:10451000DBB1016851E8051F026821F0010142E8A2
:10452000051393B1016851E8051F026821F00101EC
:1045300042E805134BB1016851E8051F026821F0FC
:10454000010142E80513002BDAD1016B012924D1C6
:10455000016851E8031F026821F0100142E80313CB
:10456000DBB1016851E8031F026821F0100142E845
:10457000031393B1016851E8031F026821F0100191
:1045800042E803134BB1016851E8031F026821F0B0
:10459000100142E80313002BDAD1202180F84210E9
:1045A00000210163416C41F010014164FDF73EBE02
:1045B0000168806B0968C90500F19F800021C185F1
:1045C000016851E8031F026821F4807142E8031377
:1045D000E3B1016851E8031F026821F4807142E8E9
:1045E00003139BB1016851E8031F026821F4807135
:1045F00042E8031353B1016851E8031F026821F434
:10460000807142E80313002BDAD100BF016851E842
:10461000051F026821F0010142E80513BBB30168E0
:1046200051E8051F026821F0010142E8051373B348
:10463000016851E8051F026821F0010142E80513F5
:104640002BB3016851E8051F026821F0010142E81F
:104650000513002BDAD11AE0016851E8051F026842
:1046600021F0400142E80513DBB1016851E8051F64
:10467000026821F0400142E8051393B1016851E856
:10468000051F026821F0400142E805134BB10168A3
:1046900051E8051F026821F0400142E80513002B94
:1046A000DAD1202180F84210016B012925D100BF09
:1046B000016851E8031F026821F0100142E803136A
:1046C000DBB1016851E8031F026821F0100142E8E4
:1046D000031393B1016851E8031F026821F0100130
:1046E00042E803134BB1016851E8031F026821F04F
:1046F000100142E80313002BDAD100214163016B62
:10470000012918BFFEF7B0BB818DFDF78DBD0000FC
:10471000806B01214163016B012918BFFEF7F4BBD7
:10472000818D4908FDF780BD81B090F842102229A3
:1047300021D183680246B3F5805F09D152F8281F62
:1047400052F8183C002B63D003685B680AE000BF96
:1047500052F8281F13B90369002BF5D003685B6872
:1047600003F07F030B70116801311160C18D0139B5
:104770000A04C18502D001B0704700BF0168CA6851
:1047800022F02002CA60CA6822F48072CA604A69B4
:1047900022F001024A61202180F842100021416389
:1047A000026B012A3CD10163016851E8031F0268D2
:1047B00021F0100142E80313DBB1016851E8031F47
:1047C000026821F0100142E8031393B1016851E837
:1047D000031F026821F0100142E803134BB1016886
:1047E00051E8031F026821F0100142E80313002B77
:1047F000DAD101680A68D20606D5002200920A685A
:104800000092496800910099818D01B0FDF70CBDBF
:10481000026852686FF35F2221F8022B8162A5E7DC
:1048200001B0FEF721BB0000B0B50446006804F1FA
:1048300008030ECB0569194325F440552A4302614C
:104840006269E3691143C268194349F20C639A43F0
:104850001143C1604169A26921F4407141F20043F2
:10486000114340F48062C4F201039A42416103D1D2
:10487000FCF7B6FB02E000BFFCF79EFBE1694FF6D8
:104880009C7563681922C0F6FF75B1F5004FA0FB57
:1048900002011FD15A00DB0FFBF7FCFC48F21F514D
:1048A000C5F2EB11A0FB01235A0905F1805302FB6D
:1048B0000300322303EBC000A0FB01014FF4F870AA
:1048C00000EA111000EB0210C1F342110844216804
:1048D0008860B0BD9A009B0FFBF7DCFC48F21F51CB
:1048E000C5F2EB11A0FB01235A0902FB050032239C
:1048F00003EB0010A0FB0101F02000EA511000EBD7
:104900000210C1F34311084421688860B0BD000063
:10491000FEE70000FCF7F4F9FFF76AFCFEF7B0FCD5
:10492000FEF770FCFEF70CFEFEF770FEFEF7D6FEFB
:10493000FEF73CFFFEF75CFDFEF776FDFEF79CFF01
:10494000FEF7C2FFFEF7E6FFFEF730FD40F200443F
:10495000C4F2020404F5406528464FF400410022E9
:10496000FCF7C8F820464FF400510022FCF7C2F8CB
:1049700020464FF480410022FCF7BCF820464FF45B
:1049800000610022FCF7B6F84FF47A70FBF7CEFF17
:1049900028464FF400410122FCF7ACF820464FF4C2
:1049A00000510122FCF7A6F820464FF400610122D5
:1049B000FCF7A0F820464FF480410122FCF79AF85A
:1049C000FFF794F920464FF400610022FCF792F8BB
:1049D000FFF7D2FA03B401984100009850EAC120D1
:1049E00018BF04204A0D18BF40F0010040F2FF72CA
:1049F000B2EB515F08BF40F00200012808BF05205C
:104A000002B070470000000010B5B94A2DED020B4E
:104A10002DED0C8B82B00F9921F000409FEDB6CBAD
:104A200090422CDBA0F140530E9AA3F17F631A430E
:104A30000FD0B349884202DC16D10E98A0B19DED8B
:104A40000E0B02B0BDEC0C8B02B0BDE8104000F0C4
:104A50006FBB0029C1BF9FEDAC0B02B0BDEC0C8B4E
:104A600002B0C8BF10BD16E00120FBF7BAFC02B0CF
:104A7000BDEC0C8B02B0BDE8104000F065BBA44A51
:104A80009FEDA59B9FEDA6AB90425EDAA6499FEDF8
:104A9000A8CB814208DBB0EE4C0AF0EE6C0A02B003
:104AA000BDEC0C8B02B010BD9DED0E0B53EC102B2A
:104AB00051EC100B00F0EEFD41EC180B9E48062166
:104AC000B0EE480AF0EE680A784400F0B5FA53EC0C
:104AD000182B51EC100B00F0DDFD41EC1B0B97483F
:104AE000B0EE480AF0EE680A0421784400F0A4FA17
:104AF00053EC182B51EC100B00F0CCFD53EC192BA0
:104B000000F0C4FB41EC100B51EC1B0B53EC102BD1
:104B100000F064FC41EC100B53EC102B9DED0E0BE0
:104B200051EC100B00F0B6FD53EC1A2B00F0B0FE68
:104B30009DED0E1B53EC112B00F0AAFE53EC1C2B29
:104B400000F0A6FE41EC100BA9E79FED7D8B9FEDD9
:104B50007EBB9DED0E0B002953EC192B51EC100B75
:104B600052DA00F093FB53EC182B00F093FD41EC6C
:104B7000180B77480621B0EE480AF0EE680A784430
:104B800000F05AFA53EC182B51EC100B00F082FD98
:104B900041EC1D0B6F48B0EE480AF0EE680A0421A4
:104BA000784400F049FA53EC182B51EC100B00F04C
:104BB00071FD53EC192B00F069FB41EC190B51EC22
:104BC000180B00F0EDFA41EC180B53EC192B51ECDB
:104BD0001D0B00F003FC53EC182B00F05BFD53ECB5
:104BE0001A2B00F02DFF41EC100B51EC180B53EC7D
:104BF000102B00F04BFB53EC1B2B00F04BFD53EC48
:104C00001C2B00F045FE6DE000F042FE53EC182B2B
:104C100000F040FD41EC180B00F0C2FA41EC1A0B19
:104C200000208DED00AB00909DED000B51EC1A0BB8
:104C300053EC102B00F02AFB9DED000B41EC1C0BFC
:104C400053EC102B51EC100B00F024FD53EC182BFF
:104C500000F01EFE53EC1C2B00F0C0FB41EC1C0BC3
:104C60003D48B0EE480AF0EE680A0621784400F0AC
:104C7000E3F953EC182B51EC100B00F00BFD41EC59
:104C80001D0B3648B0EE480AF0EE680A042178445D
:104C900000F0D2F953EC182B51EC100B00F0FAFC99
:104CA00053EC192B00F0F2FA41EC100B51EC1D0BF8
:104CB00053EC102B00F092FB53EC1A2B00F0EAFCA3
:104CC00053EC1C2B00F0E2FA41EC100B53EC102BD0
:104CD0009DED000B51EC100B00F0D8FA53EC1B2BA0
:104CE00000F0D8FC41EC100BD9E6000000000000F9
:104CF0000000F03F00000000182D4454FB21094043
:104D00000000F07F00000000000000000000000034
:104D10000000E03F00000000000000000000F03F45
:104D2000075C143326A6913C0000603C00000000A4
:104D3000182D4454FB21F93F5C1200006A12000058
:104D4000000000000000E03F000000000000004004
:104D5000A6110000B4110000B8100000C610000039
:104D600070B59B482DED020B2DED068B079D25F0B0
:104D70000044A04218DC9748844202DC0AD106981D
:104D800040B19DED060BBDEC068B02B0BDE8704056
:104D900000F0CEB9002DCCBF9FED8F0B9FED900B97
:104DA000BDEC068B02B070BD8F48A04215DD8F4868
:104DB000A042D8BF4FF0FF3458DD9DED060B51ECFB
:104DC000100BFFF707FE042808BF00F0CDF99DED9A
:104DD000060BBDEC068B02B070BD9DED060B51ECD1
:104DE000100B00F0D1F9CDE9060181489FED828BCF
:104DF000A0423CDD8248A0421FDD00249FED82AB33
:104E00009DED060B53EC1A2B51EC100B00F03EFA03
:104E10009DED060B41EC190B53EC1A2B51EC100BCA
:104E200000F038FC53EC182B00F00AFE53EC192B61
:104E300000F0D4FACDE9060149E09DED060B01240E
:104E400053EC182B51EC100B00F020FA9DED060BE3
:104E500041EC190B53EC182B51EC100B00F0F0FD4A
:104E600053EC192B00F0BAFACDE906012FE068489F
:104E7000A0421FDD02249FED689B9DED060B53ECC5
:104E8000192B51EC100B00F005FC53EC182B00F023
:104E9000FDF99DED060B41EC180B53EC192B51EC71
:104EA000100B00F0CDFD53EC182B00F097FACDE974
:104EB00006010CE09DED060B032453EC102B9FED37
:104EC000580B51EC100B00F089FACDE906019DED6D
:104ED000060B53EC102B51EC100B00F0DBFB41ECFC
:104EE000180B53EC182B00F0D5FB41EC190B4E4876
:104EF0000621B0EE490AF0EE690A784400F09CF809
:104F000053EC182B51EC100B00F0C4FB41EC180BC8
:104F10004648B0EE490AF0EE690A0521784400F0EF
:104F20008BF853EC192B51EC100B00F0B3FB41EC58
:104F3000100B51EC180B53EC102B002C0EDA00F078
:104F4000A5F99DED061B53EC112B00F0A3FB9DED85
:104F5000061B53EC112B00F09BFC35E000F096F99A
:104F60009DED061B53EC112B00F094FB41EC100B54
:104F70002F48784400EBC40090ED001B51EC100B5F
:104F800053EC112B00F05CFD9DED061B53EC112B37
:104F900000F056FD41EC100B2648784400EBC400AD
:104FA00090ED001B51EC100B53EC112B00F070FC3A
:104FB00041EC100B002DA2BFBDEC068B02B070BD02
:104FC00051EC100B00F023F941EC100B01E700004D
:104FD000000010440000F07F182D4454FB21F93FDD
:104FE000182D4454FB21F9BF0000DC3F0000203E97
:104FF0000000F33F00000000000000000000F03F50
:105000000000E63F0000000000000000000000403B
:105010000080034000000000000000000000F83F96
:10502000000000000000F0BFE20E0000980E00003B
:10503000220E0000DA0D000070B504462DED028B43
:105040004D1E00EBC500B0EE408AF0EE608A90ED98
:10505000000B35F0060017D053EC182B51EC100B59
:1050600000F018FB41EC100B6D1E04EBC50090ED39
:10507000001B51EC100B53EC112B00F007F941EC25
:10508000100B35F00600E7D1022D36D0042D1CD0D0
:10509000062D1CBFBDEC028B70BD53EC182B51ECE0
:1050A000100B00F0F7FA94ED0A1B53EC112B00F0F3
:1050B000EDF853EC182B00F0EDFA94ED081B53ECCF
:1050C000112B00F0E3F841EC100B53EC182B51ECD2
:1050D000100B00F0DFFA94ED061B53EC112B00F0DF
:1050E000D5F853EC182B00F0D5FA94ED040B53ECE3
:1050F000102B00F0CBF841EC100B53EC182B51ECBB
:10510000100B00F0C7FA94ED021B53EC112B00F0CA
:10511000BDF853EC182B00F0BDFA94ED001B53ECD6
:10512000112B00F0B3F8BDEC028B41EC100B70BDFD
:1051300010B553EC102B51EC100B00F0A7F841EC1C
:10514000100B10BD000000009FED050B10B553ECD7
:10515000102B51EC100B00F041F941EC100B10BD7D
:1051600000000000000000009FED050B10B553EC9F
:10517000102B51EC100B00F08DFA41EC100B10BD10
:10518000000000000000001082B0CDE9000121F015
:10519000004001909DED000B02B051EC100B7047E8
:1051A00000B52DED048B83B041EC190B00F07CFBB6
:1051B00041EC180B18EE100A18EE901A8DED008BCA
:1051C000002818BF0120084320F00040C0F17F6094
:1051D00000F1E040C00F14D019EE101A19EE900A39
:1051E0008DED009B002918BF0121084320F00040ED
:1051F000C0F17F6000F1E040C00F04BF0120FBF769
:10520000F0F851EC180B03B0BDEC048B00BD81F03D
:105210000041704780F00040704721F00041704726
:1052200020F000407047000021F0004201F00043F0
:10523000A2F16052B2F5801F28BFD2F17F6C0BD96A
:105240005FEA001C43EAC20242EB507018BF70478D
:1052500028BF20F001007047B2F5801FBCBF184680
:1052600070474FEA410C1CF5001F02D2084600F0BF
:1052700053BD70B500F0B8FA00000089FFF7F6BF23
:105280004FF00040A0F580007047000010B591EA93
:10529000030F48BF83F0004300F1DA83841A71EBF7
:1052A000030C05D2121943EB0C03001B61EB0C013C
:1052B0004FEA1154A4EB135CDFF81CE11EEA430F24
:1052C00018BF9EEA445F00F0748021EA045123EA8B
:1052D0000E0343F48013DCF1200E32D322FA0CFECD
:1052E00010EB0E0023FA0CFE41EB0E01CCF1200E68
:1052F00003FA0EFE10EB0E00CCF1200E51F100016E
:10530000B1F5801F32D201EB045112FA0EF2BDE862
:10531000104058BF7047401C38BF5FEA420218BFB8
:105320007047002814BF20F0010041F100014FEA4E
:10533000410313F5001F38BF7047A1F1C04100F0D1
:10534000A1BA012A43EB0302ACF1200CDCF11F0EE1
:1053500032BF4FF0000E23FA0CF310EB030041EBC9
:105360000451B4EB115FD0D0A1EB045101F58011D1
:10537000490801EB04515FEA30000ED350F1000000
:1053800038BF12FA0EFE08D1BDE81040C9E7401C34
:1053900038BF5FEA4202CAD1C3E7BDE810404FEA16
:1053A000410313F5001F38BF7047A1F1C04100F061
:1053B00069BA9EEA445F08D011EA5E0FBDE810406A
:1053C00004BF01F0004100207047BDE8104070B5F7
:1053D00000F00AFA64FBBE3E0000E0FF2DE9C04188
:1053E00030B4DFF8A8C23CEA111418BF3CEA131429
:1053F00000F0F0801CEA111481EA030544EAD57438
:1054000018BF1CEA131500F0CB80A4EB050404F1CF
:105410007F7404F500344FF0004545EAC12145EAA8
:10542000C32341EA505143EA52534FEAC0204FEAA6
:10543000C222994208BF904200F0A0804FEA136553
:105440000FF24816765D4FEA134506FB05F7C7F1E4
:10545000807706FB07F74FEAD737A7FB036876424A
:10546000A7FB06CEC8F5803838BFA8F1010807FBB6
:1054700008E6A6FB028C4FF0000EE6FB03CED8F147
:1054800000086FEA0C0C5CF1000C6FEA0E0E4EF196
:10549000004EA6FB0C584FF00007E6FB0E87A1FB61
:1054A00008C6A0FB07CE16EB0E064FF0000545F12F
:1054B0000005E1FB076515F1E04E7EBFA4F58034E1
:1054C0005FEA46066D4116F1800745F100054FEA97
:1054D000172747EA05674FEA15254FEA0666A6F142
:1054E000DE46B6F1805F20D9384605EBC47124F062
:1054F000010C01EB0C11BCF1FE6F02D8F0BCBDE851
:10550000008124425CBF01F5801E9EEAC47F02D464
:10551000F0BCBDE80081244200F13980A1F1C04116
:10552000F0BCBDE8004100F0ADB94FEAD02040EA40
:1055300041504FEAD1214FEAD22242EA43524FEA88
:10554000D323A7FB028607FB036605FB02661EEA60
:105550000E0F58BFA6EB0056B6EB00564FEA520EA0
:105560004EEAC37E18EB0E0E56EB530EBCD518EB6D
:1055700002085E417F1C55F10005B5E74FF4801528
:105580004FF000074FF000064FF00008ACE701F1C4
:10559000C04101F000414FF00000F0BCBDE80081C7
:1055A0000CEA131511EA0C1F00D00CE013EA0C1FD3
:1055B00000F025804FF0000081EA030101F0004176
:1055C000F0BCBDE80081F0BCBDE8004181EA030108
:1055D00000F058B9F0BCBDE8004170B500F004F926
:1055E000097EFC3E00F007B84FF0000081EA03019D
:1055F00001F00041704781EA030100F043B9F0BCBB
:10560000BDE8004122494FF000007047FFFDFBF963
:10561000F7F5F4F2F0EEEDEBE9E8E6E4E3E1E0DEE5
:10562000DDDBDAD8D7D5D4D3D1D0CFCDCCCBCAC857
:10563000C7C6C5C4C2C1C0BFBEBDBCBBBAB9B8B77E
:10564000B6B5B4B3B2B1B0AFAEADACABAAA9A8A871
:10565000A7A6A5A4A3A3A2A1A09F9F9E9D9C9C9B3F
:105660009A999998979796959594939392919190EA
:105670008F8F8E8E8D8C8C8B8B8A8989888887877B
:105680008685858484838382828181800000FF07F0
:105690000000F87F70B5DFF848C11CEA111E1EBF7C
:1056A0001CEA13159EEA0C0F95EA0C0F00F06F80B0
:1056B00081EA03044EEAD47EAE4421EA4C1123EA87
:1056C0004C1341F4801143F48013AEF17F7EA1FBB3
:1056D000024CA0FB0365361955EB0C05A1FB034CEE
:1056E0004CF10003A0FB021C16EB0C06654153F1C4
:1056F0000003094218BF46F0010613F4007F0BD1E6
:105700004FEA03314FEA053041EA155140EA16509D
:1057100034036FF003020AE04FEAC3214FEAC520C9
:1057200041EA555140EA5650F4026FF0020202EB92
:105730002E4201EB025585EACE710AD05FEA440C95
:1057400018BF24F0004450F1000041F1000120EAAC
:10575000D47040F2FE7C624500D270BDA84214BFF6
:105760004FF080444FF04044002E08BF0024BEF1AB
:10577000806FA8BFA1F1C041BDE8704080F2828077
:1057800001F1C04101F000414FF0000070470CEA08
:1057900013159EEA0C0F18BF95EA0C0F06D081EA8C
:1057A000030E4FF000000EF0004170BD00F01CF839
:1057B0008900013E00F007B800F009B84FEA430C39
:1057C0005FEA5C5C08D081EA030100F05BB84FEA55
:1057D000410C5FEA5C5CF6D102494FF00000704773
:1057E0000000FF070000F87F0EF1020E2EF0030EFE
:1057F0005EF8046B364205D4012A43EB030515F528
:10580000001F12D8012841EB010C1CF5001F0CD819
:105810000ED14FEAD17C0CEB4C0C0CF1020C15F5BF
:10582000001F08BF4CEBD37C04E04FF0080C01E0F4
:105830004FEAD37C0CEB4C0526FA05F606F007067A
:10584000B6F1040C06D20EEB860CBDE870404CF0AD
:10585000010C6047DFE80CF0090B02024FF0004139
:10586000A1F500214FF0000070BD19461046012837
:1058700051EB010418BFD4F5001484BF002001F0DF
:10588000004170BD0808A0F500114FEA31017047D2
:1058900010B591EA030F81F000413FF5FFAC83F0B2
:1058A000004300F0D5B800002DE9F04101F5801C5F
:1058B000BCF5001FC0F2A9804FEA115C21EA0C512F
:1058C00041F480110CF1FD0C5FEA5C0C0CF5C07C1E
:1058D00001D340004941890241EA905187022EA438
:1058E0008E0EA45D0A0C04FB04F602FB06F6C6F15C
:1058F0004046A4FB0662F60D46EA422606FB06F485
:10590000A4FB01235242C3F1404338BF5B1EA6FBF8
:1059100002420024E6FB0324D20B42EA4446A6FBE3
:105920000623A1FB02E2A3FB07E4E3FB614264421E
:10593000C2F1404E38BFAEF1010EA6FB04234FF07A
:105940000002E6FB0E32A2FB03463400E2FB626477
:10595000A1FB06E6A4FB07E8E4FB61687642C8F118
:10596000405838BFA8F10108A2FB06E4A3FB08E5F4
:10597000E2FB6854A1FB05E6A7FB04E8E1FB6486B3
:1059800018F1200556F10006A80940EA8660B10921
:10599000A8F11B0808F03F08B8F10A0F1CD901EB69
:1059A0000C51BDE8F08100BFFCF5EEE8E2DDD8D394
:1059B000CFCBC7C3C0BDB9B6B4B1AEACA9A7A5A380
:1059C000A19F9D9B9A9896959392908F8D8C8B8991
:1059D0008887868584838281A0FB006800FB01F2B2
:1059E00008EB4208B8EB872807D5341858EB0104B8
:1059F000D5D5401C51F10001D1E7341A78EB0104F0
:105A0000CDD4401E71F10001C9E75FEA4C0C5FEA9A
:105A10009C5C0DD105D301F000414FF00000BDE8C2
:105A2000F081BDE8F04170B5FFF7DEFE6DDBFFBE33
:105A3000BDE8F04101494FF0000070470000F87FD9
:105A400010B591EA030F48BF83F000433FF526AC41
:105A5000841A71EB030C07D28CF0004C121943EB43
:105A60000C03001B61EB0C014FEA1154A4EB135C17
:105A7000DFF8A4E11EEA430F18BF9EEA445F00F07E
:105A8000B48021EA045123EA6E035242C3EB6E0351
:105A900038BF5B1EDCF1200E25D322FA0CFE10EB82
:105AA0000E0043FA0CFE41EB0E01CCF1200E03FA7E
:105AB0000EFE10EB0E00CCF1200E51F1000129D4A6
:105AC00001EB045112FA0EF2BDE8104058BF7047C6
:105AD000401C1CBFB2F1004F704700280CBF491C8E
