:020000040800F2
:10000000D01500209D010008C1470008413E0008AE
:10001000F546000891080008DD57000800000000C0
:100020000000000000000000000000008D500008EB
:10003000BD0C000800000000954A0008B9500008F7
:10004000B7010008B7010008B7010008B7010008B0
:10005000B7010008B7010008B7010008B7010008A0
:10006000B7010008B7010008B70100088D0C0008AF
:10007000B7010008990C0008B7010008B701000893
:10008000B7010008B7010008B7010008B701000870
:10009000B7010008B7010008B7010008B701000860
:1000A000B701000879510008B7010008B70100083E
:1000B000B7010008B7010008B7010008B701000840
:1000C000B7010008B7010008B7010008B701000830
:1000D000B7010008B7010008B7010008B701000820
:1000E000B7010008B7010008B7010008B701000810
:1000F000B7010008B7010008B7010008B701000800
:10010000B7010008B7010008B7010008B7010008EF
:10011000DD520008E9520008B7010008B7010008E5
:10012000B7010008B7010008A50C0008B7010008D6
:10013000B7010008B7010008B7010008B7010008BF
:10014000B7010008B7010008B7010008B7010008AF
:10015000B7010008B7010008B10C0008B70100089A
:10016000B7010008B7010008B7010008B70100088F
:10017000B7010008B7010008B7010008000000003F
:10018000B7010008B7010008DFF80CD000F016FB3B
:1001900000480047E1570008D01500200648804776
:1001A00006480047FEE7FEE7FEE7FEE7FEE7FEE75C
:1001B000FEE7FEE7FEE7FEE765510008890100085B
:1001C0002DE9F05F0546002092469B46884606468C
:1001D000814640241BE0284641464746224600F01F
:1001E00036FA53465A46C01A914110D31146184662
:1001F000224600F01DFA2D1A67EB01084F462246F1
:100200000120002100F014FA17EB00094E41201ED6
:10021000A4F10104DFDC484631462A464346BDE8E6
:10022000F09FD2B201E000F8012B491EFBD27047CB
:100230000022F6E710B513460A4604461946FFF7B2
:10024000F0FF204610BD2DE9FE4F804681EA0300F5
:10025000C00F0C46009021F0004123F00045B8EBA0
:100260000200A94105D24046214690461C460B4655
:10027000024623F00040104347D0270DC7F30A0081
:10028000C3F30A510290401A019040286BDAC3F37D
:10029000130040F4801B0098924620B10023D2EB5B
:1002A000030A63EB0B0B01985946C0F1400250461C
:1002B00000F0BEF906460D4650465946019A00F038
:1002C000D6F910EB08006141002487EA115284EA54
:1002D000E7731A4340D0009A62B3019A012A4FEAA9
:1002E000075215DC001B61EB02014FF0004202EAED
:1002F0000752CDE90042001C41F5801132462B46E1
:1003000000F00DFA03B0BDE8F08F40462146F9E752
:10031000001B61EB0201001C41F5801300185B41DA
:100320002018A2F5001747EB030140EAD570B61973
:100330006D4111E06D084FEA360645EAC0754FEA97
:100340000752001B61EB0201001C41F580114908B6
:100350004FEA30000019514132462B4603B0BDE848
:10036000F04F00F0CDB90098012240000023D0EBFF
:10037000020263EBE073009821464FEAE074B8EBA9
:10038000000061EB0401E9E783F000435BE781F0E3
:10039000004158E72DE9FE4F81EA030404F00044D0
:1003A00021F0004100944FF0000B23F0004350EA8D
:1003B00001045ED052EA03045BD0C3F30A54C1F3D4
:1003C0000A552C44A4F2F3340194A0FB0254C1F367
:1003D000130141F48011C3F3130343F4801301FBB1
:1003E000024400FB034E840A970A44EA815447EA18
:1003F0008357A4FB076802958D0A05FB07854FEA22
:10040000932C04FB0C542705029D4FEA065847EA3B
:100410001637B5EB08056EEB070C870E920E47EA10
:10042000811742EA8312A7FB0201B6EB0B0164EBD2
:1004300000042B0D43EA0C335E1844EB1C50DA46E3
:100440005146E7FB0201C5F313044FEA0B3343EABD
:1004500014534FEA0432019C43EA0603A4F10C044E
:100460000294009CCDE900B400F059F903B0BDE856
:10047000F08F00200146F9E72DE9F04D81EA0304F1
:1004800004F0004B21F0004514464FF0000A23F021
:10049000004150EA050220D054EA01021DD0C5F304
:1004A0000A570246C5F31303C1F31300C1F30A56FA
:1004B00040F4801543F48013A7EB0608101BD646C2
:1004C00008F2FD3873EB050002D308F1010801E0E2
:1004D00092185B41B8F1000F03DA00200146BDE835
:1004E000F08D00204FF48011064684460EE0171B65
:1004F00073EB050705D3121B63EB050306434CEAB8
:10050000010C49084FEA300092185B4150EA01079C
:10051000EDD152EA030012D082EA040083EA050119
:10052000084305D0101BAB4106D20122002306E090
:1005300000224FF0004302E06FF0010253101AEB6B
:1005400006004CEB085110EB0A0041EB0B01BDE833
:10055000F04D00F0D5B80EB540F2334102910021C4
:10056000CDE900110A460B4600F0D9F803B000BDF2
:10057000C1F30A5210B5C1F3130140F2FF3341F445
:1005800080119A4201DA002010BD40F233439A42B2
:10059000A2F2334203DC524200F059F810BD904001
:1005A00010BDC1F30A52C1F3130140F2FF3341F40D
:1005B00080119A4202DA00200146704740F233432C
:1005C0009A42A2F2334202DC524200F040B800F0FC
:1005D0002FB800F0004230F000400AD0C10D01F504
:1005E0006071C0F3160042EA0151C208400711438E
:1005F000704700200146704701F0004330B421F0FD
:10060000004150EA010206D00A0DA2F56072C1F362
:100610001301002A02DC30BC00207047440F44EA7A
:10062000C104C100E01830BC00EBC25000F031B88A
:10063000202A04DB203A00FA02F1002070479140A2
:10064000C2F1200320FA03F3194390407047202A97
:1006500004DB203A21FA02F00021704721FA02F36C
:10066000D040C2F120029140084319467047202A29
:1006700006DBCB17203A41FA02F043EAE07306E0CA
:1006800041FA02F3D040C2F12002914008431946DA
:1006900070470029A8BF7047401C490008BF20F0E0
:1006A0000100704710B4B0FA80FC00FA0CF050EA78
:1006B000010404BF10BC704749B1CCF1200421FAF9
:1006C00004F411FA0CF118BF012121430843A3EBF4
:1006D0000C01CB1D4FEA00614FEA102042BF002001
:1006E00010BC704700EBC35010440029A4BF10BCDD
:1006F0007047401C490008BF20F0010010BC704743
:1007000010B5141E73F1000408DA401C41F1000119
:1007100092185B411A4301D120F0010010BD2DE970
:10072000F04D92469B4611B1B1FA81F202E0B0FA67
:1007300080F220329046FFF77BFF04460F4640EAE6
:100740000A0041EA0B0153465A46084313D01146AA
:1007500053EA010019D0C8F140025046FFF777FF75
:1007600005460E46504659464246FFF761FF08438C
:1007700005D0012004E020463946BDE8F08D002078
:10078000054346EAE0762C4337430A986305E40ABA
:10079000A0EB08000022FD0A44EA47540A3002D5C3
:1007A00000200146E9E7010510196941DDE9084526
:1007B00000196941BDE8F04DA2E700001CB50948E9
:1007C0000090094801900546009C06E0E06840F072
:1007D000010394E8070098471034AC42F6D3FFF7C2
:1007E000D7FC000014620008346200082DE9F04DC7
:1007F00000231A461B1A8A4103DB00200146BDE88C
:10080000F08DC1F30A52C1F3130141F480154FF08A
:10081000000BD10702D100186D41521E002704467B
:1008200040F2FF11384601EB620A3E46804602461E
:1008300000204FF48011FFF70AFFC2197141BB1865
:1008400046EB0100B4EB030C75EB000C04D3E41A87
:1008500065EB000517460E46241908F101006D41AD
:1008600080463428E3DDF91946EB0600091BA84150
:1008700003D24FF0FF32134601E0002213461BEB78
:10088000070046EB0A51BDE8F04DFFF739BF000005
:10089000FEE7000040F24011C2F200010A89B32ACB
:1008A00010DC1AB35A2A3CD191ED012A91ED001ABD
:1008B000B1EE422AB1EE604A82B24FF05A0CB0EE6D
:1008C000403A2EE0B42A1DD04FF6A6739A4228D1A2
:1008D00091ED001A91ED012AB1EE411AB1EE403AC4
:1008E00082B24FF6A67CB0EE604A1AE091ED002A83
:1008F00091ED011A82B24FF0000CB0EE603AB0EE0A
:10090000404A0EE091ED001A91ED013AB1EE412A14
:10091000B1EE431AB1EE404AB1EE603A82B24FF006
:10092000B40C80B584B081EC020A088114EE100A80
:1009300013EE101A12EE103ACDF804C08DED001A25
:1009400000F002F804B080BD70B500EE100A02EEAF
:10095000103A9DED043A30EE422A9FED560A01EE20
:10096000101AB0EEC24A9FED575A24EE004A31EEFB
:10097000431AB5EE402AB0EEC13AF1EE10FAB5EEE8
:10098000401A9FED4E1A34EE056A14469FED4A0A4E
:100990004FF0FF32BDEEC66A4FF0FF31A8BF012213
:1009A000F1EE10FA9FED462AB4EE414A16EE100A17
:1009B0009FED456A23EE000AA8BF0121F1EE10FA6F
:1009C0004FF00003B4EE414A40F2900624EE023AA2
:1009D000B8BF0123F1EE10FAB0EE464AB4EE410A78
:1009E000C2F20006B1EEC33A20EE027ABCBFB0EE0E
:1009F000434A0020F1EE10FAB4EE410A059D31722F
:100A00004FF00001B1EEC77A84EE023AF271B8BF3E
:100A10000121F1EE10FAB8BFB0EE476A86EE021A75
:100A200030EE050ABDEEC00A337010EE103A86EDC6
:100A30000B4A7061BDEEC32A86ED032A12EE102A1E
:100A4000B8BF00237170BDEEC10A10EE101A00EBA2
:100A5000420003EB410186ED0C6AB36186ED040AA6
:100A600088427162C8BF014630620120B07040F216
:100A70008830C2F20000B16201F03AFCB07801287F
:100A800006D100BF0A2000F071FDB0780128F9D02E
:100A900003F07AFA142000F069FD85EA04000004EE
:100AA00003D028B221B200F013F8BDE8704003F083
:100AB0006BBA00BFCDCC2C409A993940F9AD78493A
:100AC000D2537B40F9AD78C90000FA440000000021
:100AD0002DE9F04381B02DED028B82B088460146AE
:100AE000002848BF41428AB242F683535A43520D0E
:100AF000B42302FB1312012392B24243B2F1FF3F2F
:100B0000C8BF4FF0FF33B42998BF0346A8EB0309D1
:100B100000EE109AB8EEC00AB0EEC08ABCEEC80A69
:100B200010EE100AFFF717FD9FED530B53EC102B3F
:100B3000FFF7A2FC9FED520B53EC102BFFF72AFCA2
:100B4000FFF72FFD9FED500A0546B4EE408AF1EE07
:100B500010FA0E4642DD4FF4FA77B9F1FF3FC8BFF5
:100B60004FF47A77012000213A461023CDE9005650
:100B700003F0C2FD4FF47A74B9F1FF3FC8BF4FF4E0
:100B8000FA740220002122461023CDE9005603F01A
:100B9000B3FD032000213A461023CDE9005603F0AF
:100BA000ABFD0420002122461023CDE9005603F0BE
:100BB000A3FD03F0DDF940F2F04440F24C05C2F22F
:100BC0000004C2F2000500BF204629460422FF238C
:100BD00002F026FE0028F7D13CE000BF6FEA0900D2
:100BE000C40F012021464FF47A721023CDE900563C
:100BF00003F082FD4FEAD977022039464FF47A722A
:100C00001023CDE9005603F077FD032021464FF471
:100C10007A721023CDE9005603F06EFD04203946A8
:100C20004FF47A721023CDE9005603F065FD03F00E
:100C30009FF940F2F04440F24C05C2F20004C2F2C7
:100C4000000500BF204629460422FF2302F0E8FDEC
:100C50000028F7D103F098F900EE108A40F20C104A
:100C6000B8EEC00AC2F2000080ED000A02B0BDEC8E
:100C7000028B01B0BDE8F083000000000080564008
:100C8000000000000030B1400000344340F2CC10BE
:100C9000C2F2000000F084BA40F26C10C2F2000010
:100CA00000F07EBA40F22C20C2F2000000F078BAC8
:100CB00040F28C20C2F2000000F072BA70470000CF
:100CC00072B600BFFEE70000F0B581B02DED068BD7
:100CD00084B00238032800F28B81DFE810F00500B1
:100CE00007015700C10000BF0220022104F0D2F921
:100CF00046F2FC10C0F6000090ED008A90ED019ADB
:100D000090ED02AAB0EE480AF0EE490AB0EE4A1A97
:100D100003204FF42F714FF4FA7204F01BF840F2E5
:100D20008104C2F200040020A0710120012103F01F
:100D300089F8A07940F24015C2F20005C0B200BFA8
:100D4000032800F0ED800128FAD122796379A07898
:100D5000E178002A18BF4042012B18BF49422E8972
:100D600000EE100AAE8205F10C02B8EEC00A01EEE8
:100D7000101A07CAB8EEC11A10EE103A01968DED9E
:100D8000001AFFF7E1FD0020A071D7E70420012140
:100D900004F080F940F28104C2F20004607900217D
:100DA0000328A1710ED103F0EFF840F21010C2F247
:100DB0000000006840F20C11C2F20001086017E167
:100DC000032DF0D000F01CF96579012DF8D1A07841
:100DD000E278217900EB800002EB4006002501203B
:100DE0000A220023002918BF0121CDE9006503F084
:100DF00083FCA0782179E278B1FA81F100EB8000E0
:100E0000490902EB400602200A220023CDE90065D1
:100E100003F072FCA078E278217900EB800002EB0D
:100E2000400603200A220023002918BF0121CDE932
:100E3000006503F061FCA0782179E278B1FA81F1D4
:100E400000EB8000490902EB400604200A2200233F
:100E5000CDE9006503F050FC03F08AF86571AFE757
:100E60000520012104F016F940F2810440F24016F9
:100E7000C2F200040027C2F20006A77103E000BF1F
:100E8000032800F0B5800A2000F070FBA07901284B
:100E9000F6D10120012102F0D5FF0520002104F048
:100EA000F9F862792379A078E178012A18BF4942DC
:100EB000012B18BF4042358900EE101AB58206F1A9
:100EC0000C02B8EEC00A01EE100A07CAB8EEC11A49
:100ED00010EE103A01958DED001AFFF735FD052053
:100EE0000121A77104F0D6F8A079C9E703200121F8
:100EF00004F0D0F846F2FC10C0F6000090EC030AB3
:100F000003204FF42F714FF4FA7203F023FF40F2E5
:100F10008100C2F200000021817100BFFEE700BF26
:100F200001200021002602F08DFF9FED340AF0EE33
:100F3000490A3AEE001AB0EE480A03204FF42F7126
:100F40004FF4FA72A67103F005FFA07901280ED0C4
:100F50000120012102F076FF4FF4967000F006FBAD
:100F60000220022104F096F8A0790128F0D1012096
:100F7000002102F067FF01200121A67102F062FF4B
:100F8000A079C0B203282BD00128FBD1A078092872
:100F90009CBF0A20A070E17809299CBF0A20A0709C
:100FA00022796379002A18BF4042012B18BF4942B9
:100FB0002E8900EE100AAE8205F10C02B8EEC00ACE
:100FC00001EE101A07CAB8EEC11A10EE103A0196D7
:100FD0008DED001AFFF7B8FC0020A071D1E700BF2B
:100FE0000120002102F02EFF0920022104F052F816
:100FF000002004B0BDEC068B01B0F0BD0000C8C2FB
:1010000080B540F28000C2F20000017840F2041086
:101010000C29C2F2000003D190ED080A2DE000BFB8
:1010200049F69C1241F69A1C11FB0C22120C02EBA1
:101030008202A1EB4202063292B200F12F0313F8B2
:1010400002E048F2020211FB0C22120C02EB8202B7
:10105000A1EB4201053189B2595C9FED1F1A41EAAB
:101060000E2100EE101AB8EEC00A9FED1C2A20EEE9
:10107000010A20EE020A80ED080A90ED041A9FEDA5
:10108000172A30EE410AB4EE420AF1EE10FA80ED72
:10109000070A09DA9FED141AB4EE410AF1EE10FACC
:1010A00008DC9FED101A01E09FED0D1A30EE010AE9
:1010B00080ED070A90ED031A90ED022A30EE010A46
:1010C000416980ED030A80ED040A30EE420A816135
:1010D00080ED050A80BD00BF0000003800003443E9
:1010E0000000B4C30000B443000034C370B5866D83
:1010F000044600F025FB94F83510022928D1054656
:101100002068216C026822F016020260426922F017
:101110008002426109B9A16C19B1016821F008018E
:101120000160016821F00101016000BF20680068D2
:10113000C00715D000F004FB401B0628F6D3202082
:101140006065032084F83500002184F8341070BDF8
:10115000802060650120002184F8341070BD00BF3C
:10116000E06D3F2101FA00F0B060012084F8350005
:101170000020002184F8341070BD000090F8351074
:10118000022909D1052180F835100068016821F095
:1011900001010160002070478021416501207047F6
:1011A000F0B581B00021009140F27C01C2F2000153
:1011B0000B68D0E9166148F2B51537680822C1F608
:1011C0004E358A403A42A3FB05350CD003681C68B3
:1011D000640708D51C6824F004041C60B260426DEA
:1011E00042F00102426501228A403A4208D0036877
:1011F0005B691B0604D5B260426D42F00202426593
:1012000004228A403A4208D003681B689B0704D531
:10121000B260426D42F00402426510228A403A42B6
:1012200019D001680B681B0715D5B2600B680A68F6
:101230005B0309D4D20509D40A6822F008020A60C7
:10124000016C29B907E000BF110341D4016C11B151
:10125000044688472046C26D202101FA02F33B4232
:1012600043D001680F68FF063FD5B36090F8357032
:101270000B68052F1CD123F016030B604B6923F07C
:1012800080034B61036C0BB9836C1BB10B6823F0BB
:1012900008030B603F219140B160012180F83510B7
:1012A000016D0022002980F8342054D158E000BF9D
:1012B0000A685B0310D4D20512D40A6822F0100227
:1012C0000A60012180F83510002180F8341007E011
:1012D000816C0029BCD1BEE7110301D4416C00E050
:1012E000C16B11B1044688472046416DC1B3416DC1
:1012F000C9072ED0052180F835100168AA0A0B68AD
:1013000023F001030B60009B0133934200931AD832
:101310000B68DB0717D0009B01339342009312D870
:101320000B68DB070FD0009B0133934200930AD870
:101330000B68DB0707D0009B01339342009302D870
:101340000B68DB07DFD1012180F83510002180F820
:101350003410C16C21B101B0BDE8F040084700BFB6
:1013600001B0F0BD2DE9F041044600F0E9F9ECB11F
:101370000546022084F835000020216884F83400F6
:10138000086820F00100086021680868C00711D0D3
:1013900000F0D6F9401B0528F6D9032520230320A9
:1013A000636584F83550BDE8F08100BF0120BDE8D9
:1013B000F08100BF086848F23F02CFF21002D4E982
:1013C000013500EA020C04F10C0898E8C10143EA77
:1013D0000C032B431843D4E9072E30433843104302
:1013E000626A40EA0E00042A40EA08031CD1206B1E
:1013F000D4E90A2E40EA0E00184308604869BEF19D
:10140000000F20F0030040EA020040F0040C11D06D
:10141000B8F5005F36D0B8F1000F45D1022A46D0AA
:10142000012A3BD032B942E00B60486920F0070046
:1014300040EA020C01F0F8004AF6AB221038CAF676
:10144000AA22A0FB02231A0946F20C23C1F814C0F9
:10145000C0F600039A5C40F2FF335F284FF03F0074
:1014600021EA030100FA02F088BF0431C4E9161230
:101470008860002301250020636584F83550BDE8AD
:10148000F08100BF032AD5D8012540230120DFE8E1
:1014900002F0030E030500BF82E700BFAEF1C0708B
:1014A000B0FA80F0400904E0032A04D3C2D1CEF39D
:1014B00000600028BED0012540230120636584F828
:1014C0003550BDE8F081000090F834C0BCF1010F48
:1014D00004BF0220704770B54FF0010C80F834C093
:1014E000D0F858E090F835C0BCF1010F38D14FF07A
:1014F000020C80F835C04FF0000CC0F854C0D0F892
:1015000000C08468056CC06DDCF80060402C26F4D7
:101510008026CCF80060CCF804300B4604BF13469C
:101520000A463F2101FA00F0CCF80830CCF80C2034
:10153000CEF80800DCF8000040F01600CCF80000FF
:101540002DB1DCF8000040F00800CCF80000DCF819
:10155000000040F00100CCF80000002070BD00BF8A
:10156000002180F83410022070BD0000B0B50446A0
:1015700000F0E6F8054640F24400C2F200000078B0
:10158000611C18BF044400BF00F0DAF8401BA04201
:10159000FAD3B0BD2DE9F04F83B000F1200200F185
:1015A0003E4741F60045009207F1FF77C4F202057D
:1015B00008224FEAB726A84208BF072200254FF0AD
:1015C00000084FF00009072E38BF4FEAB7220192FA
:1015D0000AE000BF09F1010908F10208B9F1100F92
:1015E00005F1040500F0A2800F68012202FA09FE4D
:1015F00017EA0E0AEED0D1F804C003220CF003075C
:101600007E1E02FA08F4012E6FEA040B12D88468D9
:10161000CE6804EA0B0406FA08F634438460446892
:1016200024EA0E06CCF3001404FA09F426434660BB
:1016300004E000BF032F01D103271EE0C6688C68B9
:1016400006EA0B0604FA08F42643022FC66014D1FA
:101650006FF00302009E02EA590756F807C005F032
:101660001C040F220B69A2402CEA0202A3401A4379
:10167000F251D1F804C00CF00307026807FA08F32E
:1016800002EA0B021A431CF4403F0260A2D000227F
:1016900043F644030292C4F202031A6843F600447C
:1016A00042F480421A601A68C4F2010402F48042D3
:1016B0000292029A29F003024FF6084C2244CFF618
:1016C000FF7C52F80C3005F00C070F26BE40B343E8
:1016D000019E06FA07F73B4342F80C30A2684B68BC
:1016E00042EA0A0743F60C4CDE0258BF22EA0A0718
:1016F000A760C4F2010CDCF800209E0242EA0A074F
:1017000058BF22EA0A07CCF8007062689E0342EADA
:101710000A0758BF22EA0A0767602268DB0342EA29
:101720000A0758BF22EA0A07276053E703B0BDE85B
:10173000F08F0000002A08BF090481617047000093
:1017400040F2C850C2F2000000687047002804BF91
:1017500001207047F0B581B0044690F83D0028B9EB
:10176000002084F83C00204600F0A2F8242084F8F1
:101770003D002068016821F001010160016841F429
:1017800000410160016821F40041016000F034FA79
:10179000636848F2A16CC0F2010C40F60011C0F27F
:1017A0003D0163453CBF48F28041C0F21E018842C2
:1017B00002D2012001B0F0BD4DF68361C4F21B31AD
:1017C000A0FB01122168970CD1F804E04FF4967643
:1017D0002EF03F0545EA92454D60774348F63816AE
:1017E0000D6AC0F24106A7FB067625F03F07634568
:1017F00038BF960C721C3A430A62CA6948F2A06666
:101800004CF6FF77C0F20106B34222EA07020BD87A
:1018100001385B00B0FBF3F001306FF31F30042898
:1018200098BF04201BE000BFA768013857B11927F3
:101830007B43B0FBF3F001306FF31F3070B100F564
:10184000804007E003EB4303B0FBF3F001306FF39C
:101850001F3018B100F5004001E000BF0120104327
:10186000C8610868D4E9072320F0C000104318437A
:101870000860886848F2FF3204F10C0790438CCF6F
:1018800018431043A6698860C86820F0FF003843F9
:101890003043C860086840F0010008600020202143
:1018A000206484F83D10206384F83E0001B0F0BD50
:1018B000B0B586B045F200410068C4F200010024D2
:1018C00088420594CDE903440294019402D006B005
:1018D000B0BD00BF43F630050094C4F2020528688D
:1018E00040F002002860286800F002000090009894
:1018F000C02001901220CDE90204032004900420AE
:10190000059001F5D83001A9FFF744FE009428693D
:1019100040F400102861286900F40010009000983D
:1019200006B0B0BD40F2440040F2C851C2F200001F
:10193000C2F2000100780A68104408607047000095
:1019400080B543F60040C4F20200016841F4007122
:101950000160016841F480610160016841F48071B7
:101960000160032000F086F80F2000F005F800F079
:1019700027F8002080BD000070B540F24406C2F296
:10198000000640F27C013278C2F200014FF47A7313
:101990000968B3FBF2F20446B1FBF2F1084600F02D
:1019A0005FFB0F2C4FF0010508D838B94FF0FF301E
:1019B00021460022002500F031F87460284670BDF1
:1019C00082B0002043F640010190C4F202014A684F
:1019D00042F480424A604A6802F480420192019ACD
:1019E0000090086840F080500860086800F080505F
:1019F0000090009802B07047002848BF704700F080
:101A00001F01012202FA01F11C2202EAD0004EF26B
:101A10000012CEF2000281507047000010B54EF661
:101A20000C5CCEF2000CDCF80030C3F3022E8EF01A
:101A30000704042C28BF0424BEF103034FF0FF3E2B
:101A40000EFA04F438BF0023A14399400EFA03F3C1
:101A50009A43114300F00F0200F160430901043A78
:101A600003F564436244002848BF02F10C03197077
:101A700010BD00004EF60C51CEF200010A684FF680
:101A8000FF031A4060F30A2242F0806040F0FD70CC
:101A900008607047002804BF012070472DE9F0411D
:101AA00043F60808C4F202080446D8F8F8030D46C5
:101AB00000F00700884207D288F8F853D8F8F803F6
:101AC00000F00700A84277D12068810717D54107A9
:101AD00005D5D8F8001041F4E051C8F8001001070E
:101AE00005D5D8F8001041F46041C8F80010D8F8C6
:101AF0000010A26821F0F0011143C8F80010C007DF
:101B000040D1D8F8F80300F00700A84207D988F8B8
:101B1000F853D8F8F80300F00700A8424CD1206829
:101B2000410707D5D8F80010E26821F4E0511143CD
:101B3000C8F80010000708D5D8F80000216920F483
:101B4000604040EAC100C8F8000000F07DF8D8F815
:101B5000001046F2E012C1F30311C0F60002515C1E
:101B600040F27C0220FA01F140F24800C2F200008B
:101B70000068C2F200021160FFF7FEFE0020BDE81F
:101B8000F08100BF6068811E022907D258F8081C46
:101B900089015CBF0120BDE8F08111E0012807D177
:101BA00058F8081C89035CBF0120BDE8F08107E0FC
:101BB00058F8081C890703D40120BDE8F08100BF54
:101BC000D8F8001021F003010843C8F80000FFF71F
:101BD000B7FD064641F28837D8F80000616800F08A
:101BE0000C00B0EB810F8CD0FFF7AAFD801BB84230
:101BF000F2D90320BDE8F08140F27C0043F60801F1
:101C0000C2F20000C4F202010068096846F2F01254
:101C1000C1F38221C0F60002515CC8407047000049
:101C200040F27C0043F60801C2F20000C4F2020157
:101C30000068096846F2F012C1F34231C0F60002B2
:101C4000515CC8407047000010B543F60404C4F26C
:101C50000204606800F00C0142F200400829C0F262
:101C6000F40007D0042918BF10BD41F20020C0F2D3
:101C70007A0010BD216801F03F0221682368490203
:101C8000C3F3881106D4A1FB00010023FEF798FAE4
:101C900007E000BF41F20020C0F27A004843B0FBE9
:101CA000F2F021680222C1F3014102EB4101B0FBD5
:101CB000F1F010BD002804BF012070472DE9F0416C
:101CC00082B00446007843F60006C007C4F202065C
:101CD0000CD0B06800F00C00042840F0818030681F
:101CE000800303D56068002800F0688120788007B1
:101CF0001BD5B06810F00C0F09D0B06800F00C00D4
:101D0000082840F087807068400200F183803068C6
:101D1000800703D5E068012840F0508130682169D0
:101D200020F0F80040EAC10030602078000713D4AA
:101D3000207840072AD4A569002D00F03A81B068C8
:101D400000F00C00082840F0A580012D40F00E8125
:101D5000012002B0BDE8F0816069002800F08280B7
:101D60000020C4F247200121C0F8801EFFF7E8FCE4
:101D7000054600BF706F8007DAD4FFF7E1FC401B17
:101D80000228F7D9032002B0BDE8F081306C5FEA89
:101D9000C0080AD400200190306C40F080503064BC
:101DA000306C00F080500190019847F20007C4F2B7
:101DB00000073868C00547D4386840F48070386040
:101DC000FFF7BEFC054600BF3868C0053CD4FFF7EE
:101DD000B7FC401B0228F7D9032002B0BDE8F08110
:101DE000B06800F00C00082803D1706840023FF58D
:101DF00076AF61683068B1F5803F07D0B1F5A02FAC
:101E000040F09A8040F480203060306840F48030A8
:101E100030609AE0E068002840F20000C4F24720F9
:101E20005CD001210160FFF78BFC0546306880071C
:101E30003FF574AFFFF784FC401B0228F6D903205E
:101E400002B0BDE8F08100BFA168306F012905D064
:101E5000052955D140F004003067306F40F0010093
:101E6000306756E00020C4F247200021C0F8801EF1
:101E7000FFF766FC054600BF706F80077FF558AF1F
:101E8000FFF75EFC401B0228F6D9032002B0BDE834
:101E9000F08100BF0027C4F2472700203866FFF713
:101EA0004FFC022D05460DD13068800140F18A803B
:101EB000FFF746FC401B02284FF00300F4D902B0A4
:101EC000BDE8F0813068800173D5FFF739FC401B15
:101ED00002284FF00300F5D9F1E700BF00210160AF
:101EE000FFF72EFC054600BF306880077FF51DAF69
:101EF000FFF726FC401B02284FF00300F4D9DEE771
:101F000020F001003067306F002920F004003067B6
:101F10007AD0FFF715FC054641F28837306F80070D
:101F200000F18480FFF70CFC401BB842F6D9032077
:101F300002B0BDE8F08100BF20F48030306030682E
:101F4000002920F4802030607AD0FFF7F9FB0546A5
:101F5000306880033FF5CAAEFFF7F2FB401B6428F0
:101F6000F6D9032002B0BDE8F08100BF7068E169D6
:101F700000F480028A4221D1216A00F03F028A42A5
:101F80001CD147F6C071626A0140B1EB821F15D1C6
:101F9000A16A4FF6FF73C903994300F44032A1F5DB
:101FA00080318A420AD1E16A00F07060B0EB016FC3
:101FB00004D1002002B0BDE8F08100BF012002B0D2
:101FC000BDE8F08104F11C052FCD084340EA8210E2
:101FD000D9034FF6FF729143A1F5803140EA0560C5
:101FE0000843706001203866FFF7AAFB044600BF73
:101FF00030688001DDD4FFF7A3FB001B02284FF0FF
:102000000300F5D95BE700BFFFF79AFB054641F2F5
:10201000883700BF306F800708D5FFF791FB401B62
:10202000B8424FF00300F5D949E700BFB8F1000FFF
:102030003FF581AE306C20F0805030647BE600BF0D
:10204000FFF77EFB054600BF306880037FF54EAE8C
:10205000FFF776FB401B64284FF00300F4D92EE70E
:10206000411E0020B0EB116F1CBF012070474EF2E3
:102070001002CEF2000251604EF62351CEF2000162
:10208000F0230B70072190601160704770470000CB
:102090007047000090F83C20012A04BF02207047DE
:1020A000B0B501F108053CCDD1E900CE23F47C5355
:1020B00022F470521A432EF4F0431A432CF4E043F6
:1020C0001A4324F4C0431A432A43C96922F48042C4
:1020D000036811435964002180F83C100020B0BD12
:1020E00090F83C20012A4FF0020254D010B580F83D
:1020F0003D200268D2F804E0D2F808C00C682EF047
:102100007003234341F2FF74C4F20004A2425360FF
:102110000EDC40F2FF73C4F200039A4216DCB2F107
:10212000804F2BD040F20043C4F2000324E000BFF4
:1021300040F2FF33C4F201039A4213DC41F600037C
:10214000C4F200039A4219D0002313E040F60003C2
:10215000C4F200039A4211D040F60043C4F20003D7
:102160000AE000BF44F20003C4F201039A4205D022
:1021700040F20043C4F201039A4204D149682CF0B2
:102180008003194391600121002280F83D1080F8FE
:102190003C20BDE81040104670470000002804BFF6
:1021A0000120704710B5044690F83D0028B9002082
:1021B00084F83C00204600F01FF8022084F83D001F
:1021C0002068211D02F0E8FF012084F8460084F811
:1021D0003E0084F83F0084F8400084F8410084F811
:1021E000420084F8430084F8440084F8450084F8F1
:1021F0003D00002010BD000080B582B0006840F2B4
:10220000FF71C4F2000188422CDD40F60001C4F2E7
:10221000000188423ED040F60041C4F200018842ED
:1022200046D044F20041C4F2010188425DD1002051
:10223000019043F64000C4F202004168002241F4DC
:10224000003141604068002100F4003001900198A5
:102250001920FFF7E3FB192002B0BDE88040FFF72B
:10226000CBBB00BFB0F1804F30D040F20041C4F290
:102270000001884239D10020019043F64000C4F2A9
:102280000200016841F002010160006800F00200F4
:1022900029E000BF0020019043F64000C4F2020094
:1022A000016841F004010160006800F004001AE0D8
:1022B0000020019043F64000C4F20200016841F0A2
:1022C00008010160006800F008000CE000200190A7
:1022D00043F64000C4F20200016841F001010160D0
:1022E000006800F001000190019802B080BD00007C
:1022F00090F83D1001291CBF01207047022180F891
:102300003D10006841F2FF72C168C4F200029042C1
:1023100041F00101C1600DDC40F2FF71C4F2000127
:10232000884215DCB0F1804F2AD040F20041C4F25F
:10233000000123E040F2FF31C4F20101884213DCC6
:1023400041F60001C4F20001884219D0002113E0D7
:1023500040F60001C4F20001884211D040F600416D
:10236000C4F200010AE000BF44F20001C4F201011E
:10237000884205D040F20041C4F20101884206D1F2
:10238000816801F00701062904BF00207047016839
:1023900041F0010101600020704700000146006823
:1023A00041F21113C26822F00102C260026A1A42AD
:1023B00004D00122002081F83D207047026A40F2DB
:1023C00044431A42F5D1026822F001020260012260
:1023D000002081F83D20704790F83C20012A4FF002
:1023E00002026CD080B580F83D20D0F800C04FF6D6
:1023F0007772DCF8083023EA0202CCF808200B6878
:102400004F2B29DC1F2B45DD202B46D0302B44D011
:10241000402B40F0AF80D1F804E0C968DCF82030F0
:10242000DCF8202022F00102CCF82020DCF8182073
:1024300022F0F00242EA011123F00A0242EA0E02FF
:10244000CCF81810CCF82020DCF8081041F0470137
:1024500021F0300128E000BF6F2B33DDB3F5005FC2
:1024600074D0B3F5805F21D0702B40F08380D1E928
:1024700001E3C968DCF8082043EA0E0322F47F4236
:1024800043EA01211143CCF80810DCF8081041F0B0
:10249000770109E00BB1102B6CD1DCF8081021F0AA
:1024A0007001194341F00701CCF808100022012106
:1024B00080F83D10002180F83C10BDE880401046B7
:1024C000704700BF502B21D0602B53D1D1F804E0CE
:1024D000C968DCF82030DCF8202022F01002CCF8AB
:1024E0002020DCF8182022F4704242EA013123F067
:1024F000A00242EA0E12CCF81810CCF82020DCF82A
:10250000081041F0670121F01001CDE7D1F804E097
:10251000C968DCF82030DCF8202022F00102CCF879
:102520002020DCF8182022F0F00242EA011123F00A
:102530000A0242EA0E02CCF81810CCF82020DCF88F
:10254000081041F0570121F02001ADE7D1E901E386
:10255000C968DCF8082043EA0E0322F47F4243EA0C
:1025600001211143CCF80810DCF8081041F4804137
:102570009AE700BF01229AE77047000070B5044651
:102580000068C5680669B10716D515F0020113D0B9
:102590006FF002010161012121778069800703D07A
:1025A0002046FFF7E9FF05E0204600F031F920461C
:1025B00000F092FA00202077700719D515F004007A
:1025C00016D020686FF00401016102212177806933
:1025D00010F4407F04D02046FFF7CEFF06E000BF96
:1025E000204600F015F9204600F076FA002020770A
:1025F000300717D515F0080014D020686FF00801D7
:10260000016104212177C069800703D02046FFF7CC
:10261000B3FF05E0204600F0FBF8204600F05CFA2E
:1026200000202077F00619D515F0100016D020688C
:102630006FF01001016108212177C06910F4407F1B
:1026400004D02046FFF798FF06E000BF204600F0C8
:10265000DFF8204600F040FA00202077F00718BF8E
:1026600015F0010002D1300609D412E020686FF0A5
:1026700001010161204600F0BBFA300609D515F0D2
:10268000800006D020686FF0800101612046FFF7CE
:10269000FDFC700609D515F0400006D020686FF0EB
:1026A00040010161204600F067FCB00658BF70BDD4
:1026B00015F0200008D021686FF0200220460A6142
:1026C000BDE87040FFF7E4BC70BD000080B586B087
:1026D000006840F2FF71C4F2000188424FF000012F
:1026E0000591CDE90311CDE901112BDD40F6000183
:1026F000C4F2000188423FD040F60041C4F200011C
:10270000884253D00021C4F20101884240F07E800B
:102710000020009043F63000C4F20200016841F04E
:10272000100101600068012100F010000090009885
:102730004FF4D44001900020C4F2020000F5805014
:102740005BE000BFB0F1804F42D040F20041C4F2E4
:10275000000188425AD10020009043F63000C4F2B4
:102760000200016841F001010160006800F0010011
:1027700000900098402029E00020009043F63000AF
:10278000C4F20200016841F0080101600068022102
:1027900000F00800009000984FF480500190002055
:1027A000C4F2020000F5406027E000BF0020009066
:1027B00043F63000C4F20200016841F001010160FB
:1027C000006800F00100009000980120022110E054
:1027D0000020009043F63000C4F20200016841F08E
:1027E000010101600068012100F0010000900098E3
:1027F000202001900020C4F2020002220292002256
:10280000059101A9CDE90322FEF7C4FE06B080BD03
:102810007047000090F83C30012B04BF0220704745
:102820004FEAB202032A00F2FF802DE9F043DFE80D
:1028300002F003B13F7F00BF036840F200461C6A0C
:102840001A6A24F0020422F001021A621A46D3F82E
:1028500004C052F818EF8F6843F48065C4F2010693
:10286000B54244EA070405D1CF6824F00C0427F0F0
:1028700004073C430F68B54206D1D1E905582CF452
:1028800040762E4346EA080C2EF073063743C3F811
:1028900004C09F614F6809695F631C629F6947F0CC
:1028A00008079F619F6927F004079F61B1E000BF9F
:1028B000036840F200481C6A1A6A24F4007422F487
:1028C00080721A621A46D3F804C052F81CEF8F685F
:1028D00043F48065C4F20108454544EA072408D161
:1028E000CF6840F2FF463F0224F4406427EA060620
:1028F0003443D1F80090454506D1D1E905562CF472
:1029000040572E4347EA061C2EF0730747EA090793
:10291000C3F804C0DF614F680969DF631C62DF69C7
:1029200047F00807DF61DF6927F00407DF6170E027
:10293000036840F20045D3F820C01A6A43F4806768
:1029400022F480521A621A465C6852F81C8FD1F841
:1029500000E08E68C4F20105AF4204D14D6924F451
:10296000804444EA85142CF4005747EA063728F4DB
:10297000E64646EA0E265C60DE614E6809691E6422
:102980001F62DF6947F40067DF61DF6927F4806752
:10299000DF613DE0036840F200481C6A1A6A24F0D7
:1029A000200422F010021A621A46D3F804C052F82A
:1029B00018EF8F6843F48065C4F20108454544EA86
:1029C000071407D1CF686FF0400624F0C00406EA70
:1029D00007163443D1F80090454506D1D1E9055694
:1029E0002CF440672E4347EA860C2EF4E64747EA6C
:1029F0000927C3F804C09F614F6809699F631C627F
:102A00009F6947F400679F619F6927F480679F6112
:102A100009021368194311600021BDE8F043002248
:102A200080F83C20084670470121002280F83C20B5
:102A300008467047002804BF0120704710B50446BF
:102A400090F83D0028B9002084F83C00204600F0B2
:102A50001FF8022084F83D002068211D02F09CFB35
:102A6000012084F8460084F83E0084F83F0084F892
:102A7000400084F8410084F8420084F8430084F860
:102A8000440084F8450084F83D00002010BD00009B
:102A900000680021C4F20101884218BF704780B568
:102AA00082B00020019043F64400C4F202000168A5
:102AB000002241F0010101600068002100F00100E6
:102AC000019001981920FEF7A9FF192002B0BDE876
:102AD0008040FEF791BF000070470000C1B104299B
:102AE00008D0082914BF41224022825C012A05D067
:102AF00016E000BF3F22825C012A11D10222082980
:102B000010D0042914BF80F8412080F83F200BE04A
:102B100090F83E20012A03D1022280F83E2003E0F3
:102B20000120704780F84020006801F01F01012259
:102B3000036A02FA01F123EA01020262026A114306
:102B400041F2FF72C4F20002904201620CDC40F2DA
:102B5000FF71C4F20001884214DCB0F1804F37D01D
:102B600040F2004116E000BF40F2FF31C4F2010123
:102B7000884215DC41F60001C4F20001884227D0EA
:102B8000002115E040F60001C4F2000188421FD088
:102B900040F60041C4F20001884219D01FE000BF96
:102BA00044F20001C4F20101884211D040F2004118
:102BB000C4F20101884212D1416C40F2004340F45A
:102BC0008062C4F2010341F400419A42416406D19B
:102BD000816801F00701062904BF002070470168E1
:102BE00041F001010160002070470000000000007A
:102BF0002DE9F041006844F20041C4F2010188422D
:102C000018BFBDE8F081FEF7FBF940F29007C2F271
:102C10000007387840B101281AD1F968F86988426C
:102C200036DA00EE100A05E0F868F96981424FDAF9
:102C300000EE101A9FEDCE1AB8EEC00A20EE010A7F
:102C400087ED150A87ED160A87ED170A87ED180A32
:102C5000787868B1012878D13969F86988420BDB46
:102C60007A6A904271DA531A98424FDC6DE000BFE5
:102C70003969F869884241DA00EE100A9FEDBC1A02
:102C8000B8EEC00A20EE010A87ED190A57E000BF2E
:102C90003A6A9042DCDA531A9842D9DDC31A01EE3F
:102CA000103A9FEDB32A97ED0B0AB8EEC11A21EE48
:102CB000021A084430EE411A801A87ED151A01EE07
:102CC000100AB8EEC11A21EE021A30EE410AB9E735
:102CD0003A6A914280F22A81131A994240F326817E
:102CE00001EE100A9FEDA12A97ED0B0AB8EEC11A6A
:102CF00021EE021A30EE010AA2E700BF7A6A904282
:102D000080F21C81531A984240F31881C31A01EED5
:102D1000103A9FED972A97ED0C0AB8EEC11A21EEF2
:102D2000021A084430EE411A801A87ED191A01EE92
:102D3000100AB8EEC11A21EE021A30EE410A87EDF0
:102D40001A0A87ED1B0A87ED1C0A97F9070097ED11
:102D5000152A414200EE101A97F9081097ED196AEA
:102D600001EE101AB8EEC00AB8EEC11A26EE016ADA
:102D700020EE022A97ED163A97ED1A7A32EE062ADD
:102D800006EE100A97ED185AD7ED1B0AD7ED1C1A5C
:102D9000B8EEC66A27EE017A26EE033A40F2181022
:102DA00033EE073A20EE817A21EE811A20EE050AF1
:102DB000C2F2000030EE010A90ED001A40F21C1041
:102DC00097ED174AC2F2000090ED005A26EE044A31
:102DD0009FED686A31EE455A25EE065A21EE061A35
:102DE00031EE051A87ED0D2A32EE012A87ED0E3AF3
:102DF00034EE074A33EE413AB5EE402A87ED0F4AEA
:102E000087ED100A34EE014A30EE410AF1EE10FA75
:102E10004FF00006B5EE403A4FF0000187ED112A61
:102E200087ED123A87ED134A87ED140AB8BF0126E1
:102E3000FE70F1EE10FAB8BF01213971B5EE404ACB
:102E4000002112EE100AF1EE10FAB8BF01217971DB
:102E5000B5EE400A002120F000404FF00008F1EEEE
:102E600010FAB8BF0121B971FDF7B3FB9FED3C0B20
:102E700054EC105B2A462346FDF78CFAFDF778FBED
:102E8000024601203146012301F06EFCB86C3E7908
:102E900020F00040FDF79DFB2A462346FDF77AFA15
:102EA000FDF766FB024602203146012301F05CFC7F
:102EB000F86C7E7920F00040FDF78BFB2A46234614
:102EC000FDF768FAFDF754FB024603203146012363
:102ED00001F04AFC386DBE7920F00040FDF779FB27
:102EE0002A462346FDF756FAFDF742FB0246042028
:102EF0003146012301F038FC01F03AF8F869B96A6B
:102F000001308842F86101DABDE8F08101F03CF857
:102F100001F02EF840F28830C7F81C80C2F20000A1
:102F200087F80280BDE8F041FFF738BA91420DDD25
:102F300000209FED0D0A786584E600BF904209DD10
:102F400000209FED090A7866F9E600BF97ED0B0AAD
:102F500076E600BF97ED0C0A96E600BF00BF00BF03
:102F6000000000000000244000000000D2537BC09D
:102F7000D2537B406666E63F704700007047000012
:102F800070470000B0B582B001680A68CC684B6930
:102F900002F02F05202D04F0200505D125B102B047
:102FA000BDE8B04002F026BB5FEA027C1EBF03F022
:102FB000010E04F4907313EB0E0341D1036BD5069D
:102FC00018D5012B16D114F0100313D00022019252
:102FD0000A6801924A680192019A496949064BD4EC
:102FE000818DC28DC38D002B18BF914240F0F481BA
:102FF00002B0B0BD13062DD514F080032AD090F88E
:103000004120212AF4D18268B2F5805F03D10269A0
:10301000002A00F06782026A531C036212784A6039
:10302000C28C013A1304C284E2D1C86820F0800047
:10303000C860C86840F04000C86002B0B0BD00BFC2
:10304000D30718BF14F4807340F0D080530700F109
:10305000D380D8E05206CBD514F04002C8D0CA685D
:1030600022F04002CA60202180F8411002B0BDE881
:10307000B04000F0E3BE00BFC16B0A68526893B273
:10308000002BB5D0858DAB42B2D2C285C969B1F5EE
:10309000807F00F0A080016851E8031F026821F4DE
:1030A000807142E80313DBB1016851E8031F026835
:1030B00021F4807142E8031393B1016851E8031FC2
:1030C000026821F4807142E803134BB1016851E8B2
:1030D000031F026821F4807142E80313002BDAD148
:1030E000016851E8051F026821F0010142E805135B
:1030F000BBB3016851E8051F026821F0010142E8F5
:10310000051373B3016851E8051F026821F001013E
:1031100042E805132BB3016851E8051F026821F04E
:10312000010142E80513002BDAD11AE0016851E8E9
:10313000051F026821F0400142E80513DBB1016878
:1031400051E8051F026821F0400142E8051393B1E0
:10315000016851E8051F026821F0400142E80513AB
:103160004BB1016851E8051F026821F0400142E8B7
:103170000513002BDAD1202180F8421000210163D1
:10318000016851E8031F026821F0100142E80313AF
:10319000DBB1016851E8031F026821F0100142E829
:1031A000031393B1016851E8031F026821F0100175
:1031B00042E803134BB1016851E8031F026821F094
:1031C000100142E80313002BDAD1C16B0446084614
:1031D000FDF78CFF204602214163818DC28D891A43
:1031E00089B202B0BDE8B040FFF7C8BE436C43F0FF
:1031F00001034364530706D5BEF1000F03D0436CAF
:1032000043F002034364930706D5BEF1000F03D0D9
:10321000436C43F004034364BCF1000F06D55EEA3F
:10322000050303D0436C43F008034364436C002B55
:103230003FF4DEAE920605D525B1044602F0DAF978
:10324000216820464969426C01F0400102F0080201
:10325000891800F0B98000BF016851E8031F0268B7
:1032600021F4907142E80313BBB3016851E8031FD6
:10327000026821F4907142E8031373B3016851E8C6
:10328000031F026821F4907142E803132BB3016815
:1032900051E8031F026821F4907142E80313002BE8
:1032A000DAD11AE0016851E8051F026821F0010136
:1032B00042E80513DBB1016851E8051F026821F0FF
:1032C000010142E8051393B1016851E8051F026846
:1032D00021F0010142E805134BB1016851E8051FD7
:1032E000026821F0010142E80513002BDAD1016BDD
:1032F000012924D1016851E8031F026821F010015F
:1033000042E80313DBB1016851E8031F026821F0B2
:10331000100142E8031393B1016851E8031F0268EA
:1033200021F0100142E803134BB1016851E8031F7B
:10333000026821F0100142E80313002BDAD12021AA
:1033400080F842100021016301684969490640F193
:10335000C380016851E8051F026821F0400142E87E
:103360000513DBB1016851E8051F026821F0400137
:1033700042E8051393B1016851E8051F026821F086
:10338000400142E805134BB1016851E8051F02688E
:1033900021F0400142E80513002BDAD1C16B00296E
:1033A00000F09A8045F2F522C0F600020446084675
:1033B0000A65FDF7E3FE00283FF41AAEE06B016DED
:1033C00002B0BDE8B04008470446FFF7D9FD002031
:1033D000606402B0B0BD00BF891A00BF026852E845
:1033E000032F036822F4907243E80325BDB30268FB
:1033F00052E8032F036822F4907243E8032575B363
:10340000026852E8032F036822F4907243E8032510
:103410002DB3026852E8032F036822F4907243E848
:103420000325002DDAD11AE0026852E8052F03685F
:1034300022F0010243E80525DDB1026852E8052FBC
:10344000036822F0010243E8052595B1026852E8BD
:10345000052F036822F0010243E805254DB10268FB
:1034600052E8052F036822F0010243E80525002DEC
:10347000DAD1202280F8422000220263026852E85A
:10348000032F036822F0100243E80325DDB1026830
:1034900052E8032F036822F0100243E8032595B198
:1034A000026852E8032F036822F0100243E8032564
:1034B0004DB1026852E8032F036822F0100243E87E
:1034C0000325002DDAD1022289B2426302B0BDE8A1
:1034D000B040FFF753BD00BF02B0BDE8B040FFF7FA
:1034E0004FBD00BF026A32F8023B6FF35F234B60AF
:1034F000026295E5002804BF0120704710B504461C
:1035000090F8410028B9002084F84000204600F0DF
:1035100021F8242084F841002068C16821F400517A
:10352000C160204602F0E6F82068016921F490416C
:103530000161416921F02A014161C16841F40051F2
:10354000C16000202021606484F8411084F842109A
:10355000606310BD2DE9F04F87B00446006841F26A
:103560000001C4F2010100268842CDE90566CDE9DB
:103570000366029600F0EC8045F20001C4F20001FF
:10358000884275D044F60041C4F20001884240F000
:103590004481002743F630000197C4F2020001691C
:1035A000002541F4002101610169C4F2020501F422
:1035B000002101910199019701680DF1080841F07E
:1035C000010101600168022601F0010101910199E8
:1035D000019701684FF0030941F0040101600068A0
:1035E0004FF0080A00F00400019001982846414677
:1035F000CDE902660497CDF81490CDF818A0FDF738
:10360000C9FF04A84FF4806B80E8800605F50060D0
:103610004146CDE902B6FDF7BDFF46F21000C4F207
:10362000020040F26C153030C2F200054FF000612C
:103630004FF4807285E883002846C5E9037BC5E91D
:103640000577C5E907276F62FDF78CFE002818BFD4
:10365000FDF736FB342000210022E563AC63FEF762
:10366000DDF93420FEF7C8F907B0BDE8F08F00BFE0
:1036700043F630000196C4F202000169002741F4CC
:10368000801101610169C4F2020701F48011019106
:1036900001990196016802AD41F0040101600168E1
:1036A0004FF0020801F004010191019901960168AF
:1036B0004FF0030941F00801016000684FF0080A6B
:1036C00000F00800019001984FF48050029007F537
:1036D00000602946CDE90386CDF81490CDF818A0F6
:1036E000FDF758FF0420CDE9020804A880E8400651
:1036F00007F540602946FDF74DFF40F2CC1546F234
:103700001000C2F20005C4F202004FF000614FF455
:1037100080624FF4807385E843002846C5E9036260
:10372000C5E90566C5E907366E62FDF71BFE002890
:1037300018BFFDF7C5FA352000210022E563AC6310
:10374000FEF76CF93520FEF757F907B0BDE8F08FAA
:1037500043F630000196C4F20200416946F21008B7
:1037600041F0100141614169C4F2020801F0100109
:10377000019101990196016841F001010160006821
:1037800002A900F00100019001984FF4C06002907E
:103790000220CDE9030603200590072006900020B3
:1037A000C4F20200FDF7F6FE40F22C2508F5866013
:1037B000C2F200054FF000674FF48069C5E90007C9
:1037C0002846C5E90266C5E90496C5E90666C5E965
:1037D0000866FDF7C7FD002818BFFDF771FAE5631D
:1037E000AC6340F28C2508F59560C2F200054021DB
:1037F000C5E9000705F10800002280E80602284616
:10380000C5E90522C5E907226A62FDF7ABFD00287C
:1038100018BFFDF755FAA563AC6307B0BDE8F08F9C
:103820002DE9F04381B0044690F84200202809D1E8
:10383000884600294FF0010018BF002A06D101B0C8
:10384000BDE8F083022001B0BDE8F0830020222112
:103850001D46606484F8421020631646FDF770FF31
:10386000A685E685A1680746B1F5805F02D120698B
:10387000002851D046464FF00008E08D00284FD078
:1038800005F101090CE000BF406800266FF35F20DE
:1038900028F8020BE08D0138E085E08D00283FD04C
:1038A00020680168890617D4B9F1000F22D0002DD5
:1038B00000F0CA80FDF744FFC01BA84200F2BC80A4
:1038C0002068C168490744BF01685FEA01712FD4CD
:1038D00001688906EED500BF002ED5D0A168B1F5EC
:1038E000805F15D009B9216991B1406800F07F006F
:1038F0000FE000BF01688906EED4016889065CBF4D
:1039000001685FEA8161E7D401688906F2D5E3E7DF
:10391000406806F8010BBDE70026E08D0028AFD116
:103920000020202184F8421001B0BDE8F08300BFE0
:10393000002100910168009140680090009800BF4C
:10394000206850E8030F216820F4907041E80302DA
:10395000BAB3206850E8030F216820F4907041E862
:10396000030272B3206850E8030F216820F49070BE
:1039700041E803022AB3206850E8030F216820F4CD
:10398000907041E80302002ADAD11AE0206850E87A
:10399000050F216820F0010041E80502DAB1206836
:1039A00050E8050F216820F0010041E8050292B1BE
:1039B000206850E8050F216820F0010041E8050269
:1039C0004AB1206850E8050F216820F0010041E865
:1039D0000502002ADAD1206B012824D1206850E8A2
:1039E000030F216820F0100041E80302DAB12068DB
:1039F00050E8030F216820F0100041E8030292B163
:103A0000206850E8030F216820F0100041E803020D
:103A10004AB1206850E8030F216820F0100041E807
:103A20000302002ADAD1202084F842000020082175
:103A30002063616484F840000320202184F8421050
:103A400001B0BDE8F08300BFFDF77AFEF4E70000A7
:103A5000B0B582B090F84240202C0BD113460A46F4
:103A600000294FF0010118BF002B07D1084602B012
:103A7000B0BD00BF0221084602B0B0BD0025222122
:103A8000056382628385456480F84210D0F83CC0AB
:103A900045F27D4E45F2DD54C0F6000EC0F600043E
:103AA0000168CCE90FE445F20134C0F60004CCE92A
:103AB0001345043104466046FDF706FD0195216873
:103AC00020460A680192496801910199216929B348
:103AD000016851E8031F026841F4807142E8031352
:103AE000E3B1016851E8031F026841F4807142E8C4
:103AF00003139BB1016851E8031F026841F4807110
:103B000042E8031353B1016851E8031F026841F40E
:103B1000807142E80313002BDAD100BF016851E83D
:103B2000051F026841F0010142E80513BBB30168BB
:103B300051E8051F026841F0010142E8051373B323
:103B4000016851E8051F026841F0010142E80513D0
:103B50002BB3016851E8051F026841F0010142E8FA
:103B60000513002BDAD11AE0016851E8051F02683D
:103B700041F0400142E80513DBB1016851E8051F3F
:103B8000026841F0400142E8051393B1016851E831
:103B9000051F026841F0400142E805134BB101687E
:103BA00051E8051F026841F0400142E80513002B6F
:103BB000DAD10021084602B0B0BD0000006845F22D
:103BC0000001C4F20001884200D0704740F20410A6
:103BD000C2F2000090F82410532903D14FF0000CDA
:103BE0004FE000BF90F82510532903D14FF0010C8E
:103BF00047E000BF90F82610532903D14FF0020C84
:103C00003FE000BF90F82710532903D14FF0030C79
:103C100037E000BF90F82810532903D14FF0040C6F
:103C20002FE000BF90F82910532903D14FF0050C65
:103C300027E000BF90F82A10532903D14FF0060C5B
:103C40001FE000BF90F82B10532903D14FF0070C51
:103C500017E000BF90F82C10532903D14FF0080C47
:103C60000FE000BF90F82D10532903D14FF0090C3D
:103C700007E000BF90F82E10532918BF70474FF08F
:103C80000A0CD0F82B20D0E90931C0F83620C0F852
:103C90003310C0F82F3040F28000C2F2000080F8EC
:103CA00000C07047704700002DE9F04381B0044622
:103CB00090F84100202809D100294FF0010018BFD9
:103CC000002A07D101B0BDE8F08300BF022001B097
:103CD000BDE8F0830020606421201D460E4684F874
:103CE00041001746FDF72CFDA784E784A1688146B3
:103CF000B1F5805F02D1206900285DD037460020F1
:103D0000E28C2168002A5DD06A1C24D0002D4AD0A4
:103D1000804600BF0868000608D4FDF711FDA0EB3F
:103D20000900A8427AD82168C868F3E717B117F8E4
:103D3000010B04E038F8020B00276FF35F204860A6
:103D4000E08C0138E084E08C0028E3D13AE000BF49
:103D50000A68120609D40A68120606D40A6812060E
:103D60005CBF0A685FEA0262F2D51FB117F8012B47
:103D700005E000BF30F8022B00276FF35F224A6096
:103D8000E28C013AE284E28C002AE4D11AE000BF1E
:103D900030F8022B00276FF35F224A60E28C013A71
:103DA000E284E28C72B10A68120635D5002FEFD09A
:103DB00017F8012BF1E700BF00273046E28C21689D
:103DC000002AA1D1086840061ED42DB3681C14D166
:103DD000086840062AD40868400627D408684006C8
:103DE00024D4086840064FF00000F1D50DE000BF74
:103DF0002068C1680068400618D4FDF7A1FCA0EB5C
:103E00000900A842F4D909E00020202184F84110DB
:103E100001B0BDE8F08300BFFDF792FC0320202134
:103E200084F8411001B0BDE8F08300BF00202021DC
:103E300084F8411001B0BDE8F08300007047000035
:103E4000FEE7000010B50138042888BF10BDDFE888
:103E500000F003513341110040F20040C4F202006F
:103E6000012965D14FF480410022BDE81040FDF7E3
:103E700061BC00BF40F20044C4F20204012904F511
:103E800040604FF4004143D10022FDF753FC20462F
:103E90004FF400510022FDF74DFC20464FF48041C5
:103EA0000022FDF747FC20464FF400610022BDE8E8
:103EB0001040FDF73FBC00BF40F200400129C4F2B2
:103EC00002003DD14FF400610022BDE81040FDF733
:103ED00031BC00BF40F20040C4F2020000F5406077
:103EE000012935D14FF400410022BDE81040FDF713
:103EF00021BC00BF40F20040C4F2020001292FD1D2
:103F00004FF400510022BDE81040FDF713BC00BF84
:103F10000122FDF70FFC20464FF400510122FDF76E
:103F200009FC20464FF400610122FDF703FC204606
:103F30004FF480410122BDE81040FDF7FBBB00BFFC
:103F40004FF400610122BDE81040FDF7F3BB00BF54
:103F50004FF400410122BDE81040FDF7EBBB00BF6C
:103F60004FF400510122BDE81040FDF7E3BB000013
:103F700040F2F04046F2F811C2F20000C0F6000133
:103F80000422FF23FFF790BE40F2F04040F26501AB
:103F9000C2F20000C2F200010522FF23FFF784BE37
:103FA00080B582B0002043F630010190C4F20201D6
:103FB0000A6842F400120A600A6802F400120192D0
:103FC000019A00900868002240F4800008600868A8
:103FD000002100F48000009000980B20FDF71EFDEA
:103FE0000B20FDF709FD0D2000210022FDF716FD35
:103FF0000D20FDF701FD3A2000210022FDF70EFD06
:104000003A20FDF7F9FC462000210022FDF706FDCD
:10401000462002B0BDE88040FDF7EEBC2DE9F04F30
:1040200087B0002543F630000695CDE90455CDE96B
:1040300002550195C4F20200016840F2000941F006
:10404000040101600168C4F2020901F00401019158
:10405000019901950168002241F080010160016829
:10406000942401F08001019101990195016841F0CA
:1040700001010160016801F00101019101990195BF
:10408000016841F010010160016801F01001019127
:1040900001990195016841F002010160016801F098
:1040A0000201019101990195016841F00801016047
:1040B0000068942100F00800019001984846FDF73F
:1040C00039FB09F5805840464FF400410122012692
:1040D000FDF730FB09F5806A50464FF4D0410122CC
:1040E0004FF4D04BFDF726FB09F5406738464FF4F7
:1040F00000510022FDF71EFBCDE9024602AC484606
:104100002146CDE90455FDF745FA4FF40040CDE9CD
:10411000020640462146CDE90465FDF73BFA5046CC
:104120002146CDE902B6CDE90465FDF733FA4FF437
:104130000050CDE9020638462146CDE90455FDF789
:1041400029FA07B0BDE8F08F80B540F2EC2045F2C7
:104150000041C2F20000C4F2000148F2A062002354
:104160004FF4804CC0F2010280E80E00C0E9033C2D
:10417000C0E90533C0E90733FDF7E8FA002808BFB6
:1041800080BDBDE88040FCF79BBD000080B540F2DB
:10419000883044F20041C2F20000C4F20101002361
:1041A00040F28F6242F20F7C80E80E10036183615F
:1041B000FDF7F4FF002808BF80BDBDE88040FCF794
:1041C0007FBD000080B592B040F240300022002157
:1041D000C2F20000C4F20102A72344F61F6C119141
:1041E000CDE90F11CDE90D11CDE90B11CDE9091183
:1041F000CDE90711CDE90511CDE90311CDE9011193
:10420000C0E90023C0E9021CC0E904118161FEF786
:1042100011FC002818BFFCF753FD40F24030C2F2F9
:10422000000010A9FDF75CFF002818BFFCF748FD4F
:10423000602009900020CDE90A00CDE90C00CDE90D
:104240000E0040F24030C2F2000009A90022FEF741
:10425000E1FA002818BFFCF733FD40F24030C2F20B
:10426000000009A90422FEF7D5FA002818BFFCF7C0
:1042700027FD40F24030C2F2000009A90822FEF7F3
:10428000C9FA002818BFFCF71BFD40F24030C2F20B
:10429000000009A90C22FEF7BDFA002818BFFCF7A0
:1042A0000FFD00200590CDE90300CDE901004FF49A
:1042B0000051089040F240300691C2F2000001A97E
:1042C000FDF7E8FE002818BFFCF7FAFC40F240308A
:1042D000C2F20000FEF7FAF912B080BD10B58EB040
:1042E00040F2D0300021C2F200004FF080424FF483
:1042F000907344F620640D91CDE90B110991CDE93D
:104300000711CDE90511CDE90311CDE90111C0E98E
:104310000023C0E9021401618161FDF73FFF00281D
:1043200018BFFCF7CDFC4FF480500A9040F2D0301B
:10433000C2F200000AA9FEF74FF8002818BFFCF7E8
:10434000BFFC40F2D030C2F20000FEF773FB002841
:1043500018BFFCF7B5FC40F2D0300024C2F20000D8
:1043600008A9CDE90844FDF7BBFE002818BFFCF7FB
:10437000A7FC6020019042F21070CDE9020440F2E7
:10438000D030C2F2000001A900220594FEF742FAE3
:10439000002818BFFCF794FC40F2D030C2F20000B5
:1043A000FEF794F90EB010BD10B58EB040F2184073
:1043B00040F200420021C2F20000C4F200024FF4B9
:1043C000907344F620640D91CDE90B110991CDE96C
:1043D0000711CDE90511CDE90311CDE90111C0E9BE
:1043E0000023C0E9021401618161FDF7D7FE0028B6
:1043F00018BFFCF765FC4FF480500A9040F218405B
:10440000C2F200000AA9FDF7E7FF002818BFFCF779
:1044100057FC40F21840C2F20000FEF70BFB0028E8
:1044200018BFFCF74DFC40F218400024C2F2000017
:1044300008A9CDE90844FDF753FE002818BFFCF792
:104440003FFC6020CDE901040220039040F21840B7
:10445000C2F2000001A900220594FEF7DBF9002852
:1044600018BFFCF72DFC40F21840C2F20000FEF726
:104470002DF90EB010BD000010B58EB040F26040B6
:1044800040F600020021C2F20000C4F200024FF424
:10449000907344F620640D91CDE90B110991CDE99B
:1044A0000711CDE90511CDE90311CDE90111C0E9ED
:1044B0000023C0E9021401618161FDF76FFE00284D
:1044C00018BFFCF7FDFB4FF480500A9040F26040AB
:1044D000C2F200000AA9FDF77FFF002818BFFCF711
:1044E000EFFB40F26040C2F20000FEF7A3FA0028A2
:1044F00018BFFCF7E5FB40F260400024C2F2000068
:1045000008A9CDE90844FDF7EBFD002818BFFCF72A
:10451000D7FB6020019042F21070CDE9020440F216
:104520006040C2F2000001A900220594FEF772F972
:10453000002818BFFCF7C4FB40F26040C2F2000044
:10454000FEF7C4F80EB010BD10B58EB040F2A84012
:1045500040F600420021C2F20000C4F200024FF413
:10456000907364240D91CDE90B110991CDE90711E8
:10457000CDE90511CDE90311CDE90111C0E9002311
:10458000C0E9021401618161FDF708FE002818BF2F
:10459000FCF796FB4FF480500A9040F2A840C2F21C
:1045A00000000AA9FDF718FF002818BFFCF788FBD8
:1045B00040F2A840C2F20000FEF73CFA002818BF03
:1045C000FCF77EFB40F2A8400024C2F2000008A9DC
:1045D000CDE90844FDF784FD002818BFFCF770FB07
:1045E000602001903220CDE9020440F2A840C2F2DE
:1045F000000001A900220594FEF70CF9002818BF5D
:10460000FCF75EFB40F2A840C2F20000FEF75EF845
:104610000EB010BD80B540F2385044F60041C2F2F1
:104620000000C4F2000100234FF00C0C4FF4E13203
:1046300080E80E00C0E90333C0E905C3C361FEF79B
:1046400059FF002818BFFCF73BFB40F2385040F2FE
:104650008101C2F20000C2F200010922BDE88040DF
:10466000FFF7F6B980B540F2805045F20001C2F282
:104670000000C4F2000100234FF00C0C4FF4E132B3
:1046800080E80E00C0E90333C0E905C3C361FEF74B
:1046900031FF002818BFFCF713FB40F20410C2F2F0
:1046A000000000F1240140F28050C2F200000B2211
:1046B000BDE88040FFF7CCB980B540F2F04041F250
:1046C0000001C2F20000C4F2010100234FF00C0C03
:1046D0004FF4E13280E80E00C0E90333C0E905C3BE
:1046E000C361FEF707FF002808BF80BDBDE880401A
:1046F000FCF7E6BAFEE70000B0B540F2500C049CAF
:10470000C2F2000C8CF80000100A8CF80300200E96
:104710008CF80600200C8CF80700200A8CF8094061
:1047200040F2F044C2F200048CF802108CF804202D
:104730008CF805308CF80800204661460D22FF23D6
:10474000FFF7B2FA40F20415C2F20005291D204617
:104750000422FF23FFF764F8E8790021E23818BF4C
:104760000120E971B0BD0000B0B541F27075AA42F8
:1047700038BF154640F25D02C2F2000240F2F0443A
:104780001070280AC2F200049170D0701571537134
:10479000204611460822FF23FFF786FA40F204154F
:1047A000C2F20005204629460422FF23FFF738F80D
:1047B000E8780021E23818BF0120E970B0BD0000A0
:1047C000FEE7000070B540F200440025C4F2020488
:1047D00045F0B000C0B200F029F9102000F026F931
:1047E0000020002600F022F9204680210122FCF75B
:1047F000A1FF204640210122FCF79CFF204680219A
:104800000022FCF797FF204640210022FCF792FF90
:10481000782000F021F8402000F01EF8002000F081
:104820001BF8204680210022FCF784FF204640210F
:104830000122FCF77FFF204680210122FCF77AFF4E
:10484000701C46B2B6F1FF3FCEDCE8B20135072856
:1048500028BF70BDBCE70000B0B540F20044C4F210
:104860000204054600F0800220468021FCF762FF2A
:10487000204640210122FCF75DFF20464021002216
:10488000FCF758FF05F0400220468021FCF752FF5C
:10489000204640210122FCF74DFF20464021002206
:1048A000FCF748FF05F0200220468021FCF742FF7C
:1048B000204640210122FCF73DFF204640210022F6
:1048C000FCF738FF05F0100220468021FCF732FF8C
:1048D000204640210122FCF72DFF204640210022E6
:1048E000FCF728FF05F0080220468021FCF722FF94
:1048F000204640210122FCF71DFF204640210022D6
:10490000FCF718FF05F0040220468021FCF712FF97
:10491000204640210122FCF70DFF204640210022C5
:10492000FCF708FF05F0020220468021FCF702FF99
:10493000204640210122FCF7FDFE204640210022B6
:10494000FCF7F8FE05F0010220468021FCF7F2FE9C
:10495000204640210122FCF7EDFE204640210022A6
:10496000FCF7E8FE204640210122FCF7E3FE20464A
:1049700040210022BDE8B040FCF7DCBE10B540F29B
:104980000044C4F20204204640210122FCF7D2FE7A
:10499000204680210122FCF7CDFEAE2000F046F833
:1049A000D52000F043F8802000F040F8A82000F067
:1049B0003DF83F2000F03AF8D32000F037F800200F
:1049C00000F034F8402000F031F8A12000F02EF87B
:1049D000C82000F02BF8DA2000F028F8122000F0B0
:1049E00025F8812000F022F8CF2000F01FF8D92010
:1049F00000F01CF8F12000F019F8DB2000F016F8A8
:104A0000302000F013F8A42000F010F8A62000F0E9
:104A10000DF88D2000F00AF8142000F007F8AF2000
:104A200000F004F8BDE81040FFF7CCBEB0B540F28E
:104A30000044C4F202040546204680210122FCF70E
:104A400079FE204640210122FCF774FE2046802199
:104A50000022FCF76FFE204640210022FCF76AFE90
:104A60007820FFF7F9FE0020FFF7F6FE2846FFF753
:104A7000F3FE204680210022FCF75CFE2046402108
:104A80000122FCF757FE204680210122BDE8B040FC
:104A9000FCF750BE704700002DE9F04381B02DEDCA
:104AA0000A8BB0EE408A20EEA00A28EE082A32EEE9
:104AB000000AB1EEC00AB3EE0E2A31EE021A9FEDE3
:104AC000943A9FED942AB0EE609AB4EE421AF1EE59
:104AD00010FA30EE030A32EE413A20EE004A23EE9D
:104AE000035A35EE044AB1EEC4BA03D19FED8AAA47
:104AF00047E000BFB4EE421AF1EE10FAB0EEC33A4E
:104B000018DA80EE030A10EE100AFBF762FD41ECA2
:104B1000100B01F081F851EC100B9FED770B53EC6B
:104B2000102BFBF737FC9FED760B53EC102BFBF7AC
:104B3000A3FC22E0B4EE421AF1EE10FA21DD83EE7E
:104B4000000A10EE100AFBF744FD41EC100B01F0D7
:104B500063F851EC100B9FED680B53EC102BFBF737
:104B600019FC9FED670B53EC102BFBF785FC9FEDB9
:104B7000660B53EC102BFBF766FBFBF73DFD0AEED3
:104B8000100A9FED660A2BEE0BCA9FED651A9FED8A
:104B9000652A3CEE000A30EE010A2BEE021A80EE86
:104BA000010A10EE100AFBF714FD41EC100B00F0A7
:104BB00087FE51EC100B9FED500B55EC106B3246FD
:104BC0002B46FBF7E7FB9FED4E0B57EC104B2246B5
:104BD0003B46FBF751FCFBF70FFD9FED530A804668
:104BE00030EE4C1A81EE000A10EE100AFBF7F1FCD1
:104BF00041EC100B00F064FE51EC100B32462B46DA
:104C0000FBF7C8FB22463B46FBF736FCFBF7F4FC00
:104C100089EE080A814610EE100AFBF7DAFC41EC37
:104C2000100B00F0F9FF51EC100B32462B46FBF74E
:104C3000B1FB22463B46FBF71FFCFBF7DDFC00EE19
:104C4000100A3AA0B5EE408AF1EE10FAB8BF04306F
:104C500090ED001A9FED372A31EE000AB4EE420AB9
:104C6000F1EE10FA4FF0010041DAB5EE400AF1EE34
:104C700010FA3CDD01EE108A9FED2F2A3AEE011A60
:104C80009FED2E3A32EE418AB4EE438AF1EE10FAED
:104C90002DDA9FED2B2AB4EE428AF1EE10FA26DDD2
:104CA00002EE109A9FED273A31EE021A9FED262A66
:104CB00031EE031A9FED253A31EE029AB4EE439A93
:104CC000F1EE10FA13DA9FED221AB4EE419AF1EEEA
:104CD00010FA0CDD00F078F90220B0EE480A00F07E
:104CE00073F90320B0EE490A00F06EF90020BDEC24
:104CF0000A8B01B0BDE8F083000000000080664030
:104D000000000060FB2109400000000000805640C8
:104D10000000BEC200001043000000000000614619
:104D2000000061C6000070430000E14600003E4202
:104D3000008063430000874300808D4300002A43C6
:104D400000009642000034C300008242000020436D
:104D50000000484270B52DED068B15460E46044600
:104D6000B0EE418AB0EE609AB0EE40AAFFF794FE32
:104D70003046FCF7FBFB204600F05AF92846FCF7CA
:104D8000F5FB40F20401C2F2000181ED08AA81EDB9
:104D9000099A81ED0A8A81ED04AA81ED059A0C77C2
:104DA00081F82C40002081ED068ABDEC068B70BD99
:104DB00010B540F24034C2F2000420460021FDF755
:104DC0008DFE20460421FDF789FE20460821FDF7CF
:104DD00085FE20460C21FDF781FE40F20404C2F25C
:104DE000000494EC030AFFF757FE207B00F020F943
:104DF00094E80F0004F1100C8CE80F0004F1200C73
:104E00008CE80F0010BD0000B0B540F25814C2F29B
:104E100000042078002845D040F20405C2F20005C5
:104E200094ED020A94ED031A94ED042A95ED083AE4
:104E300095ED094A95ED0A5A608830EE030A71EE45
:104E4000040A32EE051A013085ED080AC5ED090A9B
:104E500085ED0A1A6080FFF71FFE608894ED013A25
:104E600000EE100AB8EE402A95ED0C0AB4EE423A74
:104E7000F1EE10FA64DAD5ED0D0A95ED0E1AFFF792
:104E80000BFE002005F13003207060800FCB05F190
:104E9000100C8CE80F0004200021FEF7D3FF002047
:104EA000B0BD00BF40F20400C2F2000090ED042A41
:104EB00090ED053A90ED064A80ED0C0A30EE420A7C
:104EC00030EEC32A31EE443AB0EEC04AB0EEC25AD8
:104ED000B4EE454AF1EE10FAC8BFB0EE445AB0EE57
:104EE000C34AB4EE445AF1EE10FAC8BFB0EE454AD8
:104EF000B2EE045A24EE054A80EE040A82EE042A39
:104F000083EE043A00F110052ECD00F1200CC0ED27
:104F10000D0A80ED0E1A0120207000208CE82E0072
:104F200060800420012184ED014A84ED020A84EDB1
:104F3000032A84ED043AFEF785FF0220B0BD00BFCE
:104F400095ED081A9FED1F4A31EE401AB0EEC11AD6
:104F5000B4EE441AF1EE10FA1ADA95ED091AD5ED0D
:104F60000D0A31EE601AB0EEC11AB4EE441AF1EE39
:104F700010FA0DDA95ED0A5A95ED0E1A35EE415AF2
:104F8000B0EEC55AB4EE445AF1EE10FAFFF677AF20
:104F90001F280FD3BBEE0E0A33EE000AB4EE420A0E
:104FA000F1EE10FA06DD1420002100F071F8022065
:104FB000B0BD00BF4FF49670002100F069F80220E8
:104FC000B0BD00BF6F12833A0138C1B2022988BF59
:104FD000704712A202EB810191ED001A40F24031BC
:104FE000B4EE401AF1EE10FAB8BFB0EE410A80EE0E
:104FF000010A9FED0D1A9FED0D2AC2F2000109680A
:1050000000F03F0001EB800020EE010A30EE020AC2
:10501000BCEEC00A80ED0D0A704700BF0000874358
:1050200000003443000034430000FA440000FA4317
:1050300001389FED100AC0B20228B0EE401A04D821
:105040000DA101EB800090ED001A81EE000A9FEDAA
:105050000D1A9FED0D2A40F24030C2F200000068A8
:1050600020EE010A30EE020ABCEEC00A80ED100A02
:10507000704700BF0000344300000C43000033437E
:105080000000C8420000FA440000FA4370470000E4
:10509000704700008C4640F26A01C2F2000148707D
:1050A00040F23850C2F2000004224FF6FF7381F83C
:1050B00002C0FEF7F9BD0000FCF734BC70B592B039
:1050C00006AC20463021FBF7B3F8002543F640003C
:1050D0000595CDE90355CDE901550095C4F20200CF
:1050E0000168022641F080510160006800F08050A4
:1050F0000090009847F200000095C4F2000001689B
:1051000041F4804101600068A82100F480400090D3
:105110000098012006904FF4803007904FF48000F3
:105120000D9004200E90119020460C96CDE90F169C
:10513000FCF7C0FD10B172B6FEE700BF0F20CDE94D
:1051400001064FF4A05004904FF48050059001A840
:1051500005210395FCF79EFC10B172B6FEE700BF77
:1051600012B070BD4EF68850CEF20000016841F4D6
:10517000700101607047000080B540F24030C2F21B
:105180000000FDF7FBF940F28830C2F20000BDE8F4
:105190008040FDF7F3B9000010B540F6FF3E03680C
:1051A000C4F2000E40F2004C7045C4F2010C25DC44
:1051B000B0F1804F2FD040F20042C4F20002904282
:1051C00029D040F60002C4F20002904223D041F6FA
:1051D000FF72C4F20002904227DC70453ADCB0F165
:1051E000804F5BD040F20042C4F20002904255D0A2
:1051F00040F60002C4F200024EE000BF40F600425A
:10520000C4F20002904206D0604504D00022C4F2ED
:1052100001029042DBD14A6823F07003134341F648
:10522000FF72C4F200029042D7DD43F6FF72C4F26F
:105230000102904220DC42F20002C4F200029042DD
:105240002CD00022C4F20102904227D0604525D024
:1052500028E000BF40F60042C4F2000290421DD098
:1052600041F60002C4F20002904217D041F600421B
:10527000C4F2000210E000BF44F20002C4F20102D6
:1052800090420BD044F60002C4F20102904205D0D5
:1052900044F20042C4F20102904203D1CA6823F4EE
:1052A0004073134323F080024B69D1F800E08C680F
:1052B0001A430260C46240F48062C0F828E062458C
:1052C00004BF09690163012141610169C90708BF80
:1052D00010BD016921F00101016110BD40F238509B
:1052E000C2F20000FDF74EBE40F28050C2F2000054
:1052F000FDF748BE806B0021C185C184FDF740BE2B
:10530000806B01684A6990F84130212B2DD112F051
:1053100080022AD00021C184016851E8031F02687D
:1053200021F0C00142E80313DBB1016851E8031F1B
:10533000026821F0C00142E8031393B1016851E80B
:10534000031F026821F0C00142E803134BB101685A
:1053500051E8031F026821F0C00142E80313002B4B
:10536000DAD1202180F841100168496990F8422083
:10537000222A40F07D8011F0400179D00021C185C2
:10538000016851E8031F026821F4907142E8031399
:10539000BBB3016851E8031F026821F4907142E831
:1053A000031373B3016851E8031F026821F490717D
:1053B00042E803132BB3016851E8031F026821F48C
:1053C000907142E80313002BDAD11AE0016851E82A
:1053D000051F026821F0010142E80513DBB10168F5
:1053E00051E8051F026821F0010142E8051393B15D
:1053F000016851E8051F026821F0010142E8051328
:105400004BB1016851E8051F026821F0010142E833
:105410000513002BDAD1016B012924D1016851E871
:10542000031F026821F0100142E80313DBB1016899
:1054300051E8031F026821F0100142E8031393B101
:10544000016851E8031F026821F0100142E80313CC
:105450004BB1016851E8031F026821F0100142E8D6
:105460000313002BDAD1202180F8421000210163C0
:10547000416C41F010014164FDF782BD0168806B11
:105480000968C90500F19F800021C185016851E8C4
:10549000031F026821F4807142E80313E3B101683D
:1054A00051E8031F026821F4807142E803139BB1A5
:1054B000016851E8031F026821F4807142E8031378
:1054C00053B1016851E8031F026821F4807142E87A
:1054D0000313002BDAD100BF016851E8051F0268F1
:1054E00021F0010142E80513BBB3016851E8051F33
:1054F000026821F0010142E8051373B3016851E825
:10550000051F026821F0010142E805132BB3016871
:1055100051E8051F026821F0010142E80513002B44
:10552000DAD11AE0016851E8051F026821F0400154
:1055300042E80513DBB1016851E8051F026821F05C
:10554000400142E8051393B1016851E8051F026864
:1055500021F0400142E805134BB1016851E8051FF5
:10556000026821F0400142E80513002BDAD1202126
:1055700080F84210016B012925D100BF016851E874
:10558000031F026821F0100142E80313DBB1016838
:1055900051E8031F026821F0100142E8031393B1A0
:1055A000016851E8031F026821F0100142E803136B
:1055B0004BB1016851E8031F026821F0100142E875
:1055C0000313002BDAD100214163016B012918BFBD
:1055D000FEF7F4BA818DFDF7D1BC0000806B01218C
:1055E0004163016B012918BFFEF75CBB818D49083F
:1055F000FDF7C4BC81B090F84210222921D1836804
:105600000246B3F5805F09D152F8281F52F8183CC2
:10561000002B63D003685B680AE000BF52F8281FC4
:1056200013B90369002BF5D003685B6803F07F03AF
:105630000B70116801311160C18D01390A04C185F7
:1056400002D001B0704700BF0168CA6822F0200292
:10565000CA60CA6822F48072CA604A6922F00102F4
:105660004A61202180F8421000214163026B012A27
:105670003CD10163016851E8031F026821F0100169
:1056800042E80313DBB1016851E8031F026821F00F
:10569000100142E8031393B1016851E8031F026847
:1056A00021F0100142E803134BB1016851E8031FD8
:1056B000026821F0100142E80313002BDAD10168DF
:1056C0000A68D20606D5002200920A68009249684C
:1056D00000910099818D01B0FDF750BC02685268BD
:1056E0006FF35F2221F8022B8162A5E701B0FEF77C
:1056F00065BA0000B0B50446006804F108030ECB9B
:105700000569194325F440552A4302616269E3693A
:105710001143C268194349F20C639A431143C160B3
:105720004169A26921F4407141F20043114340F400
:105730008062C4F201039A42416103D1FCF770FA1E
:1057400002E000BFFCF758FAE1694FF69C75636808
:105750001922C0F6FF75B1F5004FA0FB02011FD161
:105760005A00DB0FFAF72CFD48F21F51C5F2EB117E
:10577000A0FB01235A0905F1805302FB03003223E9
:1057800003EBC000A0FB01014FF4F87000EA111018
:1057900000EB0210C1F34211084421688860B0BDDB
:1057A0009A009B0FFAF70CFD48F21F51C5F2EB115E
:1057B000A0FB01235A0902FB0500322303EB001072
:1057C000A0FB0101F02000EA511000EB0210C1F330
:1057D0004311084421688860B0BD0000FEE7000066
:1057E000FCF7AEF8FFF76AFCFEF718FCFEF7D8FBF3
:1057F000FEF774FDFEF7D8FDFEF73EFEFEF7A4FEB1
:10580000FEF7C4FCFEF7DEFCFEF704FFFEF72AFFFE
:10581000FEF752FFFEF798FC05200121052601271F
:10582000FEF710FBFFF7AAF8FFF7C2FA4FF47A7001
:10583000FBF79CFE40F2700544F60964C2F20005D5
:10584000C0F6000413E000BF032001210326FEF789
:10585000F9FA95EC020AB5F908002146FBF71AF8A7
:105860000420FBF731FA0220FBF72EFA0027F0B2F2
:105870000021FEF7E7FAFE07002EE5D10520012101
:10588000FEF7E0FA002EF9D0DEE703B401984100FC
:10589000009850EAC12018BF04204A0D18BF40F0FC
:1058A000010040F2FF72B2EB515F08BF40F002000E
:1058B000012808BF052002B070470000000000006A
:1058C00010B5B94A2DED020B2DED0C8B82B00F995E
:1058D00021F000409FEDB6CB90422CDBA0F140536D
:1058E0000E9AA3F17F631A430FD0B349884202DCBA
:1058F00016D10E98A0B19DED0E0B02B0BDEC0C8B35
:1059000002B0BDE8104000F06FBB0029C1BF9FEDA1
:10591000AC0B02B0BDEC0C8B02B0C8BF10BD16E0E2
:10592000012000F09DFB02B0BDEC0C8B02B0BDE885
:10593000104000F065BBA44A9FEDA59B9FEDA6AB70
:1059400090425EDAA6499FEDA8CB814208DBB0EE1B
:105950004C0AF0EE6C0A02B0BDEC0C8B02B010BD2C
:105960009DED0E0B53EC102B51EC100BFAF712FDC2
:1059700041EC180B9E480621B0EE480AF0EE680A8A
:10598000784400F0B5FA53EC182B51EC100BFAF7F1
:1059900001FD41EC1B0B9748B0EE480AF0EE680A97
:1059A0000421784400F0A4FA53EC182B51EC100BAE
:1059B000FAF7F0FC53EC192BFAF745FC41EC100B0D
:1059C00051EC1B0B53EC102BFAF756FD41EC100B6E
:1059D00053EC102B9DED0E0B51EC100BFAF7DAFC8B
:1059E00053EC1A2BFAF7D3FC9DED0E1B53EC112B45
:1059F000FAF7CDFC53EC1C2BFAF7C9FC41EC100B69
:105A0000A9E79FED7D8B9FED7EBB9DED0E0B0029E1
:105A100053EC192B51EC100B52DAFAF714FC53EC3F
:105A2000182BFAF7B7FC41EC180B77480621B0EEBB
:105A3000480AF0EE680A784400F05AFA53EC182B42
:105A400051EC100BFAF7A6FC41EC1D0B6F48B0EEC1
:105A5000480AF0EE680A0421784400F049FA53EC51
:105A6000182B51EC100BFAF795FC53EC192BFAF7A5
:105A7000EAFB41EC190B51EC180B00F003FB41EC75
:105A8000180B53EC192B51EC1D0BFAF7F5FC53ECEA
:105A9000182BFAF77FFC53EC1A2BFAF775FC41EC44
:105AA000100B51EC180B53EC102BFAF7CCFB53EC0A
:105AB0001B2BFAF76FFC53EC1C2BFAF768FC6DE01C
:105AC000FAF765FC53EC182BFAF764FC41EC180B61
:105AD00000F0D8FA41EC1A0B00208DED00AB0090DD
