:020000040800F2
:10000000481600209D0100083D6B0008415A000879
:10001000D5690008E5080008B5A400080000000044
:100020000000000000000000000000001186000831
:10003000C513000800000000696E0008558C000818
:10004000B7010008B7010008B7010008B7010008B0
:10005000B7010008B7010008B7010008B7010008A0
:10006000B7010008B7010008B7010008ED1100084A
:10007000B7010008FD110008B7010008B70100082A
:10008000B7010008B7010008B7010008B701000870
:10009000B7010008B7010008B7010008B701000860
:1000A000B70100082D8D0008B7010008B70100084E
:1000B000B7010008B7010008B7010008B701000840
:1000C000B7010008B7010008B7010008B701000830
:1000D000B7010008B7010008B7010008B701000820
:1000E000B7010008B7010008B7010008B701000810
:1000F000B7010008B7010008B7010008B701000800
:10010000B7010008B7010008B7010008B7010008EF
:10011000B99C0008C99C0008B7010008B701000895
:10012000B7010008B70100080D120008B701000868
:10013000B7010008B7010008B7010008B7010008BF
:10014000B7010008B7010008B7010008B7010008AF
:10015000B7010008B70100081D120008B701000828
:10016000B7010008B7010008B7010008B70100088F
:10017000B7010008B7010008B7010008000000003F
:10018000B7010008B7010008DFF80CD000F040FB11
:1001900000480047D5A500084816002006488047BB
:1001A00006480047FEE7FEE7FEE7FEE7FEE7FEE75C
:1001B000FEE7FEE7FEE7FEE7198D0008890100086B
:1001C0002DE9F05F0546002092469B46884606468C
:1001D000814640241BE0284641464746224600F01F
:1001E0005FFA53465A46C01A914110D31146184639
:1001F000224600F046FA2D1A67EB01084F462246C8
:100200000120002100F03DFA17EB00094E41201EAD
:10021000A4F10104DFDC484631462A464346BDE8E6
:10022000F09FD2B201E000F8012B491EFBD27047CB
:100230000022F6E710B513460A4604461946FFF7B2
:10024000F0FF204610BD2DE9FE4F804681EA0300F5
:10025000C00F0C46009021F0004123F00045B8EBA0
:100260000200A94105D24046214690461C460B4655
:10027000024623F00040104347D0270DC7F30A0081
:10028000C3F30A510290401A019040286BDAC3F37D
:10029000130040F4801B0098924620B10023D2EB5B
:1002A000030A63EB0B0B01985946C0F1400250461C
:1002B00000F0E7F906460D4650465946019A00F00F
:1002C000FFF910EB08006141002487EA115284EA2B
:1002D000E7731A4340D0009A62B3019A012A4FEAA9
:1002E000075215DC001B61EB02014FF0004202EAED
:1002F0000752CDE90042001C41F5801132462B46E1
:1003000000F036FA03B0BDE8F08F40462146F9E729
:10031000001B61EB0201001C41F5801300185B41DA
:100320002018A2F5001747EB030140EAD570B61973
:100330006D4111E06D084FEA360645EAC0754FEA97
:100340000752001B61EB0201001C41F580114908B6
:100350004FEA30000019514132462B4603B0BDE848
:10036000F04F00F0F6B90098012240000023D0EBD6
:10037000020263EBE073009821464FEAE074B8EBA9
:10038000000061EB0401E9E783F000435BE781F0E3
:10039000004158E72DE9FE4F81EA030404F00044D0
:1003A00021F0004100944FF0000B23F0004350EA8D
:1003B00001045ED052EA03045BD0C3F30A54C1F3D4
:1003C0000A552C44A4F2F3340194A0FB0254C1F367
:1003D000130141F48011C3F3130343F4801301FBB1
:1003E000024400FB034E840A970A44EA815447EA18
:1003F0008357A4FB076802958D0A05FB07854FEA22
:10040000932C04FB0C542705029D4FEA065847EA3B
:100410001637B5EB08056EEB070C870E920E47EA10
:10042000811742EA8312A7FB0201B6EB0B0164EBD2
:1004300000042B0D43EA0C335E1844EB1C50DA46E3
:100440005146E7FB0201C5F313044FEA0B3343EABD
:1004500014534FEA0432019C43EA0603A4F10C044E
:100460000294009CCDE900B400F082F903B0BDE82D
:10047000F08F00200146F9E72DE9F04D81EA0304F1
:1004800004F0004B21F0004514464FF0000A23F021
:10049000004150EA050220D054EA01021DD0C5F304
:1004A0000A570246C5F31303C1F31300C1F30A56FA
:1004B00040F4801543F48013A7EB0608101BD646C2
:1004C00008F2FD3873EB050002D308F1010801E0E2
:1004D00092185B41B8F1000F03DA00200146BDE835
:1004E000F08D00204FF48011064684460EE0171B65
:1004F00073EB050705D3121B63EB050306434CEAB8
:10050000010C49084FEA300092185B4150EA01079C
:10051000EDD152EA030012D082EA040083EA050119
:10052000084305D0101BAB4106D20122002306E090
:1005300000224FF0004302E06FF0010253101AEB6B
:1005400006004CEB085110EB0A0041EB0B01BDE833
:10055000F04D00F0FEB830B5041E71F1000404DB6C
:100560004FF00044404264EB0101141E73F100049B
:1005700005DB1C464FF00043524263EB0403101AA4
:100580008B4101D2012030BD002030BD0EB5C10F1E
:1005900080EAE0700844CA07002140F233438DE846
:1005A0000E000A460B4600F0E3F803B000BD0EB59E
:1005B00040F2334102910021CDE900110A460B4679
:1005C00000F0D6F803B000BD20F00040C20DC0F32B
:1005D000160040F400007F2A02DA0020014670472E
:1005E0000021962A03DCC2F19602D0407047963A69
:1005F00000F047B8C1F30A52C1F3130140F2FF33D0
:1006000041F480119A4202DA00200146704740F21C
:1006100033439A42A2F2334202DC524200F040B825
:1006200000F02FB800F0004230F000400AD0C10DB9
:1006300001F56071C0F3160042EA0151C20840079B
:100640001143704700200146704701F0004330B469
:1006500021F0004150EA010206D00A0DA2F56072B5
:10066000C1F31301002A02DC30BC00207047440FA4
:1006700044EAC104C100E01830BC00EBC25000F0F5
:1006800031B8202A04DB203A00FA02F1002070473A
:100690009140C2F1200320FA03F3194390407047C0
:1006A000202A04DB203A21FA02F00021704721FAC7
:1006B00002F3D040C2F1200291400843194670472E
:1006C000202A06DBCB17203A41FA02F043EAE07316
:1006D00006E041FA02F3D040C2F120029140084303
:1006E000194670470029A8BF7047401C490008BF41
:1006F00020F00100704710B4B0FA80FC00FA0CF052
:1007000050EA010404BF10BC704749B1CCF1200489
:1007100021FA04F411FA0CF118BF01212143084316
:10072000A3EB0C01CB1D4FEA00614FEA102042BF42
:10073000002010BC704700EBC35010440029A4BF38
:1007400010BC7047401C490008BF20F0010010BCDD
:10075000704710B5141E73F1000408DA401C41F113
:10076000000192185B411A4301D120F0010010BD35
:100770002DE9F04D92469B4611B1B1FA81F202E0AB
:10078000B0FA80F220329046FFF77BFF04460F4616
:1007900040EA0A0041EA0B0153465A46084313D087
:1007A000114653EA010019D0C8F140025046FFF744
:1007B00077FF05460E46504659464246FFF761FF11
:1007C000084305D0012004E020463946BDE8F08DFD
:1007D0000020054346EAE0762C4337430A98630538
:1007E000E40AA0EB08000022FD0A44EA47540A305C
:1007F00002D500200146E9E7010510196941DDE94C
:10080000084500196941BDE8F04DA2E70020704796
:100810001CB509480090094801900546009C06E077
:10082000E06840F0010394E8070098471034AC42B8
:10083000F6D3FFF7ADFC0000E0BC000800BD0008E7
:100840002DE9F04D00231A461B1A8A4103DB0020D4
:100850000146BDE8F08DC1F30A52C1F3130141F422
:1008600080154FF0000BD10702D100186D41521EC8
:100870000027044640F2FF11384601EB620A3E466B
:100880008046024600204FF48011FFF709FFC2198D
:100890007141BB1846EB0100B4EB030C75EB000C87
:1008A00004D3E41A65EB000517460E46241908F137
:1008B00001006D4180463428E3DDF91946EB06005E
:1008C000091BA84103D24FF0FF32134601E000227A
:1008D00013461BEB070046EB0A51BDE8F04DFFF74E
:1008E00038BF0000FFE7FEE7B0B594B08DED130A06
:1008F000CDED120A8DF847001091139807901298C9
:1009000008909DF847008DF8240040F2F400C2F2F0
:100910000000007A01460691032874D80699DFE8A2
:1009200001F00216325640F2F400C2F200000168F3
:100930000D9141680E91007A8DF83C0007980A905D
:1009400008980B909DF847008DF830005CE040F26D
:10095000F400C2F2000090ED010AB1EE400A8DED04
:100960000D0A01680E91007A8DF83C009DED080A91
:10097000B1EE400A8DED0A0A07980B909DF84700EA
:100980008DF8300040E040F2F400C2F2000090ED3B
:10099000000AB1EE400A8DED0D0A90ED010AB1EEAC
:1009A000400A8DED0E0A007A8DF83C009DED070A95
:1009B000B1EE400A8DED0A0A9DED080AB1EE400A3B
:1009C0008DED0B0A9DF847008DF830001CE040F2D9
:1009D000F400C2F2000041680D9190ED000AB1EE02
:1009E000400A8DED0E0A007A8DF83C0008980A90B6
:1009F0009DED070AB1EE400A8DED0B0A9DF8470008
:100A00008DF8300000E0FFE740F2F401C2F200018F
:100A10000798089A099B8B604A600860109D0A98A5
:100A20000B990C9A0D9BDDF838C00F9CEE46CEF862
:100A300010500025CEF80C50CEF80850CEF80440E7
:100A4000CEF800C000F004F814B0B0BD0000000003
:100A5000B0B5A2B00DF1580CCDF850C014468E467A
:100A600084461498279A26992A9D299D289D219489
:100A7000CDF880E0CDF87CC01E921D911C9340F211
:100A8000C412C2F20002002111609DED290AB8EEE5
:100A9000400A40F21411C2F2000181ED000A90ED0B
:100AA000090A90ED061A30EE410A10EE100AFFF71F
:100AB000B9FD41EC100B51EC100B9FEDE70B52EC24
:100AC000103BD20F139262F3DF7141EC100B51EC2B
:100AD000100B9FEDE30B53EC102BFFF75BFC41EC8D
:100AE000100B51EC100BFFF7B0FD01461498199153
:100AF00090ED0A0A90ED071A30EE410A10EE100A46
:100B0000FFF790FD139A41EC100B51EC100B62F3C0
:100B1000DF7141EC100B51EC100B9FEDD30B53EC3C
:100B2000102BFFF737FC41EC100B51EC100BFFF7CB
:100B30008CFD01461498189190ED030A9FEDCC1A94
:100B4000B4EE410AF1EE10FA03DCFFE70020199041
:100B50000FE0149890ED030AB7EE001AB4EE410AC4
:100B6000F1EE10FA04DCFFE74FF07E501990FFE73A
:100B7000FFE7149890ED020A9FEDBD1AB4EE410A0A
:100B8000F1EE10FA03DCFFE7002018900FE0149854
:100B900090ED020AB7EE001AB4EE410AF1EE10FA37
:100BA00004DCFFE74FF07E501890FFE7FFE7149852
:100BB00090ED090A90ED061A30EE410A4FF0FF3130
:100BC000B5EE400AF1EE10FA0A46A8BF012240F243
:100BD0008813C2F200031A7090ED0A0A90ED071A0A
:100BE00030EE410AB5EE400AF1EE10FAA8BF01213D
:100BF00040F28912C2F20002117090ED030AB5EEC4
:100C0000400AF1EE10FA2BD1FFE7149890ED020A9A
:100C1000B5EE400AF1EE10FA22D0FFE740F2D9100B
:100C2000C2F200000121017040F2D812C2F20002AB
:100C30000020107040F24410C2F20000017040F237
:100C40004512C2F20002FF20107040F24612C2F2BA
:100C50000002117040F24711C2F20001087056E024
:100C6000149890ED020AB5EE400AF1EE10FA2BD17D
:100C7000FFE7149890ED030AB5EE400AF1EE10FA82
:100C800022D0FFE740F2D911C2F200010020087023
:100C900040F2D811C2F200010120087040F2441263
:100CA000C2F20002FF21117040F24512C2F20002AE
:100CB000117040F24611C2F20001087040F2471173
:100CC000C2F20001087021E040F2D911C2F2000125
:100CD0000120087040F2D811C2F20001087040F201
:100CE0004411C2F200010020087040F24511C2F226
:100CF0000001087040F24611C2F20001087040F293
:100D00004711C2F2000108702990FFE7FFE79FED4D
:100D1000590A8DED0F0AF0EE000ACDED100A0AF027
:100D200053F9DDED100A8DED0E0A9DED280AB8EE9F
:100D3000400A0AF049F99DED0E1ADDED100A1498EB
:100D4000B0EE402A9DED0F0A31EE421A40F25C01EE
:100D5000C2F20001119191ED002A32EE022A81EED9
:100D6000021A80ED011A0AF02FF9DDED100A8DED5F
:100D7000120A9DED290AB8EE400A0AF025F91199E8
:100D80001498B0EE401A9DED120A30EE410A91ED32
:100D9000001A31EE011A80EE010A80ED000A40F2DD
:100DA000D810C2F200000078012840F0CA80FFE7A6
:100DB000149890ED010A90ED001A30EE010A90EDC2
:100DC000031A0020B4EE410AF1EE10FAC8BF012068
:100DD0008DF857009DF8570001284DD1FFE7149872
:100DE00040F25C01C2F2000191ED000A30EE000A0F
:100DF0008DED0A0A90ED030A8DED090A9DED280A92
:100E0000B8EE400AF0EE000ACDED0B0A0AF0DCF86D
:100E10009DED092ADDED0B0AB0EE401A9DED0A0AA0
:100E200020EE020A30EE010A8DED0C0A9DED290A32
:100E3000B8EE400A0AF0C8F89DED0B1AB0EE402A51
:100E40009DED0C0A30EE020A80EE010A0AF0EEFB7C
:100E50008DED0D0A15E000BF00000000000000004D
:100E6000000000A09999094000000040333307407A
:100E7000CDCCCC3D00409C459FEDDA0A8DED0D0AAE
:100E8000FFE79DED0D0A40F2E800C2F2000080EDA0
:100E9000000A9DF85700012805D1FFE79FEDD20A0F
:100EA0008DED080A15E0149890ED030A90ED001AF4
:100EB00030EE410A90ED011A30EE410A40F2E800AE
:100EC000C2F2000090ED001A80EE010A8DED080AD2
:100ED000FFE714989DED080ABDEEC00A80ED050AF3
:100EE00040F2E801C2F2000191ED000A9DED281ADE
:100EF000B8EE411A30EE410A40F25C00C2F2000046
:100F000090ED001A80EE010ABDEEC00A40F2BC125C
:100F1000C2F2000282ED000A91ED000A9DED291A4D
:100F2000B8EE411A30EE410A90ED001A80EE010A47
:100F3000BDEEC00A40F20010C2F2000080ED000ACF
:100F40000CE000201B9040F2BC11C2F200010860CE
:100F500040F20011C2F200010860FFE740F2D91030
:100F6000C2F200000078012840F0B980FFE7149831
:100F700090ED010A90ED001A30EE010A90ED021A90
:100F80000020B4EE410AF1EE10FAC8BF01208DF83E
:100F900057009DF8570001283CD1FFE7149840F214
:100FA0005C01C2F2000191ED000A30EE000A8DED05
:100FB000040A90ED020A8DED030A9DED280AB8EEB1
:100FC000400AF0EE000ACDED050A09F0FDFF9DEDA7
:100FD000032ADDED050AB0EE401A9DED040A20EE6D
:100FE000020A30EE010A8DED060A9DED290AB8EEDF
:100FF000400A09F0E9FF9DED051AB0EE402A9DED8B
:10100000060A30EE020A80EE010A0AF00FFB8DEDAF
:10101000070A04E09FED730A8DED070AFFE79DEDD7
:10102000070A40F2EC00C2F2000080ED000A9DF8D1
:101030005700012805D1FFE79FED6B0A8DED020AED
:1010400015E0149890ED020A90ED001A30EE410A76
:1010500090ED011A30EE410A40F2EC00C2F20000BD
:1010600090ED001A80EE010A8DED020AFFE7149858
:101070009DED020ABDEEC00A80ED040A40F2EC01CB
:10108000C2F2000191ED000A9DED281AB8EE411A56
:1010900030EE410A40F25C00C2F2000090ED001A0E
:1010A00080EE010ABDEEC00A40F2C012C2F2000298
:1010B00082ED000A91ED000A9DED291AB8EE411A61
:1010C00030EE410A90ED001A80EE010ABDEEC00A32
:1010D00040F20410C2F2000080ED000A0CE0002093
:1010E0001A9040F2C011C2F20001086040F20411EF
:1010F000C2F200010860FFE71B9840F2BC11C2F287
:1011000000010968084440F20011C2F200010968B8
:10111000014440F2D010C2F2000001601A9940F27E
:10112000C012C2F200021268114440F20412C2F26C
:10113000000212680A4440F2D411C2F200010A60AF
:1011400000680968884207DDFFE740F2D010C2F26C
:1011500000000068019006E040F2D410C2F20000E6
:1011600000680190FFE7019840F24011C2F20001CF
:10117000086040F23D11C2F200010120087040F207
:10118000F001C2F20001087040F2FC30C2F200002F
:1011900002F0F2FDFFE740F23D10C2F200000078DD
:1011A000012804D1FFE70A2001F060F9F3E70121EB
:1011B000084604F0EFFE0A2001F058F99DF8780087
:1011C0009DF88410884207D0FFE79DF884009DF8C1
:1011D000781008F0EDF8FFE70120002104F0DAFEB6
:1011E00022B0B0BD00409C450000000080B540F238
:1011F0004020C2F2000000F08FFE80BD80B540F2BA
:10120000E010C2F2000000F087FE80BD80B540F221
:10121000A020C2F2000000F07FFE80BD80B540F249
:101220000030C2F2000000F077FE80BD82B0019075
:101230000198007810384AF6AB21CAF6AA21A0FB23
:1012400001100009009000994BF62830C0F600000C
:10125000405C0199C8650098042807D3FFE701990D
:101260000868042262F30900886506E001990868AD
:1012700040F2FF3290438865FFE70198806D02B02D
:101280007047000086B0059000208DF81300059887
:10129000806A03900598806910BBFFE7039802906D
:1012A00003281BD80299DFE801F0020D0218059807
:1012B00090F82F00C00720B1FFE701208DF8130040
:1012C000FFE70CE00598C06AB0F1C07F04D1FFE7EA
:1012D00001208DF81300FFE701E000E0FFE745E0A3
:1012E00005988069B0F5005F25D1FFE7039801906C
:1012F00003281ED80199DFE801F00206021101203F
:101300008DF8130016E0059890F82F00C00720B163
:10131000FFE701208DF81300FFE70BE00598C06A96
:10132000B0F1C07F04D1FFE701208DF81300FFE783
:1013300000E0FFE719E003980090032804D3FFE7DB
:101340000098032804D00EE001208DF813000BE074
:10135000059890F82F00C00720B1FFE701208DF815
:101360001300FFE700E0FFE7FFE7FFE79DF813004A
:1013700006B0704784B003900291019200930398E5
:101380000168086820F480200860009803990968C3
:10139000486003988068402809D1FFE701980399C5
:1013A00009688860029803990968C86008E0029893
:1013B000039909688860019803990968C860FFE784
:1013C00004B070477047000072B6FFE7FEE7000008
:1013D00070B5AAB08DF8A60000202690279040F2A4
:1013E000F401C2F20001097A8DF8A0102590249032
:1013F00023909DF8A600023801462291032800F2AE
:10140000FE832299DFE811F00400A6019302310364
:1014100040F25C01C2F2000145F2D230C3F6FB702B
:1014200008600221084607F021F940F21011C2F2CB
:1014300000010120219008704BF66040C0F60000CA
:1014400090ED000AD0ED010A90ED021A032064220B
:10145000114605F0E3FE219940F2D602C2F20002E5
:1014600000209071084604F095FDFFE740F2D60099
:10147000C2F200008079032877D0FFE740F2D6005F
:10148000C2F20000807901286ED1FFE740F2D60158
:10149000C2F200011F9188780A794FF0FF31002ACB
:1014A00008BF01214843FFF771F841EC100B51ECE4
:1014B000100B9FEDCB0B53EC102BFEF76BFF41ECA9
:1014C000100B51EC100BFFF7C0F8269024982790D2
:1014D00040F2F400C2F20000017A8DF8A010007A08
:1014E0008DF8940023982499259A269BDDF89CC0BA
:1014F000289C4AF2B946C0F60006EE46CEF81060C7
:1015000000252095CEF80C50CEF80850CEF80440B7
:10151000CEF800C0FFF79CFA1F9923982690C87850
:101520004979012918BF4FF0FF31484300EE100AF6
:10153000B8EEC00A8DED270A23982499259A269B98
:10154000DDF89CC0289CEE46CEF81060CEF80C501A
:10155000CEF80850CEF80440CEF800C0FFF778FA75
:101560001F9920988871FFE780E701201E900021D5
:101570001D9104F00FFD1D981E9940F2D602C2F293
:10158000000290714BF66040C0F6000090ED000A3A
:10159000D0ED010A90ED021A9FED932A31EE021A66
:1015A000032005F0C3FEFFE740F2D600C2F20000C0
:1015B000807901280CD0FFE70121084604F0EAFCFD
:1015C000642000F053FF0221084607F04FF8EBE7D4
:1015D00001201C9000211B9104F0DCFC1B981C993D
:1015E00040F2D602C2F200029071084604F0D2FC2A
:1015F00040F25C01C2F2000140F6DB70C3F6C96044
:101600000860FFE740F2D600C2F2000080790328AC
:1016100000F08580FFE740F2D600C2F2000080793A
:1016200001287BD1FFE740F2D601C2F200011991F7
:1016300088780A794FF0FF31002A08BF012148431A
:10164000FEF7A4FF41EC100B51EC100B9FED680B63
:1016500053EC102BFEF79EFE41EC100B51EC100BDF
:10166000FEF7F3FF26902498279040F2F400C2F290
:101670000000017A8DF8A010007A8DF8940023986C
:101680002499259A269BDDF89CC0289C4AF2B946ED
:10169000C0F60006EE46CEF8106000251A95CEF88A
:1016A0000C50CEF80850CEF80440CEF800C0FFF73A
:1016B000CFF9199923982690C8784979012918BF3C
:1016C0004FF0FF314843FEF761FF41EC100B51EC46
:1016D000100B9FED490B53EC102BFEF75BFE41EC1A
:1016E000100B51EC100BFEF7B0FF279023982499B4
:1016F000259A269BDDF89CC0289CEE46CEF810600B
:10170000CEF80C50CEF80850CEF80440CEF800C009
:10171000FFF79EF919991A988871FFE772E701207F
:101720000021189104F036FC0920022106F09EFFEA
:10173000189840F25C02C2F2000245F2D231C4F2C3
:101740007B11116040F21011C2F2000108708DF897
:10175000A70065E2032016900121179106F086FF8D
:101760001698179940F21012C2F20002117040F25E
:101770005C02C2F2000245F2D231C3F6FB71116085
:101780004BF66041C0F6000191ED000AD1ED010A6F
:1017900091ED021A4FF42F714FF4FA7205F03EFDED
:1017A000179940F2D602C2F200020020907108465A
:1017B00004F0F0FBFFE740F2D600C2F200008079AF
:1017C000032800F09D80FFE740F2D600C2F200003F
:1017D0008079012840F0938016E000BF00BF00BF71
:1017E000CDCCCCCCCCCCEC3F0000F0C200BF00BFD5
:1017F0009A9999999999D93F666666666666E63FB1
:10180000333333333333E33F40F2D601C2F20001C6
:10181000149188780A794FF0FF31002A08BF01211E
:101820004843FEF7B3FE41EC100B51EC100B1FEDDB
:101830000C0B53EC102BFEF7ADFD41EC100B51ECF3
:10184000100BFEF702FF26902498279040F2F40038
:10185000C2F20000017A8DF8A010007A8DF8940091
:1018600023982499259A269BDDF89CC0289C4AF24F
:10187000B946C0F60006EE46CEF810600025159574
:10188000CEF80C50CEF80850CEF80440CEF800C088
:10189000FFF7DEF8149923982690C8784979012932
:1018A00018BF4FF0FF314843FEF770FE41EC100BBC
:1018B00051EC100B9FEDE00B53EC102BFEF76AFD83
:1018C00041EC100B51EC100BFEF7BFFE2790239854
:1018D0002499259A269BDDF89CC0289CEE46CEF8DC
:1018E0001060CEF80C50CEF80850CEF80440CEF878
:1018F00000C0FFF7ADF8149915988871FFE75AE713
:1019000001200021139104F045FB139840F25C0282
:10191000C2F2000245F2D231C4F27B11116040F2F2
:101920001011C2F2000108708DF8A70078E10420C0
:101930000121129106F09AFE4BF66040C0F60000BD
:1019400090ED000AD0ED010A90ED021A0320642206
:10195000114605F063FC129940F2D602C2F2000271
:1019600000209071084604F015FBFFE740F2D60016
:10197000C2F20000407903285CD0FFE70220012179
:1019800004F008FB40F2D600C2F2000040790128C2
:101990004FD1FFE740F2D600C2F20000109000796C
:1019A000B0FA80F041096B46002211925A600F2074
:1019B0000E9018600120B3EE040A8DED0D0A05F0BB
:1019C0000BF89DED0D0A1099119A0E9809790029CE
:1019D00018BF01216B465A60186002200F9004F076
:1019E000FBFF9DED0D0A1099119A0E980979B1FA35
:1019F00081F149096B465A601860032004F0ECFF3E
:101A00009DED0D0A1099119A0E980979002918BFB9
:101A100001216B465A601860042004F0DDFF04F0D9
:101A200081FB0F98119904F0B5FA1099119848713B
:101A3000FFE79BE704F08EFB022000210C9104F0ED
:101A4000A9FA0C99012004F0A5FA00F0F9F80C9815
:101A500040F2DC11C2F20001096840F2C812C2F281
:101A6000000211608DF8A700DAE0052001210B913A
:101A700006F0FCFD0B9A40F2AE10C2F200000270BC
:101A80004BF69040C0F6000090ED000AD0ED010A40
:101A900090ED021A0320114605F0C0FB0B9940F2AD
:101AA0005C02C2F2000245F2D230C3F6FB70106055
:101AB00040F2D602C2F2000200209071084604F003
:101AC00069FAFFE740F2D600C2F2000080790328ED
:101AD0007AD0FFE740F2D600C2F2000080790128F8
:101AE00071D1FFE701210A91084604F053FA05205D
:101AF000099000250895294606F0B8FD40F2D60168
:101B0000C2F200010791C8784979012918BF4FF046
:101B1000FF314843FEF73AFD41EC100B51EC100B3E
:101B20009FED410B53EC102BFEF734FC41EC100BF6
:101B300051EC100BFEF789FD079A0A9926909078D0
:101B40001279002A08BF4FF0FF314843FEF71EFD0F
:101B500041EC100B51EC100B9FED350B53EC102B9F
:101B6000FEF718FC41EC100B51EC100BFEF76DFD6D
:101B7000279040F2F400C2F20000017A8DF8941030
:101B8000007A8DF8A00023982499259A269BDDF8E9
:101B90009CC0289C4AF2B946C0F60006EE46CEF834
:101BA0001060CEF80C50CEF80850CEF80440CEF8B5
:101BB00000C0FEF74DFF079B089A09980A999A7191
:101BC00006F054FDFFE77DE70920022106F04EFDF7
:101BD00001200021069104F0DDF9069840F2AE11D3
:101BE000C2F20001087040F25C02C2F2000245F24B
:101BF000D231C4F27B1111608DF8A70010E00920EA
:101C0000022106F033FD40F25C01C2F2000145F210
:101C1000D230C4F27B10086000208DF8A700FFE7E7
:101C20009DF8A7002AB070BD9A9999999999D93FC2
:101C3000333333333333D33F666666666666E63FD7
:101C400080B588B000200690059040F21C10C2F2CA
:101C50000000B0F8050000EE100AB8EEC00A9FEDD3
:101C60005D1A20EE010A9FED5C2A80EE020A8DEDDE
:101C7000060A9DED060A40F23C60C2F2000090EDBB
:101C8000002A30EE420A8DED050A9DED050AB4EEFC
:101C9000410AF1EE10FA09DBFFE79DED050A9FED21
:101CA000511A30EE010A8DED050A13E09DED050A8B
:101CB0009FED4A1AB4EE410AF1EE10FA09DCFFE793
:101CC0009DED050A9FED461A30EE010A8DED050ADD
:101CD000FFE7FFE79DED050AB0EEC00AB2EE0E1A6F
:101CE000B4EE410AF1EE10FA2FDDFFE705200121E5
:101CF00004F050F94FF4FA700490FFE70498411E85
:101D0000049118B1FFE704F025FAF7E70520002158
:101D100004F040F99DED050ABDEEC00A10EE100A70
:101D20000321039106F0C2FC039940F2DC10C2F2D9
:101D3000000090ED000ABDEEC00A10EE100A06F099
:101D4000B5FC01208DF81F0040E040F2DC10C2F22B
:101D50000000029090ED000ABDEEC00A10EE100ADD
:101D60000321019106F0A2FC01999DED050ABDEE4B
:101D7000C00A10EE100A06F099FC02999DED051AB2
:101D800091ED000A30EE010A81ED000A40F20810E0
:101D9000C2F20000026840F20C13C2F200031A60A3
:101DA000069A40F23C63C2F200031A6091ED000A09
:101DB00040F2C811C2F2000191ED001A30EE410A62
:101DC00080ED000A00208DF81F00FFE79DF81F003E
:101DD00008B080BD0000344300000047000034C359
:101DE0000000B4430000B4C380B584B002900298F0
:101DF000806D019000F050FD0090029890F8350041
:101E000002280DD0FFE7029980204865FFE702997C
:101E1000002081F83400FFE701208DF80F0055E025
:101E200002980168086820F01600086002980168AE
:101E3000486920F0800048610298006C20B9FFE7F3
:101E40000298806C38B1FFE702980168086820F0BA
:101E500008000860FFE702980168086820F00100A8
:101E60000860FFE7029800680068C007C8B1FFE794
:101E700000F012FD0099401A062811D3FFE70299DD
:101E8000202048650299032081F83500FFE7029978
:101E9000002081F83400FFE703208DF80F0015E0E3
:101EA000E0E70298C16D3F2088400199886002995F
:101EB000012081F83500FFE70299002081F8340005
:101EC000FFE7FFE700208DF80F00FFE79DF80F0008
:101ED00004B080BD82B00090009890F835000228D0
:101EE00007D0FFE700998020486501208DF80700A2
:101EF0000EE00099052081F8350000980168086817
:101F000020F001000860FFE700208DF80700FFE7E0
:101F10009DF8070002B0704780B586B0059000209C
:101F2000039040F2B800C2F20000006848F2B51118
:101F3000C1F64E31A0FB0110800A02900598806D19
:101F4000019001980068049004980599C96DC840F3
:101F5000000700281AD5FFE70598006800684007C9
:101F6000002812D5FFE705980168086820F00400F2
:101F700008600598C16D082088400199886005991E
:101F8000486D40F001004865FFE7FFE704980599B8
:101F9000C96DC840C007A0B1FFE705980068406957
:101FA000000600280CD5FFE70598C16D0120884088
:101FB000019988600599486D40F002004865FFE787
:101FC000FFE704980599C96DC8404007002814D55B
:101FD000FFE7059800680068800700280CD5FFE738
:101FE0000598C16D04208840019988600599486D65
:101FF00040F004004865FFE7FFE704980599C96DC4
:10200000C840C006002847D5FFE70598006800686B
:10201000000700283FD5FFE70598C16D10208840D4
:1020200001998860059800680068400300281AD567
:10203000FFE70598006800680003002809D4FFE75F
:102040000598006C20B1FFE70598016C8847FFE711
:1020500008E00598806C20B1FFE70598816C8847FF
:10206000FFE7FFE716E0059800680068C005002854
:1020700007D4FFE705980168086820F008000860A9
:10208000FFE70598006C20B1FFE70598016C8847D1
:10209000FFE7FFE7FFE7FFE704980599C96DC84030
:1020A0008006002840F18D80FFE7059800680068F1
:1020B000C006002840F18480FFE70598C16D20200C
:1020C000884001998860059890F83500052834D13A
:1020D000FFE705980168086820F016000860059879
:1020E0000168486920F0800048610598006C20B9BB
:1020F000FFE70598806C38B1FFE70598016808682C
:1021000020F008000860FFE70598C16D3F20884077
:10211000019988600599012081F83500FFE705994C
:10212000002081F83400FFE70598006D20B1FFE73B
:102130000598016D8847FFE77BE005980068006817
:10214000400300281AD5FFE70598006800680003DF
:10215000002809D4FFE70598406C20B1FFE70598F7
:10216000416C8847FFE708E00598C06B20B1FFE7A6
:102170000598C16B8847FFE7FFE720E005980068F6
:102180000068C005002811D4FFE7059801680868B9
:1021900020F0100008600599012081F83500FFE764
:1021A0000599002081F83400FFE7FFE70598C06B30
:1021B00020B1FFE70598C16B8847FFE7FFE7FFE71E
:1021C000FFE70598406DA0B3FFE70598406DC00795
:1021D00030B3FFE70599052081F8350005980168BF
:1021E000086820F001000860FFE7039801300390C1
:1021F0000299884201D9FFE707E0FFE705980068E8
:102200000068C0070028F0D1FFE70599012081F898
:102210003500FFE70599002081F83400FFE7FFE76C
:102220000598C06C20B1FFE70598C16C8847FFE7AF
:10223000FFE706B080BD000080B586B004900020A6
:10224000039000F029FB0290049820B9FFE70120D9
:102250008DF81700A3E00498406A08B1FFE7FFE794
:102260000499022081F83500FFE70499002081F8E5
:102270003400FFE704980168086820F00100086056
:10228000FFE7049800680068C00790B1FFE700F01E
:1022900003FB0299401A06280AD3FFE7049920207D
:1022A00048650499032081F835008DF8170076E021
:1022B000E7E70498006800680390039848F23F013C
:1022C000CFF2100108400390049900914868D1F8BA
:1022D00008C0CB680A6940EA0C00184310434A69F9
:1022E00010438A691043CA691043096A014303987D
:1022F000084303900498406A042808D1FFE7049932
:10230000C86A096B0143039808430390FFE70398E9
:10231000049909680860049800684069039003986C
:1023200020F0070003900498416A03980843039043
:102330000498406A04281AD1FFE70498816A039838
:10234000084303900498C06A80B1FFE70498FEF741
:1023500099FF50B1FFE70499402048650499012096
:1023600081F835008DF8170019E0FFE7FFE70398C3
:102370000499096848610498FEF758FF0190049891
:10238000C16D3F208840019988600499002048650C
:10239000049A012182F835108DF81700FFE79DF8A7
:1023A000170006B080BD000080B588B0069005918A
:1023B0000492039300208DF80B000698806D019025
:1023C000FFE7069890F83400012804D1FFE70220C7
:1023D0008DF81F0045E00699012081F83400FFE7E1
:1023E000FFE7069890F8350001282BD1FFE7069902
:1023F000022081F835000699002048650698059965
:10240000049A039BFEF7B6FF0698C16D3F208840F3
:102410000199886006980168086840F01600086015
:102420000698006C38B1FFE706980168086840F02C
:1024300008000860FFE706980168086840F001009E
:10244000086009E0FFE70699002081F83400FFE703
:1024500002208DF80B00FFE79DF80B008DF81F00A0
:10246000FFE79DF81F0008B080BD000080B584B074
:10247000039000F011FA0290039801900198013046
:1024800048B1FFE740F2DF00C2F200000178019896
:1024900008440190FFE7FFE700F0FEF90299401AB7
:1024A0000199884201D2FFE7F6E704B080BD000041
:1024B0008EB00D900C9100200A90099008900B901E
:1024C000FFE70B980F2800F2CC81FFE70B99012062
:1024D00088400A900C9800680A9908400990099869
:1024E0000A99884240F0B881FFE70C98406800F0F4
:1024F0000300012807D0FFE70C98406800F00300B4
:1025000002282FD1FFE70D98806808900B984100B2
:10251000032000FA01F10898884308900C98C068DD
:102520000B99490000FA01F10898084308900898AF
:102530000D9988600D98406808900B99012000FA69
:1025400001F10898884308900C984068C0F3001087
:102550000B9900FA01F108980843089008980D9922
:102560004860FFE70C98406800F00300032818D08B
:10257000FFE70D98C06808900B984100032000FA0F
:1025800001F10898884308900C9880680B994900DD
:1025900000FA01F108980843089008980D99C8605E
:1025A000FFE70C98406800F00300022826D1FFE7FF
:1025B0000D980B996FF0030202EA51010844006A7A
:1025C00008900B9800F0070081000F2000FA01F13D
:1025D0000898884308900C9800690B9901F007014E
:1025E000890000FA01F108980843089008980D99AD
:1025F0000B9B02EA530211440862FFE70D98006842
:1026000008900B984100032000FA01F108988843D4
:1026100008900C98406800F003000B99490000FAFC
:1026200001F108980843089008980D9908600C98E3
:1026300080798007002800F00E81FFE7FFE7002087
:10264000079043F64400C4F20200016841F480415F
:102650000160006800F4804007900798FFE70B983E
:1026600020F0030043F60801C4F20101405808902D
:102670000B9800F0030081000F2000FA01F1089888
:10268000884308900D980021C4F20201884203D1CA
:10269000FFE7002006905EE00D9840F20041C4F292
:1026A0000201884203D1FFE70120059050E00D9818
:1026B00040F60001C4F20201884203D1FFE7022084
:1026C000049042E00D9840F60041C4F202018842B5
:1026D00003D1FFE70320039034E00D9841F200019D
:1026E000C4F20201884203D1FFE70420029026E0F1
:1026F0000D9841F20041C4F20201884203D1FFE784
:102700000520019018E00D9841F60001C4F2020185
:10271000884203D1FFE7062000900AE00D9941F6B8
:102720000042C4F202020820914208BF0720009034
:10273000FFE700980190FFE701980290FFE70298F9
:102740000390FFE703980490FFE704980590FFE7E4
:1027500005980690FFE70698C0B20B9901F00301B7
:10276000890000FA01F108980843089008980B992D
:1027700021F0030143F60802C4F20102885043F637
:102780000840C4F20100006808900999089888433D
:1027900008900C988079C006002805D5FFE70999B4
:1027A000089808430890FFE7089843F60841C4F2E8
:1027B0000101086043F60C40C4F201000068089073
:1027C00009990898884308900C9880798006002819
:1027D00005D5FFE70999089808430890FFE708988E
:1027E00043F60C41C4F20101086043F60440C4F210
:1027F00001000068089009990898884308900C988F
:1028000080798007002805D5FFE7099908980843D3
:102810000890FFE7089843F60441C4F201010860FC
:1028200043F60040C4F20100006808900999089836
:10283000884308900C988079C00728B1FFE7099970
:10284000089808430890FFE7089843F60041C4F24F
:1028500001010860FFE7FFE7FFE70B9801300B90ED
:102860002FE60EB07047000082B00190ADF8021064
:102870008DF801209DF8010028B1FFE7BDF80200A6
:102880000199886105E0BDF80200000401998861A2
:10289000FFE702B07047000040F24060C2F2000063
:1028A0000068704780B58EB00C900C9820B9FFE797
:1028B00001208DF8370043E10C9890F83D0040B9B5
:1028C000FFE70C99002081F83C000C9800F046FAD4
:1028D000FFE70C99242081F83D000C9801680868F6
:1028E00020F0010008600C980168086840F400407E
:1028F00008600C980168086820F40040086000F047
:1029000063FC0A900C98406848F2A061C0F2010193
:1029100088420BD8FFE70A9948F28042C0F21E02B3
:102920000020914238BF012009900AE00A9940F640
:102930000012C0F23D020020914238BF01200990F0
:10294000FFE70998012804D1FFE701208DF837003F
:10295000F6E00A984DF68361C4F21B31A0FB01102A
:10296000800C0B900C980068406820F03F000B9999
:1029700008430C99096848600C980068006A20F0C8
:102980003F0008900C98406848F2A061C0F2010135
:10299000884204D8FFE70B98013007900EE00B98AF
:1029A0004FF49671484344F6D351C1F26201A0FB43
:1029B0000101012000EB91100790FFE708980799AB
:1029C00008430C99096808620C980068C0694CF6C5
:1029D000FF71884306900C98406848F2A061C0F2ED
:1029E000010188421FD8FFE70A9801380C9949680D
:1029F0004900B0FBF1F001306FF31F30032803D81A
:102A0000FFE7042005900BE00A9801380C9949680B
:102A10004900B0FBF1F001306FF31F300590FFE784
:102A2000059804904CE00C98806868B9FFE70A9814
:102A300001380C99496801EB4101B0FBF1F001301C
:102A40006FF31F3003900DE00A9801380C99496824
:102A500019225143B0FBF1F00130042161F31F3022
:102A60000390FFE70398000518B9FFE701200290E3
:102A700023E00C98806868B9FFE70A9801380C9940
:102A8000496801EB4101B0FBF1F001306FF31F30F9
:102A900001900DE00A9801380C99496819225143B8
:102AA000B0FBF1F00130042161F31F300190FFE72A
:102AB000019840F400400290FFE702980490FFE77D
:102AC0000698049908430C990968C8610C98006835
:102AD000006820F0C0000C9B1968DA691B6A1A4371
:102AE000104308600C980068806848F2FF31884302
:102AF0000C9A1168D36812691A43104388600C98C5
:102B00000068C06820F0FF000C9B19685A699B6937
:102B10001A431043C8600C980168086840F001002F
:102B200008600C99002008640C9A202182F83D105E
:102B30000C9908630C9981F83E008DF83700FFE787
:102B40009DF837000EB080BD10B588B084460C9853
:102B50000B98DDF828E0CDF818C0ADF81610ADF8E8
:102B60001420ADF81230ADF81000FFF795FE039079
:102B7000069890F83D00202840F0E880FFE706988E
:102B800003996A4611600221C0F210010122192343
:102B900003F07EF820B1FFE702208DF81F00D9E096
:102BA000FFE7069890F83C00012804D1FFE70220D7
:102BB0008DF81F00CEE00699012081F83C00FFE768
:102BC000FFE706980068006800F00100012807D0C0
:102BD000FFE706980168086840F001000860FFE719
:102BE00006980168086820F40060086006992120B2
:102BF00081F83D000699402081F83E0006990020AA
:102C000008640A9806994862BDF81000069948853C
:102C10000698408D0699088506990020CFF6FF702A
:102C2000C8620698BDF81610BDF81420BDF8123021
:102C3000DDF830C0039CEE46CEF80440CEF800C06C
:102C400002F032FF20B1FFE701208DF81F0081E084
:102C5000FFE70698008D002849D0FFE706980C99F9
:102C6000039A03F043F980B1FFE70698006C04284B
:102C700007D1FFE706980168086840F40070086013
:102C8000FFE701208DF81F0064E006980168406AA4
:102C9000007808610699486A013048620699088DF3
:102CA000013808850699488D0138488506980068DE
:102CB000406900F004010120B0EB910F16D1FFE74D
:102CC0000698008D90B1FFE706980168406A007889
:102CD00008610699486A013048620699088D0138F2
:102CE00008850699488D01384885FFE7B1E70698C1
:102CF0000C99039A02F076FF80B1FFE70698006C0A
:102D0000042807D1FFE706980168086840F40070BE
:102D10000860FFE701208DF81F001BE0069801689E
:102D2000086840F4007008600699202081F83D0092
:102D30000699002081F83E00FFE70699002081F8FF
:102D40003C00FFE700208DF81F0003E002208DF813
:102D50001F00FFE79DF81F0008B010BD80B588B0C8
:102D60000790002006900590049003900290079829
:102D7000006845F20041C4F20001884234D1FFE707
:102D8000FFE70020019043F63000C4F20200016822
:102D900041F002010160006800F00200019001981A
:102DA000FFE7C0200290122003900020049003202F
:102DB00005900420069040F20040C4F2020002A9EF
:102DC000FFF776FBFFE70020009043F64000C4F2D7
:102DD0000200016841F400110160006800F4001075
:102DE00000900098FFE7FFE708B080BD40F2DF00E9
:102DF000C2F20000027840F24061C2F200010868AD
:102E0000104408607047000080B582B043F600416E
:102E1000C4F20201086840F400700860086840F4D9
:102E200080600860086840F480700860032000F04B
:102E30008BF80020019000F005F800F03BF80198B5
:102E400002B080BD80B582B0009040F2B800C2F2FE
:102E50000000006840F2DF01C2F200010A784FF47E
:102E60007A71B1FBF2F1B0FBF1F000F0A5FD20B1F9
:102E7000FFE701208DF8070018E000980F280DD813
:102E8000FFE700994FF0FF30002200F043F8009870
:102E900040F2E001C2F20001086003E001208DF879
:102EA000070003E000208DF80700FFE79DF807000A
:102EB00002B080BD82B0FFE70020019043F64400DD
:102EC000C4F20200016841F480410160006800F42E
:102ED000804001900198FFE7FFE70020009043F653
:102EE0004000C4F20200016841F0805101600068B6
:102EF00000F0805000900098FFE702B0704700009B
:102F000080B582B08DF807009DF9070007F002FB3D
:102F100002B080BD80B586B08DF817000491039291
:102F20000020029007F00EFB02909DF9170001901F
:102F300002980499039A03F003FE0146019807F0F2
:102F400009FB06B080BD000080B582B001900198F9
:102F500007F022FB02B080BD80B584B002900191E1
:102F6000029820B9FFE701208DF80F0021E10198B8
:102F700043F60041C4F20201096801F007018842EA
:102F800012D9FFE7019943F60040C4F20200017034
:102F9000006800F007000199884204D0FFE7012093
:102FA0008DF80F0005E1FFE7029800788007002800
:102FB0002AD5FFE7029800784007002809D5FFE7E7
:102FC00043F60801C4F20201086840F4E0500860CA
:102FD000FFE7029800780007002809D5FFE743F6CD
:102FE0000801C4F20201086840F460400860FFE78D
:102FF00043F60801C4F20201086820F0F000029ACA
:10300000926810430860FFE702980078C007002824
:103010006ED0FFE702984068012811D1FFE743F620
:103020000000C4F20200006800F400310020B0EBA0
:10303000514F04D1FFE701208DF80F00B9E02CE0DB
:1030400002984068022805D0FFE7029840680328EC
:1030500011D1FFE743F60000C4F20200006800F05F
:1030600000710020B0EB516F04D1FFE701208DF813
:103070000F009EE010E043F60000C4F2020000687A
:1030800000F002010020B0EB510F04D1FFE7012056
:103090008DF80F008DE0FFE7FFE743F60801C4F26B
:1030A0000201086820F00300029A52681043086089
:1030B000FFF7F2FB0090FFE743F60800C4F20200BE
:1030C000006800F00C0002994968B0EB810F0ED047
:1030D000FFE7FFF7E1FB0099401A41F2893188428E
:1030E00004D3FFE703208DF80F0062E0E4E7FFE779
:1030F000019843F60041C4F20201096801F007019A
:10310000884212D2FFE7019943F60040C4F2020060
:103110000170006800F007000199884204D0FFE7C1
:1031200001208DF80F0044E0FFE702980078400787
:1031300000280CD5FFE743F60801C4F20201086835
:1031400020F4E050029AD26810430860FFE702982A
:103150000078000700280DD5FFE743F60801C4F208
:103160000201086820F46040029A126940EAC20035
:103170000860FFE700F04CF843F60801C4F20201D2
:103180000968C9B20A094BF6E021C0F60001895C62
:10319000C84040F2B801C2F20001086040F2E0000D
:1031A000C2F200000068FFF74DFE00208DF80F000E
:1031B000FFE79DF80F0004B080BD000040F2B800AA
:1031C000C2F200000068704780B5FFF7F7FF43F6D2
:1031D0000801C4F202010968C1F382224BF6F02112
:1031E000C0F60001895CC84080BD000080B5FFF7D3
:1031F000E5FF43F60801C4F20201096889B24A0BEF
:103200004BF6F021C0F60001895CC84080BD00008B
:1032100080B586B00020059004900390029043F69C
:103220000800C4F20200006800F00C0001460191A1
:1032300040B1FFE7019804280AD0FFE70198082869
:103240000CD04FE042F20040C0F2F40002904FE098
:1032500041F20020C0F27A00029049E043F60400F7
:10326000C4F20200016801F03F01059100684002CC
:10327000002813D5FFE743F60400C4F202000068FB
:10328000C0F3881041F20021C0F27A01A0FB0101D5
:10329000059A0023FCF794FF049012E043F6040023
:1032A000C4F202000068C0F3881042F20041C0F28C
:1032B000F401A0FB0101059A0023FCF781FF0490B3
:1032C000FFE743F60400C4F20200006800F4403156
:1032D000022000EBD130039004980399B0FBF1F089
:1032E000029005E042F20040C0F2F4000290FFE7D5
:1032F000029806B080BD000080B586B004900498A6
:1033000020B9FFE701208DF8170050E304980078FA
:10331000C007002800F0A580FFE743F60800C4F2CC
:103320000200006800F00C00042813D0FFE743F609
:103330000800C4F20200006800F00C0008281ED14A
:10334000FFE743F60400C4F20200006840020028D0
:1033500015D5FFE743F60000C4F20200006800F450
:1033600000310020B0EB514F08D0FFE704984068CF
:1033700020B9FFE701208DF8170018E370E0FFE7A0
:1033800004984068B0F5803F09D1FFE743F600019B
:10339000C4F20201086840F48030086020E004981C
:1033A0004068B0F5A02F0DD1FFE743F60001C4F24D
:1033B0000201086840F480200860086840F480300A
:1033C00008600CE043F60001C4F20201086820F432
:1033D00080300860086820F480200860FFE7FFE77D
:1033E000FFE704984068E8B1FFE7FFF755FA03905C
:1033F000FFE743F60000C4F20200006800F4003169
:103400000020B0EB514F0CD1FFE7FFF745FA0399CD
:10341000401A652804D3FFE703208DF81700C6E2A1
:10342000E7E71CE0FFF738FA0390FFE743F60000F8
:10343000C4F20200006800F400310020B0EB514FEC
:103440000CD0FFE7FFF728FA0399401A652804D348
:10345000FFE703208DF81700A9E2E7E7FFE7FFE7A2
:10346000FFE7049800788007002840F19680FFE786
:1034700043F60800C4F20200006810F00C0F13D0ED
:10348000FFE743F60800C4F20200006800F00C00F9
:1034900008282CD1FFE743F60400C4F202000068BC
:1034A0004002002823D4FFE743F60000C4F20200E4
:1034B000006800F002010020B0EB510F09D0FFE7D7
:1034C0000498C068012804D0FFE701208DF8170098
:1034D0006DE243F60001C4F20201086820F0F80032
:1034E000049A126940EAC2000860FFE754E00498B9
:1034F000C06870B3FFE70021C4F2472101200860D3
:10350000FFF7CAF90390FFE743F60000C4F2020098
:10351000006800F002010020B0EB510F0CD1FFE772
:10352000FFF7BAF90399401A032804D3FFE70320F1
:103530008DF817003BE2E7E743F60001C4F2020111
:10354000086820F0F800049A126940EAC200086096
:1035500021E00021C4F2472100200860FFF79CF918
:103560000390FFE743F60000C4F20200006800F099
:1035700002010020B0EB510F0CD0FFE7FFF78CF9F0
:103580000399401A032804D3FFE703208DF817009E
:103590000DE2E7E7FFE7FFE7FFE7049800780007A1
:1035A00000284BD5FFE70498406918B3FFE740F6C1
:1035B0008061C4F2472101200860FFF76DF9039094
:1035C000FFE743F67400C4F20200006800F0020155
:1035D0000020B0EB510F0CD1FFE7FFF75DF9039925
:1035E000401A032804D3FFE703208DF81700DEE11B
:1035F000E7E722E040F68061C4F24721002008603E
:10360000FFF74AF90390FFE743F67400C4F20200A3
:10361000006800F002010020B0EB510F0CD0FFE772
:10362000FFF73AF90399401A032804D3FFE7032070
:103630008DF81700BBE1E7E7FFE7FFE704980078A4
:103640004007002840F1CE80FFE700208DF80700FA
:1036500043F64000C4F202000068C000002815D400
:10366000FFE7FFE70020009043F64000C4F20200AD
:10367000016841F080510160006800F080500090C6
:103680000098FFE701208DF80700FFE747F20000F0
:10369000C4F200000068C005002822D4FFE747F20A
:1036A0000001C4F20001086840F480700860FFF770
:1036B000F3F80390FFE747F20000C4F2000000684F
:1036C000C00500280CD4FFE7FFF7E6F80399401A7D
:1036D000032804D3FFE703208DF8170067E1EAE72A
:1036E000FFE7FFE704988068012809D1FFE743F668
:1036F0007001C4F20201086840F0010008601FE098
:103700000498806805280DD1FFE743F67001C4F2E4
:103710000201086840F004000860086840F00100F9
:1037200008600CE043F67001C4F20201086820F062
:1037300001000860086820F004000860FFE7FFE768
:10374000FFE704988068F8B1FFE7FFF7A5F803905A
:10375000FFE743F67000C4F20200006800F00201C7
:103760000020B0EB510F0ED1FFE7FFF795F803995A
:10377000401A41F28931884204D3FFE703208DF8D3
:10378000170014E1E5E71EE0FFF786F80390FFE776
:1037900043F67000C4F20200006800F0020100204D
:1037A000B0EB510F0ED0FFE7FFF776F80399401A00
:1037B00041F28931884204D3FFE703208DF81700D6
:1037C000F5E0E5E7FFE79DF80700012809D1FFE7ED
:1037D00043F64001C4F20201086820F080500860FE
:1037E000FFE7FFE704988069002800F0DC80FFE72E
:1037F00043F60800C4F20200006800F00C0008283C
:1038000000F08580FFE70498806902285CD1FFE71B
:103810006021C4F2472100200860FFF73DF80390C3
:10382000FFE743F60000C4F20200006800F00071F8
:103830000020B0EB516F0CD0FFE7FFF72DF8039994
:10384000401A032804D3FFE703208DF81700AEE0E9
:10385000E7E70499C869D1F820C04B6A8A6A40EA50
:103860000C0040EA8310D2034FF6FF739A43A2F58F
:1038700080321043C96A40EA016043F60401C4F291
:10388000020108606021C4F2472101200860FFF7AF
:1038900003F80390FFE743F60000C4F2020000685B
:1038A00000F000710020B0EB516F0CD1FFE7FEF784
:1038B000F3FF0399401A032804D3FFE703208DF890
:1038C000170074E0E7E721E06021C4F247210020FF
:1038D0000860FEF7E1FF0390FFE743F60000C4F243
:1038E0000200006800F000710020B0EB516F0CD0B6
:1038F000FFE7FEF7D1FF0399401A032804D3FFE73F
:1039000003208DF8170052E0E7E7FFE74AE004984C
:103910008069012804D1FFE701208DF8170046E0F7
:1039200043F60400C4F20200006802900498806923
:10393000012831D0FFE7029800F480000499C9699A
:10394000884229D1FFE7029800F03F000499096AF4
:10395000884221D1FFE7029847F6C07108400499D8
:10396000496AB0EB811F17D1FFE7029800F440309D
:103970000499896AC9034FF6FF729143A1F580311A
:10398000884209D1FFE7029800F070600499C96A83
:10399000B0EB016F04D0FFE701208DF8170006E0BF
:1039A000FFE7FFE7FFE700208DF81700FFE79DF82E
:1039B000170006B080BD000080B582B0019001986C
:1039C00005F01EF902B080BD81B0009001B07047D3
:1039D00081B0009001B0704784B002900191002046
:1039E0000090FFE7029890F83C00012804D1FFE71F
:1039F00002208DF80F0044E00299012081F83C007C
:103A0000FFE7FFE7009820F0FF000199C96808432D
:103A10000090009820F44070019989680843009054
:103A2000009820F48060019949680843009000984C
:103A300020F400600199096808430090009820F480
:103A400080500199096908430090009820F40050C3
:103A50000199496908430090009820F48040019939
:103A6000C969084300900098029909684864FFE713
:103A70000299002081F83C00FFE700208DF80F003C
:103A8000FFE79DF80F0004B07047000085B0039079
:103A90000291FFE7039890F83C00012804D1FFE76A
:103AA00002208DF813007EE00399012081F83C008C
:103AB000FFE7FFE70399022081F83D0003980068C3
:103AC000406801900398006880680090019820F099
:103AD00070000190029801680198084301900198D4
:103AE000039909684860039800680021C4F2010145
:103AF00088423CD0FFE703980068B0F1804F36D091
:103B0000FFE70398006840F20041C4F200018842D8
:103B10002DD0FFE70398006840F60001C4F20001D1
:103B2000884224D0FFE70398006840F60041C4F2C1
:103B3000000188421BD0FFE70398006840F2004173
:103B4000C4F20101884212D0FFE70398006844F2F2
:103B50000001C4F20101884209D0FFE70398006820
:103B600041F60001C4F2000188420ED1FFE700983F
:103B700020F080000090029841680098084300906F
:103B80000098039909688860FFE70399012081F88C
:103B90003D00FFE70399002081F83C00FFE700208B
:103BA0008DF81300FFE79DF8130005B07047000083
:103BB00080B582B00090009820B9FFE701208DF811
:103BC00007003FE0009890F83D0040B9FFE70099FA
:103BD000002081F83C00009800F038F8FFE70099D9
:103BE000022081F83D00009951F8040B05F0ACF873
:103BF0000099012081F84600FFE70099012081F833
:103C00003E00009981F83F00009981F8400000993A
:103C100081F84100FFE7FFE70099012081F84200A9
:103C2000009981F84300009981F84400009981F8D7
:103C30004500FFE70099012081F83D0000208DF844
:103C40000700FFE79DF8070002B080BD80B588B08F
:103C5000079007980068B0F1804F12D1FFE7FFE7A7
:103C60000020069043F64000C4F20200016841F0D3
:103C700001010160006800F0010006900698FFE76E
:103C800078E00798006840F20041C4F200018842E1
:103C900012D1FFE7FFE70020059043F64000C4F291
:103CA0000200016841F002010160006800F00200BA
:103CB00005900598FFE75CE00798006840F6000172
:103CC000C4F20001884212D1FFE7FFE70020049010
:103CD00043F64000C4F20200016841F004010160B3
:103CE000006800F0040004900498FFE740E00798A3
:103CF000006840F60041C4F20001884212D1FFE79B
:103D0000FFE70020039043F64000C4F20200016880
:103D100041F008010160006800F00800039003987A
:103D2000FFE724E00798006844F20041C4F2010173
:103D300088421BD1FFE7FFE70020029043F64400D2
:103D4000C4F20200016841F400310160006800F42F
:103D5000003002900298FFE7192001900F21002205
:103D6000FFF7D8F80198FFF7CBF8FFE7FFE7FFE789
:103D7000FFE7FFE708B080BD83B00190019890F89D
:103D80003D00012804D0FFE701208DF80B006AE018
:103D90000199022081F83D0001980168C86840F04F
:103DA0000100C860019800680021C4F20101884246
:103DB0003CD0FFE701980068B0F1804F36D0FFE7B4
:103DC0000198006840F20041C4F2000188422DD001
:103DD000FFE70198006840F60001C4F20001884244
:103DE00024D0FFE70198006840F60041C4F20001CA
:103DF00088421BD0FFE70198006840F20041C4F2FE
:103E00000101884212D0FFE70198006844F20001E6
:103E1000C4F20101884209D0FFE70198006841F629
:103E20000001C4F20001884212D1FFE70198006846
:103E3000806800F0070000900098062807D0FFE790
:103E400001980168086840F001000860FFE706E09B
:103E500001980168086840F001000860FFE7002051
:103E60008DF80B00FFE79DF80B0003B070470000D2
:103E700081B0009000980168C86820F00100C86017
:103E8000FFE700980068006A41F21111084210D162
:103E9000FFE700980068006A40F24441084207D1F9
:103EA000FFE700980168086820F001000860FFE75C
:103EB000FFE7FFE70099012081F83D00002001B0F5
:103EC0007047000080B586B00490039100208DF803
:103ED0000B00FFE7049890F83C00012804D1FFE7AD
:103EE00002208DF81700ABE00499012081F83C0016
:103EF000FFE7FFE70499022081F83D00049800687D
:103F000080680190019820F077000190019820F4DA
:103F10007F400190019804990968886003980068BF
:103F20000090002872D0FFE7009810286ED0FFE7BD
:103F3000009820286AD0FFE70098302866D0FFE775
:103F40000098402855D0FFE70098502837D0FFE769
:103F50000098602840D0FFE7009870280BD0FFE75A
:103F60000098B0F5805F05D0FFE70098B0F5005FDE
:103F700016D052E055E004980068039B5A6899688F
:103F8000DB6804F0D5FF0498006880680190019810
:103F900040F077000190019804990968886040E03A
:103FA00004980068039B5A689968DB6804F0C0FFB6
:103FB00004980168886840F48040886031E0049883
:103FC0000068039A5168D26805F09EF90498006869
:103FD000502104F0C7FF24E004980068039A516858
:103FE000D26805F0B9F904980068602104F0BAFFBE
:103FF00017E004980068039A5168D26805F084F9C4
:1040000004980068402104F0ADFF0AE004980068BD
:104010000399096804F0A6FF03E001208DF80B0066
:10402000FFE70499012081F83D00FFE70499002093
:1040300081F83C00FFE79DF80B008DF81700FFE7C3
:104040009DF8170006B080BD81B0009001B07047A8
:1040500080B584B0039003980068C068029003980C
:104060000068006901909DF804008007002824D5AD
:10407000FFE79DF80800800700281DD5FFE703989B
:1040800001686FF002000861039901200877039826
:1040900000688069800720B1FFE70398FFF7D4FF2D
:1040A00006E0039800F0C0F9039800F0D9FAFFE7A2
:1040B000039900200877FFE7FFE79DF80400400719
:1040C000002825D5FFE79DF80800400700281ED5E9
:1040D000FFE7039801686FF004000861039902206C
:1040E000087703980068806910F4407F04D0FFE7E8
:1040F0000398FFF7A9FF06E0039800F095F90398ED
:1041000000F0AEFAFFE7039900200877FFE7FFE72A
:104110009DF804000007002824D5FFE79DF808005B
:10412000000700281DD5FFE7039801686FF008001D
:10413000086103990420087703980068C069800724
:1041400020B1FFE70398FFF77FFF06E0039800F038
:104150006BF9039800F084FAFFE7039900200877D1
:10416000FFE7FFE79DF80400C006002825D5FFE71C
:104170009DF80800C00600281ED5FFE703980168D7
:104180006FF0100008610399082008770398006811
:10419000C06910F4407F04D0FFE70398FFF754FF95
:1041A00006E0039800F040F9039800F059FAFFE7A1
:1041B000039900200877FFE7FFE79DF80400C00798
:1041C00078B1FFE79DF80800C00748B1FFE7039802
:1041D00001686FF001000861039800F02DFBFFE714
:1041E000FFE79DF804000006002810D5FFE79DF8C2
:1041F00008000006002809D5FFE7039801686FF062
:10420000800008610398FFF7DFFBFFE7FFE79DF8F9
:1042100004004006002810D5FFE79DF8080040067E
:10422000002809D5FFE7039801686FF04000086196
:10423000039800F079FDFFE7FFE79DF80400800692
:10424000002810D5FFE79DF808008006002809D552
:10425000FFE7039801686FF0200008610398FFF7FB
:10426000B7FBFFE7FFE704B080BD000080B58CB06E
:104270000B9000200A9009900890079006900B98E8
:1042800000680021C4F20101884223D1FFE7FFE763
:104290000020059043F63000C4F20200016841F0AE
:1042A00010010160006800F0100005900598FFE71C
:1042B0004FF4D44006900220079000200890099007
:1042C00001200A9041F20000C4F2020006A9FEF7A4
:1042D000EFF8A7E00B980068B0F1804F21D1FFE71D
:1042E000FFE70020049043F63000C4F202000168AA
:1042F00041F001010160006800F0010004900498A1
:10430000FFE72020069002200790002008900990E7
:1043100001200A900020C4F2020006A9FEF7C8F8A6
:104320007FE00B98006840F20041C4F2000188422F
:1043300020D1FFE7FFE70020039043F63000C4F2EE
:104340000200016841F001010160006800F0010015
:1043500003900398FFE74020069002200790002179
:10436000089109910A900020C4F2020006A9FEF704
:104370009FF855E00B98006840F60001C4F2000178
:10438000884222D1FFE7FFE70020029043F6300089
:10439000C4F20200016841F008010160006800F009
:1043A000080002900298FFE74FF480500690022028
:1043B00007900021089109910A9040F60040C4F24C
:1043C000020006A9FEF774F829E00B98006840F691
:1043D0000041C4F20001884220D1FFE7FFE700203E
:1043E000019043F63000C4F20200016841F001017F
:1043F0000160006800F0010001900198FFE70120D2
:104400000690022007900021089109910A9000204F
:10441000C4F2020006A9FEF74BF8FFE7FFE7FFE74B
:10442000FFE7FFE70CB080BD81B0009001B070479E
:1044300080B586B004900391029200208DF80700A9
:10444000FFE7049890F83C00012804D1FFE7022020
:104450008DF8170089E00499012081F83C00FFE7FE
:10446000FFE7029800900C2800F270800099DFE8C6
:1044700001F0076D6D6D206D6D6D3A6D6D6D5300C2
:1044800004980068039904F083FD04980168886922
:1044900040F00800886104980168886920F00400F1
:1044A00088610398026904980168886910438861EB
:1044B00050E004980068039904F0E0FD0498016856
:1044C000886940F40060886104980168886920F474
:1044D000806088610398026904980168886940EAED
:1044E0000220886136E004980068039904F040FED9
:1044F00004980168C86940F00800C8610498016820
:10450000C86920F00400C861039802690498016832
:10451000C8691043C8611DE004980068039904F05D
:10452000A1FE04980168C86940F40060C86104985D
:104530000168C86920F48060C86103980269049822
:104540000168C86940EA0220C86103E001208DF8D3
:104550000700FFE7FFE70499002081F83C00FFE730
:104560009DF807008DF81700FFE79DF8170006B0CB
:1045700080BD000080B582B00090009820B9FFE7B0
:1045800001208DF807003FE0009890F83D0040B909
:10459000FFE70099002081F83C00009800F038F80F
:1045A000FFE70099022081F83D00009951F8040BC3
:1045B00004F0CAFB0099012081F84600FFE700994A
:1045C000012081F83E00009981F83F00009981F8B0
:1045D0004000009981F84100FFE7FFE700990120C2
:1045E00081F84200009981F84300009981F8440065
:1045F000009981F84500FFE70099012081F83D000E
:1046000000208DF80700FFE79DF8070002B080BD8D
:1046100080B584B00390039800680021C4F20101C2
:1046200088421BD1FFE7FFE70020029043F64400D9
:10463000C4F20200016841F001010160006800F06D
:10464000010002900298FFE7192001900F2100223B
:10465000FEF760FC0198FEF753FCFFE704B080BD55
:1046600081B0009001B0704780B58CB00A9009917C
:10467000099828B9FFE70A9890F83E0007901CE0D7
:104680000998042805D1FFE70A9890F83F000690A2
:1046900010E00998082805D1FFE70A9890F8400033
:1046A000059004E00A9890F841000590FFE705980E
:1046B0000690FFE706980790FFE70798012804D0C7
:1046C000FFE701208DF82F00AFE0099828B9FFE738
:1046D0000A99022081F83E001EE00998042806D1BC
:1046E000FFE70A99022081F83F00049012E0099840
:1046F000082806D1FFE70A99022081F840000390BC
:1047000005E00A99022081F841000390FFE7039831
:104710000490FFE70498FFE70A98006809990122CE
:10472000019204F0E9FB01980A9909680022C4F299
:104730000102914202900CD0FFE70A9800684FF600
:104740000041CBF6FE710844B0FA80F040090290B7
:10475000FFE70298C00738B1FFE70A980168486C84
:1047600040F400404864FFE70A9800680021C4F262
:10477000010188423CD0FFE70A980068B0F1804F01
:1047800036D0FFE70A98006840F20041C4F2000109
:1047900088422DD0FFE70A98006840F60001C4F275
:1047A0000001884224D0FFE70A98006840F60041E3
:1047B000C4F2000188421BD0FFE70A98006840F26B
:1047C0000041C4F20101884212D0FFE70A98006854
:1047D00044F20001C4F20101884209D0FFE70A98BF
:1047E000006841F60001C4F20001884212D1FFE7DF
:1047F0000A980068806800F007000890089806286A
:1048000007D0FFE70A980168086840F001000860D7
:10481000FFE706E00A980168086840F001000860B8
:10482000FFE700208DF82F00FFE79DF82F000CB068
:1048300080BD00000000000080B58CB00B900B988C
:10484000006844F20041C4F20101884240F05B82FA
:10485000FFE701208DF82B008DF82A008DF8290044
:104860008DF82800FDF7ECF903F084FF40F2881C76
:10487000C2F2000C9CF90000404200EE100AB8EEB3
:10488000C00A40F26813C2F2000393ED002A40F21E
:104890008912C2F2000292F9000001EE100AB8EE8D
:1048A000C11A40F27811C2F2000191ED003A21EEF6
:1048B000031A20EE020A30EE010A40F24810C2F25A
:1048C000000080ED000A9CF900E000EE10EAB8EE6E
:1048D000C00A93ED012A92F900E001EE10EAB8EE69
:1048E000C11A91ED013A21EE031A20EE020A30EED0
:1048F000010A80ED010A9CF900E000EE10EAB8EE32
:10490000C00A93ED022A92F900E001EE10EAB8EE37
:10491000C11A91ED023A21EE031A20EE020A30EE9E
:10492000010A80ED020A9CF900C0CCF1000C00EEF7
:1049300010CAB8EEC00A93ED032A92F9002001EEE6
:10494000102AB8EEC11A91ED033A21EE031A20EEB7
:10495000020A30EE010A80ED030A40F2D810C2F2DA
:1049600000000078012816D1FFE740F24411C2F29E
:1049700000010020087040F24511C2F200010870E9
:1049800040F24611C2F20001087040F24711C2F233
:1049900000010870FFE740F24813C2F2000393EDF4
:1049A000001A40F20812C2F2000292ED000A40F230
:1049B0000C11C2F2000191ED002A30EE422A9FED67
:1049C000D84A22EE042AB0EE083A20EE030A30EE6E
:1049D000020A40F24410C2F2000090F9000002EE18
:1049E000100AB8EEC22A20EE020A30EE010A40F2A6
:1049F0005810C2F20000049080ED000A93ED011AF5
:104A000092ED000A91ED002A30EE422A22EE042AAD
:104A100020EE030A30EE020A40F2451CC2F2000CFE
:104A20009CF900C002EE10CAB8EEC22A20EE020ABB
:104A300030EE010A80ED010A93ED021A92ED000AB0
:104A400091ED002A30EE422A22EE042A20EE030ADB
:104A500030EE020A40F2461CC2F2000C9CF900C083
:104A600002EE10CAB8EEC22A20EE020A30EE010AA7
:104A700080ED020A93ED031A92ED000A91ED002AEF
:104A800030EE422A22EE042A20EE030A30EE020A19
:104A900040F24711C2F2000191F9001002EE101A23
:104AA000B8EEC22A20EE020A30EE010A80ED030AB7
:104AB00090ED000A00210991B5EE400AF1EE10FADE
:104AC0000A46A8BF01228DF82B2090ED010AB5EE11
:104AD000400AF1EE10FA0A46A8BF01228DF82A20FA
:104AE00090ED020AB5EE400AF1EE10FA0A46A8BFB0
:104AF00001228DF8292090ED030AB5EE400AF1EE6F
:104B000010FAA8BF01218DF828109DF82B100191F3
:104B10000068FBF787FD41EC100B51EC100B9FED8B
:104B20007C0B52EC103BD20F059262F3DF7141EC2B
:104B3000100B51EC100B9FED780B53EC102B0793DF
:104B40000692FBF727FC41EC100B51EC100BFBF726
:104B50007CFD0199099A00EE100A012001F09AFFEC
:104B600004989DF82A1002914068FBF75BFDDDF880
:104B700014C0069A079B41EC100B51EC100B6CF320
:104B8000DF7141EC100B51EC100BFBF703FC41EC17
:104B9000100B51EC100BFBF758FD0299099A00EE2F
:104BA000100A022001F076FF04989DF82910039165
:104BB0008068FBF737FDDDF814C0069A079B41ECCF
:104BC000100B51EC100B6CF3DF7141EC100B51EC3E
:104BD000100BFBF7DFFB41EC100B51EC100BFBF75C
:104BE00034FD0399099A00EE100A032001F052FFE8
:104BF00004989DF828100891C068FBF713FDDDF8B4
:104C000014C0069A079B41EC100B51EC100B6CF38F
:104C1000DF7141EC100B51EC100BFBF7BBFB41ECCF
:104C2000100B51EC100BFBF710FD0899099A00EEE0
:104C3000100A042001F02EFF01F074FA40F2C410B3
:104C4000C2F20000006840F24011C2F2000109689F
:104C5000884250DDFFE740F21410C2F2000090EDF0
:104C6000000A9FED301AB4EE410AF1EE10FA09DAAB
:104C7000FFE701F06FFA40F21811C2F200010020C4
:104C8000086024E040F24810C2F2000090ED000AF3
:104C900090ED013A90ED022A90ED031AB0EEC00AB1
:104CA000B0EEC33A30EE030AB0EEC22A30EE020A8A
:104CB000B0EEC11A30EE010AB1EE001A80EE010A20
:104CC00040F21810C2F2000080ED000AFFE740F247
:104CD000C411C2F2000100200090086040F2FC30D4
:104CE000C2F20000FFF7C4F8009840F23D11C2F292
:104CF00000010870FFE740F2C411C2F20001086829
:104D000001300860FFE70CB080BD00BF00BF00BFEE
:104D1000000000000000000000000000000024402F
:104D2000CDCC4C3F0AD7233C81B0009001B07047F6
:104D300082B00190ADF8021002B0704781B00090CF
:104D400001B0704780B592B011901198006800686A
:104D5000109011980068C0680F9011980068406921
:104D60000E9000200D900C90109800F00F000D9008
:104D70000D9888B9FFE79DF84000800600280AD505
:104D8000FFE79DF83C008006002804D5FFE7119856
:104D900005F0FEF8EAE1FFE70D98002800F0C28078
:104DA000FFE79DF83800C00738B9FFE7BDF83C00C1
:104DB00010F4907F00F0B680FFE79DF84000C00738
:104DC00058B1FFE79DF83D00C00730B1FFE71199EA
:104DD000486C40F001004864FFE79DF84000400740
:104DE00000280BD5FFE79DF83800C00730B1FFE77A
:104DF0001199486C40F002004864FFE79DF84000BC
:104E0000800700280BD5FFE79DF83800C00730B1B8
:104E1000FFE71199486C40F004004864FFE79DF8F3
:104E200040000007002811D5FFE79DF83C008006F0
:104E3000002805D4FFE79DF83800C00730B1FFE730
:104E40001199486C40F008004864FFE71198406CE5
:104E5000002866D0FFE79DF84000800600280AD5AC
:104E6000FFE79DF83C008006002804D5FFE7119875
:104E700005F08EF8FFE7119800684069C0F38010D4
:104E80000C901198406C0007002804D4FFE70C98A0
:104E900000283ED0FFE7119805F000F8119800684F
:104EA0004069400600282FD5FFE7FFE7FFE711988C
:104EB000006850E8050F20F040000B90FFE70B99C9
:104EC0001198026842E805100028F0D1FFE7FFE7DB
:104ED0001198C06B98B1FFE71198C16B49F6D940A2
:104EE000C0F6000008651198C06BFCF7F3FF28B10D
:104EF000FFE71198C06B016D8847FFE703E0119849
:104F0000FFF71CFFFFE703E01198FFF717FFFFE72C
:104F100006E01198FFF712FF119900204864FFE79F
:104F2000FFE723E11198006B012840F0FF80FFE7C5
:104F30009DF84000C006002840F1F880FFE79DF88A
:104F40003C00C006002840F1F180FFE7FFE70020A9
:104F50000A901198006800680A90119800684068EB
:104F60000A900A98FFE711980068406940060028F7
:104F700040F18280FFE71198C06B00684068ADF88F
:104F80002600BDF82600002875D0FFE7BDF82600F2
:104F90001199898D88426EDAFFE7BDF826001199D4
:104FA000C8851198C06BC069B0F5807F58D0FFE705
:104FB000FFE7FFE71198006850E8030F20F48070C6
:104FC0000890FFE708991198026842E8031000284A
:104FD000F0D1FFE7FFE7FFE7FFE71198006850E82F
:104FE000050F20F001000790FFE70799119802686C
:104FF00042E805100028F0D1FFE7FFE7FFE7FFE7F1
:105000001198006850E8050F20F040000690FFE777
:1050100006991198026842E805100028F0D1FFE7D0
:10502000FFE71199202081F84200119900200863C0
:10503000FFE7FFE71198006850E8030F20F0100029
:105040000590FFE705991198026842E803100028CF
:10505000F0D1FFE7FFE71198C06BFCF7C5FEFFE753
:105060001199022048631198818DC28D891A89B2E5
:10507000FFF75EFEFFE779E01199888DC98D401A30
:10508000ADF812001198C08D00284ED0FFE7BDF892
:105090001200002849D0FFE7FFE7FFE711980068FA
:1050A00050E8030F20F490700390FFE703991198E4
:1050B000026842E803100028F0D1FFE7FFE7FFE7AE
:1050C000FFE71198006850E8050F20F001000290FA
:1050D000FFE702991198026842E805100028F0D114
:1050E000FFE7FFE71199202081F842001199002085
:1050F0000863FFE7FFE71198006850E8030F20F00E
:1051000010000190FFE701991198026842E803102E
:105110000028F0D1FFE7FFE71199022048631198BA
:10512000BDF81210FFF704FEFFE71FE09DF84000F6
:10513000000600280AD5FFE79DF83C00000600287D
:1051400004D5FFE7119805F0FDF80FE09DF8400049
:10515000400600280AD5FFE79DF83C0040060028DD
:1051600004D5FFE7119804F0E3FEFFE712B080BD1D
:1051700080B582B00090009820B9FFE701208DF83B
:10518000070040E00098806908B1FFE700E0FFE712
:10519000009890F8410040B9FFE70099002081F89D
:1051A0004000009800F034F8FFE70099242081F8CF
:1051B000410000980168C86820F40050C860009859
:1051C00004F09CFF00980168086920F49040086191
:1051D00000980168486920F02A0048610098016839
:1051E000C86840F40050C860009900204864009AE4
:1051F000202182F84110009A82F8421000994863F9
:105200008DF80700FFE79DF8070002B080BD0000A1
:1052100080B5A0B01F9000201E901D901C901B9088
:105220001A901F98006844F60041C4F200018842B9
:1052300040F09380FFE7FFE70020199043F640001D
:10524000C4F20200016841F400210160006800F42A
:10525000002019901998FFE7FFE70020189043F607
:105260003000C4F20200016841F0010101600068F1
:1052700000F0010018901898FFE7FFE70020179052
:1052800043F63000C4F20200016841F004010160FD
:10529000006800F0040017901798FFE702200B90B9
:1052A0001A901B90002010901C9003200C901D90D1
:1052B00008200D901E900020C4F202001AA90E9141
:1052C000FDF7F6F8DDF82CC00C9A0D980E99109B9E
:1052D0004FF4806ECDF83CE0CDF868E0CDF86CC0BE
:1052E0001C931D921E9040F60000C4F20200FDF7D0
:1052F000DFF80F9A109940F2E010C2F2000011900E
:1053000046F24003C4F2020303604FF000634360BF
:105310008160C1600261416181614FF48072C2614C
:1053200001624162FCF788FF18B1FFE7FCF74CF817
:10533000FFE7FFE71F9840F2E011C2F20001C163EE
:105340001F988863FFE734200A9001210022FDF7AF
:10535000E1FD0A98FDF7D4FD31E11F98006845F2A0
:105360000001C4F20001884240F09580FFE7FFE7AA
:105370000020169043F64000C4F20200016841F498
:1053800080110160006800F4801016901698FFE705
:10539000FFE70020159043F63000C4F202000168D8
:1053A00041F004010160006800F0040015901598B8
:1053B000FFE7FFE70020149043F63000C4F202003C
:1053C000016841F008010160006800F008001490D5
:1053D0001498FFE74FF480501A90022004901B901D
:1053E000002008901C90032005901D900820069036
:1053F0001E9040F60000C4F202001AA90791FDF7C2
:1054000057F8DDF810C0059A06980799089B4FF0E9
:10541000040ECDF868E0CDF86CC01C931D921E9070
:1054200040F60040C4F20200FDF742F8089940F24D
:105430004020C2F20000099046F21002C4F20202BB
:1054400002604FF0006242608160C1604FF4806290
:105450000261416181614FF48072C2610162416207
:10546000FCF7EAFE18B1FFE7FBF7AEFFFFE7FFE747
:105470001F9840F24021C2F20001C1631F98886367
:10548000FFE73520039000221146FDF743FD039806
:10549000FDF736FD92E01F98006841F20001C4F26A
:1054A0000101884240F08980FFE7FFE70020139068
:1054B00043F64400C4F20200016841F010010160AB
:1054C000006800F0100013901398FFE7FFE700203A
:1054D000129043F63000C4F20200016841F001016D
:1054E0000160006800F0010012901298FFE74FF48D
:1054F000C0601A9002201B90002001901C90032095
:105500001D9007201E900020C4F202001AA9FCF78B
:10551000CFFF019940F2A020C2F20000029046F2B3
:105520004042C4F2020202604FF0006242608160B9
:10553000C1604FF48062026141618161C1610162B9
:105540004162FCF779FE18B1FFE7FBF73DFFFFE78B
:10555000FFE71F9840F2A021C2F20001C1631F982B
:105560008863FFE740F20030C2F20000009046F28C
:10557000B841C4F2020101604FF000614160402176
:1055800081600021C1604FF48062026141618161EC
:10559000C16101624162FCF74FFE18B1FFE7FBF702
:1055A00013FFFFE7FFE71F9840F20031C2F200014E
:1055B00081631F988863FFE7FFE7FFE7FFE720B0FD
:1055C00080BD000080B58AB008900791ADF81A2020
:1055D000059300200290089890F84200202840F09F
:1055E0008880FFE7079820B1FFE7BDF81A0020B9CF
:1055F000FFE701208DF827007FE00899002048642C
:10560000089A222182F8421008990863FDF744F9AC
:105610000290BDF81A0008998885BDF81A0008990B
:10562000C88508988068B0F5805F09D1FFE70898C1
:10563000006928B9FFE7002004900798039004E070
:105640000798049000200390FFE7FFE70898C08DBB
:10565000002846D0FFE70898029B05996A4611602A
:105660002021002204F0B8FE40B1FFE70899202075
:1056700081F8420003208DF827003EE0049858B9D5
:10568000FFE70898006840686FF35F20039908807F
:105690000398023003901FE008988068B0F5805F9F
:1056A00008D0FFE70898806850B9FFE708980069BC
:1056B00030B9FFE70898006840680499087007E06F
:1056C00008980068406800F07F0004990870FFE7C0
:1056D000049801300490FFE70899C88D0138C88507
:1056E000B4E70899202081F8420000208DF82700B7
:1056F00003E002208DF82700FFE79DF827000AB09D
:1057000080BD000080B584B002900191ADF8022008
:10571000029890F84200202817D1FFE7019820B1A5
:10572000FFE7BDF8020020B9FFE701208DF80F0068
:105730000FE002990020086302980199BDF8022049
:1057400004F07AFD8DF80F0003E002208DF80F00C1
:10575000FFE79DF80F0004B080BD000082B001900B
:105760000198006845F20001C4F20001884240F04F
:105770008980FFE740F2D500C2F20000017840F2D4
:105780002710C2F20000405C53284ED0FFE70020F3
:105790008DF80300FFE79DF80300152844DCFFE7C0
:1057A0009DF8031040F22710C2F20000405C53281D
:1057B00033D1FFE79DF8030040F2D501C2F20001AA
:1057C000087000208DF80200FFE79DF802000A280B
:1057D00022DCFFE740F2D500C2F2000000789DF81D
:1057E000022083184EF6BB00C0F6A230A3FB0010C7
:1057F000162100FB113140F22710C2F20000405C7C
:1058000040F21C11C2F200018854FFE79DF802002B
:1058100001308DF80200D8E706E0FFE79DF80300AD
:1058200001308DF80300B6E72BE000208DF8010071
:10583000FFE79DF801000A2822DCFFE740F2D500CF
:10584000C2F2000000789DF8012083184EF6BB00DC
:10585000C0F6A230A3FB0010162100FB113140F26C
:105860002710C2F20000405C40F21C11C2F200019D
:105870008854FFE79DF8010001308DF80100D8E75A
:10588000FFE73AE00198006844F60041C4F20001E5
:10589000884231D1FFE740F2D400C2F20000017823
:1058A00040F2D600C2F20000405CFF2823D0FFE7A0
:1058B00000208DF80000FFE79DF80000082819DCA3
:1058C000FFE79DF8001040F2D600C2F20000405CF5
:1058D000FF2808D1FFE79DF8000040F2D401C2F292
:1058E0000001087006E0FFE79DF8000001308DF828
:1058F0000000E1E7FFE7FFE7FFE702B070470000C5
:1059000081B0009001B0704780B58AB008900791CF
:10591000ADF81A20059300200290089890F84100F5
:10592000202840F08180FFE7079820B1FFE7BDF80D
:105930001A0020B9FFE701208DF8270078E00899C8
:10594000002048640899212081F84100FCF7A4FF59
:105950000290BDF81A0008998884BDF81A000899C9
:10596000C88408988068B0F5805F09D1FFE708987F
:10597000006928B9FFE7002004900798039004E02D
:105980000798049000200390FFE7FFE70898C08C79
:1059900078B3FFE70898029B05996A461160802159
:1059A000002204F019FD40B1FFE70899202081F89A
:1059B000410003208DF827003AE0049858B9FFE72A
:1059C000039800886FF35F2008990968486003987E
:1059D0000230039008E0049800780899096848604C
:1059E000049801300490FFE70899C88C0138C884F6
:1059F000CCE70898029B05996A4611604021002275
:105A000004F0EAFC40B1FFE70899202081F841004A
:105A100003208DF827000BE00899202081F8410031
:105A200000208DF8270003E002208DF82700FFE713
:105A30009DF827000AB080BD81B0009001B070478A
:105A4000FFE7FEE782B0009000980068406900F42C
:105A500080610120B0EB912F1ED1FFE70098016813
:105A60006FF480604861009900200863009A20214B
:105A700082F83D10009981F83E000099086C40F0D2
:105A800004000864FFE70099002081F83C00FFE76C
:105A900001208DF8070003E000208DF80700FFE7E4
:105AA0009DF8070002B0704780B586B0DDF824C0CD
:105AB000DDF820C00490ADF80E10ADF80C20ADF864
:105AC0000A3004980168086840F4807008600498FF
:105AD000089B09996A4611604FF00111002200F0FD
